:020000040800F2
:1000000000C00020A5030008210E0008250E0008EE
:10001000290E00082D0E0008310E00085B1500089F
:100020005B1500085B1500085B1500085B150008F0
:100030005B1500085B1500085B1500086D150008CE
:100040005B1500085B1500085B1500085B150008D0
:100050005B1500085B150008750E0008950E00087A
:10006000B50E0008D50E0008F50E0008C50C0008F6
:10007000DD0C0008F50C0008110D00082D0D00081E
:10008000490D0008650D0008D10A00085B1500083D
:10009000F51F00085B1500085B150008150F000828
:1000A000511800087518000899180008D1180008A0
:1000B0002519000895190008051A00082D120008D6
:1000C0004512000839120008511200085B1500089B
:1000D0005B150008293500088D350008F13500084A
:1000E000590F00085B1500085B1500082D1B000860
:1000F000511B0008751B0008AD1B0008290B0008E8
:100100005B1500085B150008751A00085B150008F0
:10011000511E0008A11E0008E51A0008091B00086E
:10012000810D0008990D0008B10D0008CD0D0008E3
:1001300010B5054C237833B9044B13B10448AFF321
:1001400000800123237010BD8810002000000000F3
:1001500088D6020808B5034B1BB103490348AFF327
:10016000008008BD000000008C10002088D6020826
:1001700010B512490A2309220968114800F0EAF96A
:1001800010490323022209680F4800F0E3F90F49E0
:100190001B231A2209680E4800F0DCF90D492B23B5
:1001A0002A2209680C4800F0D5F9BDE810400B4937
:1001B00032232C2209680A4800F0CCB984020020BE
:1001C000A410002088020020BC1000208C02002017
:1001D000D41000207C020020EC10002080020020BF
:1001E0000411002010B5044600F0F4FC034B204637
:1001F000BDE81040197800F055BC00BF1600002083
:10020000F8B50446056801F00DFA002223685B0189
:1002100003F184431A6080232B600123AB622A61BF
:10022000EA606B61637973B1012B0FD001222368FF
:100230005B0103F18443C3F8802223685B0103F16F
:1002400084431A60F8BD4FF400436B644FF6FF72AD
:1002500000252368DA626E1CF7B23946204601F0A9
:10026000F6F9E8B148F6FF72236817F0010F03F1C1
:10027000340343F8252014BF6FF0FF026FF47F4270
:1002800023684FEA650503F1180353F8251001EAC6
:10029000020114BF68224FF4D0420A4343F82520DC
:1002A000042E3546D7D1C1E77047000038B5002588
:1002B000264A274C1368022043F01003136000F015
:1002C0006DFE002001F03EF865602368182023F4DD
:1002D0000023236001F042F8102001F03FF800F005
:1002E00043F8A560102001F02DF8102001F044F82B
:1002F0000028FAD000F039F8164801F049F8182023
:1003000001F020F8182001F037F80028FAD0022078
:1003100001F008F800214FF0006000F0D9FF0E480E
:1003200001F01CF900F038F80C4B188800F03AFC8A
:100330000B4800F03BFC0B4801F04EF900F02EF8A2
:1003400000F02DF8FFF7B0FF38BD00BF00200240DD
:10035000001002400C0000203F1901001400002092
:10036000E5010008010200087047002108B50846B1
:1003700001F04EF84FF48061012001F049F80021AE
:10038000022001F045F82D2001F052F8BDE80840A8
:100390000021032001F03CB800F014BE704700F0CB
:1003A00050BE000001498D460149084700C00020A9
:1003B000B503000808B5114B1A68114B9A4213D1C6
:1003C000104B114A934213D326F022FA0022114611
:1003D000104602F05FFD0D4B7BB125F0B5FF52F8E2
:1003E000041B043343F8041C09498B42F7D3E7E7A5
:1003F0000022043343F8042CE3E7FEE7A0330308AC
:100400000000002088100020E82F00204963020827
:100410008810002010B50D4B1A680AB90C4A1A60F2
:100420001A680C49891A814204DB09494442511A6D
:10043000A14207DA25F082FF0C234FF0FF32036060
:10044000104610BD10441860FAE700BF1C110020D0
:10045000E82F002018A90328002070474FF400530C
:1004600000204B607047012070474FF0FF3070470D
:100470000020704710B50C46FFF7FAFF20700120EE
:1004800010BD704770B515460C468E18B44201D1A8
:10049000284670BD14F8010BFFF7F3FFF6E7FEE7FF
:1004A000C38882889B1AC2888188914282BF028950
:1004B00001329B1898B2704710B50369044658681A
:1004C000FFF7EEFF88B123695B689A88196892B2DA
:1004D000885C99881A89C0B292B28A420FBF002202
:1004E0009A88013292B29A8010BD4FF0FF30FBE73C
:1004F00008B503695868FFF7D3FF08BD03695B6857
:100500009988DA8892B28A421FBF9A881B6892B291
:10051000985C14BFC0B24FF0FF3070470269916819
:100520008888CB889BB28342FAD1126813685B0635
:10053000FCD5704713B504698DF8071001220DF141
:100540000701204601F0A7FB0028F7D0012002B0E8
:1005500010BD000030B54FF0000C4FF47A75C0E9C3
:1005600001C5034D016105600275437530BD00BFD3
:1005700050EC02082DE9F74303690446DB6888461E
:100580008B42914625D3067D134D3601AB19477D2D
:10059000586818B10022597B01F010F9206901F068
:1005A0002FFB39016A18127BAB19CDF804901B7B25
:1005B000695800932069AB5901F0E9FB2069424674
:1005C000002101F00AFC206903B0BDE8F04301F00E
:1005D0003DBB03B0BDE8F08318E90208044B027983
:1005E0001B789A4202BF034B1B681860704700BF1C
:1005F0004011002044110020002310B50446036080
:1006000072B6054B19311970044B1860044800F09C
:10061000E3FF62B6204610BD4011002044110020C7
:10062000DD050008002203681B685B0103F18443B9
:100630001A607047012203681B685B0103F1844361
:100640001A607047036801391B6889B29962704764
:1006500003681A68D36A9BB2994228BF194651624F
:10066000704738B561B9012203681B689962036855
:100670001B68DA6203681B68DC6AA4B2204638BDD6
:1006800048224A434FF6FF71B2FBF1F1013189B2C2
:1006900002EB5102B2FBF1F294B2FFF7D3FF036811
:1006A00092B21B68DA62E9E7C9B2006801F086B865
:1006B0000368C9B2186801F18041C36A01399BB26D
:1006C000934228BF1346343040F821307047C9B2F6
:1006D000006800F0D5BFC9B2006801F053B801222C
:1006E00003681B685B0103F18443C3F880227047F1
:1006F00008B501211048FFF77FFF02210F48FFF7DF
:100700007BFF03210E48FFF777FF04210D48FFF719
:1007100073FF05210C48FFF76FFF06210B48FFF719
:100720006BFF07210A48FFF767FFBDE80840082173
:100730000848FFF761BF00BF2011002024110020EE
:10074000281100202C11002030110020341100202D
:10075000381100203C110020F8B506460C4615461D
:100760008F18A74206D0336814F8011B1B68304667
:100770009847F6E72846F8BD70B505460C4608468A
:1007800049B127F001F92B68024621462846BDE809
:1007900070409B68184770BD0368C9B21B68184752
:1007A00003685B68184738B50D210546FFF7F4FF6D
:1007B0000A2104462846FFF7EFFF204438BD38B52C
:1007C0000546FFF7EDFF04462846FFF7ECFF2044FF
:1007D00038BD2DE970439046994690B058EA090318
:1007E00006469DF8585007D13021FFF7D5FF012567
:1007F000284610B0BDE870830024404649462A468A
:1008000000231BF0DFFB8046894601340DEB040317
:1008100003F8012C58EA0903EFD10025013C1DF82B
:1008200004103046092994BF3031373149B2FFF7FF
:10083000B3FF0544002CF1D1DAE72DE9F0411D4664
:10084000002A75F1000307461446069E05DA2D219D
:10085000FFF7A2FF644265EB4505F6B20696224615
:100860002B463846BDE8F041FFF7B3BF07B5CB17BD
:1008700000920A46FFF7E1FF03B05DF804FB38B5CC
:100880000546FFF7F3FF04462846FFF78CFF204498
:1008900038BD07B5CB1700920A46FFF7CEFF03B06D
:1008A0005DF804FB37B5CB1700920A460546FFF703
:1008B000C4FF04462846FFF776FF204403B030BD4E
:1008C00007B5D2B2009200230A46FFF782FF03B0B9
:1008D0005DF804FB37B5D2B2009200230A46054604
:1008E000FFF777FF04462846FFF75DFF204403B07B
:1008F00030BD0000000000002DE9F34717461E46FA
:10090000824600220023384631461AF039FF9DF80E
:1009100028504FF00104F8B143A3D3E9002338462F
:1009200031461AF023FF00B90446E4B20022002346
:1009300038463146C4B11AF005FF18B12D21504692
:10094000FFF72AFF04463C495046FFF729FF0444BD
:10095000204602B0BDE8F08735A3D3E9002338462E
:1009600031461AF0F9FEDEE71AF0ECFE30B12D2127
:100970005046FFF711FF044606F100464FF000080D
:1009800000202E495FFA88F39D4206D900222C4BA5
:100990001AF090FD08F10108F4E73A4633461AF0E0
:1009A000A9FA06460F461BF025FB0A2302460093D0
:1009B00080460B4650468946FFF73FFF0444002D12
:1009C000C6D0404649461AF01DFC02460B4630464A
:1009D00039461AF08DFA06460F4650461949FFF778
:1009E000DFFE0444013DEDB2FF2DB1D0144B0022D7
:1009F000304639461AF034FC0F4606461AF0CAFE55
:100A00000A22014680465046FFF730FF0444404624
:100A10001AF0BCFB02460B46304639461AF068FA1B
:100A200006460F46DEE700BF800350726C92DF433C
:100A3000800350726C92DFC36CEC02080000E03F50
:100A400000002440CB0A03089DF800100091FFF736
:100A500053BF000030B504460D4687B0064901A8D3
:100A600026F07EFD22462B4601A90A9826F078FD45
:100A70000A9807B030BD00BF7BEC0208704710B584
:100A80000446007900F092FC2079BDE8104000F0A7
:100A9000A5BC026841F48011936823F460231943D4
:100AA00091607047002330B51C461D4603EB43029E
:100AB000072B01FA02F203F10103D8BF15430A2BF9
:100AC00044EA0204F2D10368DD6003681C6130BDB2
:100AD00070B5144C23681B681D68A90707D51A68F0
:100AE00022F002021A6023689B6803B198476A07E4
:100AF00009D523681A68136823F004031360236878
:100B00001B6903B19847EB070BD523681A68136874
:100B100023F0010313602368DB6813B1BDE8704064
:100B2000184770BD1C00002070B5144C23681B686A
:100B30001D68A90707D51A6822F002021A60236807
:100B40009B6803B198476A0709D523681A68136838
:100B500023F00403136023681B6903B19847EB0774
:100B60000BD523681A68136823F001031360236808
:100B7000DB6813B1BDE87040184770BD2400002049
:100B8000012203685B0103F1844303F58673191F97
:100B90001A6018680028FCD143F8042C0B68002B5D
:100BA000FCD170470146042000F032BC10B5044669
:100BB000054B1868A047054B1868A047044B1868F8
:100BC0002346BDE8104018471C00002020000020EC
:100BD0002400002010B50446FFF751FF20464FF4D3
:100BE0006021FFF756FF0122236820465B0103F1D5
:100BF0008443C3F8502123685B0103F18443C3F8A5
:100C00000021BDE81040FFF7BBBF007900F0CEBB6C
:100C100014230139594300680830435823F44053E2
:100C200043EA023242507047036814200833013906
:100C300000FB01314A60704700EBC10340F83120EE
:100C400093F90430002B08DB0122591103F01F0334
:100C500002FA03F3014A42F82130704700E100E054
:100C600014220368013902FB01310123490101F11A
:100C70008441C1F80031704714220368013902FB36
:100C800001310023490101F18441C1F8003170476D
:100C90002DE9F04114251C4690464B1E5D43066825
:100CA000FFF7EAFF9DF81C30240244EA8324089BE6
:100CB00008361C43069B77197451FB60C7F80880FF
:100CC000BDE8F08110B5044B1C68A3681BB19847C0
:100CD000012223685A6010BD6000002010B5044B4B
:100CE0001C6823691BB19847102223685A6010BD05
:100CF0006000002010B5054B1C68A36923B198471C
:100D00004FF4807223685A6010BD00BF600000205D
:100D100010B5054B1C68236A23B198474FF48052E5
:100D200023685A6010BD00BF6000002010B5054B5D
:100D30001C68A36A23B198474FF4803223685A6035
:100D400010BD00BF6000002010B5054B1C68236B70
:100D500023B198474FF4801223685A6010BD00BF3A
:100D60006000002010B5054B1C68A36B23B19847A9
:100D70004FF0807223685A6010BD00BF60000020F1
:100D800010B5044B1C68A3681BB198470122236867
:100D90005A6010BD6400002010B5044B1C68236924
:100DA0001BB19847102223685A6010BD64000020D0
:100DB00010B5054B1C68A36923B198474FF48072A6
:100DC00023685A6010BD00BF6400002038B5104C85
:100DD000636CD8070BD52368D90408D50D4B1D6863
:100DE0002B6A23B198474FF480522B685A60A36D49
:100DF000DA070BD52368DB0308D5064B1C68A36A0A
:100E000023B198474FF4803223685A6038BD00BF41
:100E10000004024064000020000000000000000008
:100E2000012007E0022005E0032003E0042001E0A8
:100E30000520FFE70D4A0121116072B60C4A00211E
:100E40001160074902B4084902B486B005498E46CC
:100E5000704700BFAFF30080AFF30080AFF30080B6
:100E600000000061F9FFFFFF612E000814ED00E0B3
:100E700010E000E008B5054A136833B150689847A0
:100E80000122034B5A6100BF00BF08BD481100207A
:100E90000004014008B5054A936833B1D06898470B
:100EA0000222034B5A6100BF00BF08BD4811002059
:100EB0000004014008B5054A136933B150699847E9
:100EC0000422034B5A6100BF00BF08BD4811002037
:100ED0000004014008B5054A936933B1D0699847C9
:100EE0000822034B5A6100BF00BF08BD4811002013
:100EF0000004014008B5054A136A33B1506A9847A7
:100F00001022034B5A6100BF00BF08BD48110020EA
:100F1000000401402DE9F041002705240C4DD5F8CF
:100F200014800126A64018EA060F08D0094BE100FC
:100F300053F834201AB10B445868904737430134B2
:100F40000A2CEED16F6100BF00BFBDE8F08100BF89
:100F500000040140481100202DE9F04100270A2437
:100F60000C4DD5F814800126A64018EA060F08D0CB
:100F7000094BE10053F834201AB10B4458689047EC
:100F800037430134102CEED16F6100BF00BFBDE8C4
:100F9000F08100BF0004014048110020034A13689B
:100FA00023F0070318431060704700BF0020024081
:100FB00010B50446007900F0F9F92079BDE8104039
:100FC00000F00CBA08B50748FFF7F2FF0648FFF734
:100FD000EFFF0648FFF7ECFFBDE808400448FFF7C5
:100FE000E7BF00BFD8000020E0000020E80000209C
:100FF000F000002070B50F250368CE0801F007004F
:10100000840053F82600092A05FA04F520EA0505AC
:1010100014BF10460820A0402843082A43F82600A1
:1010200007D10120DA6800FA01F122EA0101D96052
:1010300070BD092AFCD10122D86802FA01F10143EE
:10104000F5E708B5032000F0B1F9BDE8084003203A
:1010500000F0C4B903681A6812F4985FFBD11A68EB
:1010600042F480721A60704703681A6812F4985F3D
:10107000FBD11A6842F400721A600268136813F414
:10108000985FFBD17047000070B5026845685169F0
:1010900092695A4AAE781268CB07044606F00106F8
:1010A000C26014D50023EB8000F0D8F822685368A2
:1010B00043F48063536026B12268136843F480636D
:1010C000136000212B88226846EA4303136111F064
:1010D0000A0F10D0AB88002E45D0012B0AD1226810
:1010E0002046136823F480631360A38B012B37D948
:1010F000FFF7B0FF002101F08402802A03D1A38B07
:10110000002B49D1002101F08402842A0DD1A18B4A
:101110002046002954D0FFF79DFF22685369D90764
:10112000FCD5002163680C3363604B0661D52368EE
:10113000AA681969EB88581CE880D154AB88EA8802
:10114000591E8A424BD122682046136823F48063DB
:101150001360A38B022B3ED9BDE87040FFF77ABF26
:10116000FFF782FFC6E7012B08D9EB88A9685A1C54
:10117000EA802268CB5C13613146BCE7002BFBD1CF
:101180002046FFF771FF2268536823F40073536011
:10119000022384F82330ADE7EB88A9685A1CEA8063
:1011A0002268CB5C1361EA88AB889A42AAD1226894
:1011B000536823F480635360A38B013BA383A1E7AF
:1011C000FFF752FF2268536823F400735360022331
:1011D00084F82330A9E7BDE87040FFF745BF9A4285
:1011E00007D1A38B013B9BB2A3831BB9022384F8D5
:1011F000233070BD63680C336360FAE7802F0020F2
:1012000008B50268536903F4706383600023536177
:1012100002689361FFF728FF0268536823F4E063D4
:101220005360FF2380F8233008BD00000148FFF71A
:101230002BBF00BFF80000200148FFF725BF00BF0B
:101240001C0100200148FFF7DBBF00BFF8000020B1
:101250000148FFF7D5BF00BF1C01002010B50446B0
:10126000002190F9210000F01FF894F922000021DC
:10127000BDE8104000F018B845F25552054B1A6011
:101280004CF6CC42586099601A604AF6AA221A605D
:10129000704700BF003000404AF6AA22014B1A6096
:1012A000704700BF003000400028A8BF00F1604038
:1012B0004FEA0111B8BF054BC9B2B5BF00F00F002E
:1012C00000F56140195480F80013704714ED00E0F8
:1012D00010B5002421F0604121F07F01064A01434E
:1012E000916060B20F210134FFF7DEFF3C2CF8D192
:1012F000F02382F8233010BD00ED00E00449054BD7
:10130000CA6802F4E0621343CB60BFF34F8FFEE77D
:1013100000ED00E00400FA05014B13F810007047DF
:10132000A0EC0208064B5A6822F0030202435A60FE
:1013300080005A6802F00C028242FAD1704700BF66
:1013400000100240030AC2B2012003F1804303F5FA
:101350000433196890400843186070470121030A5C
:1013600003F1804303F504331A68C0B201FA00F0B8
:1013700022EA000018607047030A03F1804303F576
:1013800004331A680223C0B203FA00F01040704719
:10139000054A0168536823F474130B4341680968D4
:1013A0000B435360704700BF0010024010B5044665
:1013B000FFF7B2FF074B53F82020074800EB44002B
:1013C000437803EBC20301229B0003F184431A60BC
:1013D00010BD00BF40010020A0EC020810B504467B
:1013E000FFF79AFF084B53F82020084800EB440011
:1013F000437803EBC20301229B0003F184431A608C
:1014000000221A6010BD00BF58010020A0EC0208A5
:1014100010B5054A054C536854F8200023EA000330
:101420000B43536010BD00BF001002408CEC02085B
:1014300010B50446FFF770FF074B53F8202007480C
:1014400000EB4400437803EBC20300229B0003F14E
:1014500084431A6010BD00BF4C010020A0EC0208BC
:1014600001EBC000800000F184400260704710B5BD
:1014700004460079FFF79AFF2079BDE81040FFF796
:10148000ADBF012206210068FFF7EABF0022062156
:101490000068FFF7E5BF10B50C46016803464A68CF
:1014A00022F0E0024A6002681268624012F4205F93
:1014B00001D0FFF7EBFF1A6818461460BDE8104032
:1014C000FFF7DFBF134343F004031943FFF7E3BF04
:1014D0000122006811460430FFF7C2BF00680022F5
:1014E00001210430FFF7BCBF006801220021043055
:1014F000FFF7B6BF002203685B0103F18443C3F822
:1015000080207047F8B51046069C9DF81C709DF829
:1015100020609DF8245081B10B2239462046FFF708
:1015200069FD042231462046FFF764FD0B2229465F
:101530002046BDE8F840FFF75DBD19460422FFF7DD
:1015400059FD042239462046FFF754FD0B2231464F
:101550002046FFF74FFD0422E9E7FEE70722024B92
:1015600058601A60704700BF10E000E0044A13683A
:1015700001331360034B1B6803B11847704700BF6A
:10158000802F0020C811002011F0010F70B501F16B
:10159000FF340DBF082500256FF0FF016FF47F4178
:1015A0000068C4F34004183050F8246013433140FD
:1015B000AB400B4340F8243070BD02684B1E02F173
:1015C000404220329B0003EBC20301229B0003F147
:1015D00084431A607047000010B504460948A047CC
:1015E0000948A0470948A0470948A0470948A0471B
:1015F0000948A0470948A0472346BDE810400848CD
:10160000184700BF84010020AC010020D001002059
:10161000F4010020180200203C02002048020020B3
:101620005402002010B504460079FFF7BFFE207970
:10163000BDE81040FFF7D2BE0023026813600268C5
:10164000D3604279012A9CBF026813627047037914
:101650001E2B10D9212B0ED0202B0ED9222B01D0DE
:10166000252B04D102298CBF0020012070474B1E7E
:1016700058425841704701207047002070470000D1
:101680008B1C40F82320012342798B4010B5DB43AB
:10169000EAB1012A41F65F6218BF0122134001221C
:1016A00004682361036803F140430C3301EBC30377
:1016B0009B0003F184431A60427903793ABB0729FE
:1016C00015D8DFE801F007151515151A1A1F41F690
:1016D000FF62E3E71A2B0CBF19232C2301225909BF
:1016E00003F01F0302FA03F3254A42F8213010BD2C
:1016F0001A2B0CBF1B232E23F0E71A2B0CBF1A2327
:101700002D23EBE71A2B0CBF18232B23E6E71B3BFB
:101710000C2BECD801A252F823F000BF7D17000873
:101720005117000855170008591700085D170008E1
:1017300061170008EF160008651700086917000810
:101740006D17000871170008751700087917000851
:101750001D23C3E71E23C1E73223BFE73623BDE7BE
:101760003723BBE71823B9E71923B7E71A23B5E7EF
:101770002B23B3E72C23B1E72D23AFE71C23ADE7E1
:1017800000E100E00022036803F140430C3301EB69
:10179000C3039B0003F1844302311A6040F8212007
:1017A000704738B504460D4613460022FFF7ECFE9D
:1017B00029462046BDE83840FFF7FFBE38B54379DB
:1017C0000546022B0C4615D0042A13D8DFE802F098
:1017D00003132A2D3A00FFF7D5FF0268631E02F1BA
:1017E000404220329B0003EBC20300229B0003F126
:1017F00084431A6038BD0022036803F140430C3370
:1018000001EBC3039B0003F184431A6008236022A9
:1018100021462846FFF7B8FE21462846BDE8384055
:10182000FFF7CBBE00231022F2E74FF2F11203685C
:101830009A61032203689A60036801225B0103F145
:101840008443D6E70122BDE83840FFF7AABF000075
:1018500010B5074A1468E36821690B401B0606D5DA
:10186000536A23B19847236923F08003236110BD95
:101870008401002010B5074A1468E36821690B4011
:10188000DB0706D5936823B19847236923F001034A
:10189000236110BD84010020F8B50C4D2F68FE684F
:1018A0003B691E4016F0400403D02C6A0CB1A047DF
:1018B0004024B30604D5EB6913B1984744F02004E3
:1018C0003B6923EA04043C61F8BD00BF84010020A9
:1018D000F8B5134D2F68FE683B691E4016F01004E2
:1018E00003D0AC690CB1A0471024310704D56B6953
:1018F00013B1984744F00804720704D52B6913B15B
:10190000984744F00404B30704D5EB6813B1984733
:1019100044F002043B6923EA04043C61F8BD00BFC3
:1019200084010020F8B51A4D2F68FE683B691E40FF
:1019300016F0400403D02C6A0CB1A0474024F306F3
:1019400004D5AB6913B1984744F01004300704D5AF
:101950006B6913B1984744F00804710704D52B69EB
:1019600013B1984744F00404B20704D5EB6813B1EF
:10197000984744F00204F30704D5AB6813B19847C5
:1019800044F001043B6923EA04043C61F8BD00BF54
:10199000AC010020F8B51A4D2F68FE683B691E4067
:1019A00016F0400403D02C6A0CB1A0474024F30683
:1019B00004D5AB6913B1984744F01004300704D53F
:1019C0006B6913B1984744F00804710704D52B697B
:1019D00013B1984744F00404B20704D5EB6813B17F
:1019E000984744F00204F30704D5AB6813B1984755
:1019F00044F001043B6923EA04043C61F8BD00BFE4
:101A0000D0010020F8B51A4D2F68FE683B691E40D2
:101A100016F0400403D02C6A0CB1A0474024F30612
:101A200004D5AB6913B1984744F01004300704D5CE
:101A30006B6913B1984744F00804710704D52B690A
:101A400013B1984744F00404B20704D5EB6813B10E
:101A5000984744F00204F30704D5AB6813B19847E4
:101A600044F001043B6923EA04043C61F8BD00BF73
:101A7000F4010020F8B51A4D2F68FE683B691E403E
:101A800016F0400403D02C6A0CB1A0474024F306A2
:101A900004D5AB6913B1984744F01004300704D55E
:101AA0006B6913B1984744F00804710704D52B699A
:101AB00013B1984744F00404B20704D5EB6813B19E
:101AC000984744F00204F30704D5AB6813B1984774
:101AD00044F001043B6923EA04043C61F8BD00BF03
:101AE0001802002010B5074A1468E36821690B400A
:101AF000DB0706D5936823B19847236923F00103D8
:101B0000236110BD3C02002010B5074A1468E36849
:101B100021690B40DB0706D5936823B198472369F9
:101B200023F00103236110BD4802002010B5074ACD
:101B30001468E36821690B401B0606D5536A23B17C
:101B40009847236923F08003236110BD54020020CD
:101B500010B5074A1468E36821690B40DB0706D516
:101B6000936823B19847236923F00103236110BDD3
:101B700054020020F8B50C4D2F68FE683B691E40EA
:101B800016F0400403D02C6A0CB1A0474024B306E1
:101B900004D5EB6913B1984744F020043B6923EA6C
:101BA00004043C61F8BD00BF54020020F8B5134D99
:101BB0002F68FE683B691E4016F0100403D0AC6924
:101BC0000CB1A0471024310704D56B6913B19847B5
:101BD00044F00804720704D52B6913B1984744F008
:101BE0000404B30704D5EB6813B1984744F002042A
:101BF0003B6923EA04043C61F8BD00BF54020020A5
:101C000000223F2110B50446436810309A801860C6
:101C1000DA801981A3689A80DA8004F15002198170
:101C20001A6094F89000FFF7C1FB94F99130002BF3
:101C300008DB0122591103F01F0302FA03F3024AE1
:101C400042F8213010BD00BF00E100E00368DA680F
:101C500042F02C02DA60DA6842F40052DA6070472F
:101C600010B5036881688C88CA8892B2A242FAD102
:101C7000DA68910402D51A685206F9D5DA6822F4B6
:101C80000052DA60426893889BB2D380826893885E
:101C90009BB2D38010BDF0B50B4606460468B5680C
:101CA000581AAF88ED88ADB2BD4204D125682D0623
:101CB00001D5824210D8E36823F08003E3609042AC
:101CC000B3680DD39A88DB889BB293421EBFE3684A
:101CD00043F08003E360F0BD13F8010B6060DEE7C2
:101CE000DD889F880135BD42ECD0DF881D89ADB20B
:101CF000BD4203D19D88ADB2002DE3D0DD8811F83F
:101D000000C01F68ADB207F805C0DF881D8901302B
:101D1000ADB2BD420FBF0025DD880135ADB2DD801B
:101D2000CDE703468288016892B2885C99881A8957
:101D3000C0B292B28A420FBF00229A88013292B298
:101D40009A80704738B5C38882880133934204462D
:101D50000D4607D0C28803899BB2934214D1838871
:101D60009BB28BB92046FFF7DCFFE38822689BB269
:101D7000D554E28823899BB293420FBF0023E388A6
:101D800001339BB2E38038BD4FF0FF30EDE770B513
:101D90001E460546084611460422059CFFF72AF90F
:101DA0000B229DF810103046FFF724F929686302D2
:101DB000CA6803F4F05322F4F0521204120C1343D5
:101DC000CB602A682402136904F4405423F440537E
:101DD0001B041B0C1C43146170BD38B5054614462A
:101DE00011B900F085F8014619235943A200B1FB4F
:101DF000F2F26421B2FBF1F001FB10231B0132333C
:101E0000B3FBF1F303F00F032C6843EA00139BB21A
:101E1000A36038BD10B50446084B1868A047084BAE
:101E20001868A047074B1868A047074B1868A047D9
:101E3000064B18682346BDE810401847840200206E
:101E4000880200208C0200207C02002080020020FA
:101E500010B5104CE368980607D52368990604D599
:101E600061680D48C9B2FFF76DFFE3681A060BD52C
:101E700023681B0608D509488288C3889BB2934211
:101E800003D0FFF74EFF606010BDE36823F08003CE
:101E9000E360F9E7004C0040CC110020D81100208D
:101EA00010B5104CE368980607D52368990604D549
:101EB00061680D48C9B2FFF745FFE3681A060BD504
:101EC00023681B0608D509488288C3889BB29342C1
:101ED00003D0FFF726FF606010BDE36823F08003A6
:101EE000E360F9E700500040E4110020F011002009
:101EF00008B590F89000FFF70FFA20B101280348C9
:101F000018BF002008BD0248FCE700BF00A24A0439
:101F10000051250230B548F28005094C226822F4B0
:101F2000804222F070022A4342402260236823F458
:101F3000E04323F040032B434B40236030BD00BF00
:101F4000005C0040284B072818BF18701A78052A33
:101F500048D8DFE802F003131E232B364FF6FB713F
:101F6000224A106C014011644FF43F411164062273
:101F70001A701F4B1B685A7B1A7370474FF6FB7120
:101F80001A4A106C014011644FF43F41116404225D
:101F900002E002225A7003221A7006E05A78013ACF
:101FA000D2B25A705A78002AF1D070470F490A6CA1
:101FB00092B242F010020A6405221A700A225A7084
:101FC00070475A78013AD2B25A705A78002AECD146
:101FD0004FF6EF720549086C02400A64044A126821
:101FE000517B11730622D7E7842F0020005C00404C
:101FF000740500202DE9F0415F4D604A2B68546C58
:102000001B68A4B223405E0506D56FF48063536459
:102010005B4B1B685B6898472A68136823409804E9
:1020200042BF6FF40051554B596413682340D904E3
:1020300006D56FF4C052514B00205A64FFF782FF5F
:102040002B681A68224012050FD54C490A6C92B2CF
:1020500042F0080042F00C0208640A641A7B5A73CA
:1020600003221A736FF4C0524A641A68224097051B
:1020700042BF6FF40071414A51641B682340DE0582
:1020800006D56FF480723D4B07205A64FFF75AFF64
:102090002B681B681C40240403D5384C676C3B0438
:1020A00001D4BDE8F0816FF4004317F00F066364BC
:1020B00038D148F68003D4F8008018EA030FECD03A
:1020C0001FFA88F32F4D304E03F440524FF4005066
:1020D00003F03003202133802A80FFF71BFFF8062E
:1020E00023680ED423F4E14323F070031B041B0C7C
:1020F000236000F09BFD31882888BDE8F041FFF7A0
:1021000009BF18F0800FEDD123F070031B051B0DE4
:1021100018F4006F236002D000F0A6FBEBE700F09C
:1021200003FDE8E7B40004F1804404F5B8442768EF
:1021300039040DD5236823F070031B051B0D2360A4
:102140002A6806F180439268013B52F82330984791
:102150003A06A2D5236806F1804623F4E14323F032
:1021600070031B041B0C23602B68013E5B6853F853
:102170002630984791E700BF74050020005C0040BE
:102180008C2F0020862F0020882F0020800000F157
:10219000804000F5B840036823F4804323F07003C7
:1021A00043F4004343F0800359400160704700004E
:1021B00018B90722024B1B681A820248704700BFF9
:1021C000942F0020E40500200022012110B5104BBF
:1021D0001B689A720F4B19640F49086802600868FF
:1021E00004681C644FF4E0545A640460086804688E
:1021F0001C644FF43F445A64046008680068186423
:102200004FF48010054B18600B681A7310BD00BFA7
:10221000942F0020005C00407405002000E100E0E5
:1022200013B5104B1A68137803F07F03212B16D1D6
:10223000022808D0222801D0022405E093780A4A17
:1022400003F0030313700024084B1B6823B102A999
:1022500001F8010D02209847204602B010BD02246B
:10226000FAE700BF942F00204812002044120020FB
:1022700021B901288CBF022000207047022070473E
:10228000054B1B689B78032B04D8044901EBC30161
:1022900000F0BCBA00207047942F0020CC0500202D
:1022A000014900F0B3BA00BF88050020014900F0E1
:1022B000ADBA00BF9005002037B5114C22681278E6
:1022C00002F07F02212A02D0022003B030BDA0F12B
:1022D0002003012B0B4B0C4D1B6888BF002523B13D
:1022E00002A901F8010D02209847002DECD02368C7
:1022F00000249D615C822046A8472046E5E700BF98
:10230000942F002044120020B12100082DE9F0474D
:1023100000254FF0C00948F68F1648F280074FF0AD
:10232000400A434B434C1B68DFF838819D7283F8A9
:102330000990256523682846334043F400732360E1
:10234000236803EA08033B4383F010032360226DF4
:10235000394B520043F802A08022236D5B0003F149
:10236000804303F5C0431A60236823F4E24323F05B
:1023700070031B041B0C2360304B1B6893F82C105C
:1023800000F072F84FF440512846FFF7FFFEA368B3
:102390002946334043F4C063A360226D284B5200AA
:1023A00013444FF480721A60A268022002EA080205
:1023B0003A4382F02002A260FFF7E8FEE36851464C
:1023C0003340E360226D1F4B520013444FF4887278
:1023D00003201A6000F048F84FF440510320FFF743
:1023E000D5FE636829461E406660226D164B52007A
:1023F00043F802906368012003EA08033B4383F03B
:1024000020036360FFF7C2FE0122104B28461B68C1
:102410001A7300F0EBFBFF220D4B1D600D4B1D608E
:102420000D4B1D600D4B1D600D4B1A70BDE8F08704
:10243000942F0020005C0040086000408C2F00209A
:1024400020600040386000401060004074050020AB
:102450004C12002050120020581200205C12002064
:1024600054120020BF8FFFFF0D4B0E4A1B6D3E29FB
:1024700003EBC0004FEA400002440AD94B09C806EA
:1024800004BF03F1FF339BB29B0243F4004313608C
:1024900070474B08C90748BF01339B02F7E700BFED
:1024A000005C00400C60004010B5064C18B90122D9
:1024B00023681A8210BD044B1B681B68984720686C
:1024C0000A30F7E7942F0020902F002010B5064C1B
:1024D00018B9012223681A8210BD044B1B689B683F
:1024E000984720680C30F7E7942F0020902F0020A9
:1024F00010B51E4B1C68002310B90223238210BDA7
:102500001B4803802178024611F07F0112D1617AC5
:102510008C0644BF02230370037848064CBF23F0A7
:10252000010343F001031370124B1B681B699847AA
:102530000F48E4E70129E2D0022915D1217901F001
:102540000F039B0003F1804303F5B84309061B68A2
:1025500005D503F03003102BE6D10123E3E703F4A4
:102560004053B3F5805FF7E71846C8E7942F002083
:102570008A2F0020902F00202DE9F843234FDFF809
:10258000A0803D682C8AD4B92E7A042E17D1204918
:102590000B78012B0ED11F4B1A681F4B92B21344BC
:1025A0005B001C6030230C70A8F800303B681E7282
:1025B000BDE8F88310230726A8F80030F6E7AB8AB9
:1025C0009C4294BF042602269C4228BF1C46AB694D
:1025D000204698478146002000F0B4FB2246014681
:1025E000484600F052FB2146002000F0C7FB2B8A32
:1025F0004FF440521B1B2B826B8A1C443023A8F8DB
:102600000030064B6C821A80D0E700BF942F002068
:1026100060120020505C004002300020862F002015
:10262000882F002010B50A4B0A491B6849789A7810
:1026300091420AD3D97841B99C8834B99A72064B31
:102640001B685B689847204610BD0220FCE700BF6E
:10265000942F0020C8050020902F002038B50F4A85
:102660000F4D12682B6892699978187990472B68FA
:1026700004469A7A7AB170B95A7962B9DB7853B95B
:10268000084B1B68DB6898472B681A79DA729A78CE
:102690001A73204638BD0224FBE700BF8C2F0020B0
:1026A000942F0020902F002038B52B4B1B681878F2
:1026B00010F07F0004D15A7A22F020025A7238BDFD
:1026C000022847D15A88002AF9D15A79002AF6D12E
:1026D0001979224D21F08000840004F1804404F532
:1026E000B844226849B22D780029B4BF02F0300204
:1026F00002F4405285422DD962B39B7A53B300292C
:10270000236811DA03F03003102B07D1C4B220463E
:1027100000F004FB3021204600F0D8FA104B1B6873
:102720005B6998470020CAE703F44053B3F5805F24
:10273000F4D10C4D58B90C4B93F82C1000F02CFB35
:1027400023682B409BB283F440532360E6E700F0FC
:10275000D2FAF5E70220B2E7942F0020C805002046
:10276000902F00208FBFFFFF9805002038B51B4B2E
:102770001B4D18682D78017921F08004A30003F126
:10278000804303F5B8431A6849B20029B4BF02F088
:10279000300202F44052A5421DD94488DCB9D2B1BE
:1027A000827AC2B11A680029B5BF22F4E04222F44D
:1027B000804222F0400222F07002B5BF92B292B283
:1027C00082F0100282F480521A60064B1B689B69EB
:1027D0009847002038BD0220FCE700BF942F00205E
:1027E000C8050020902F002008B5064B1A68537AC0
:1027F00043F020035372044B1B68DB6998470020A9
:1028000008BD00BF942F0020902F002010B5054B6D
:102810001C68628A18B98B889B1A238210BD0868CD
:102820001044FBE7942F002008B50B4B002093F8D1
:102830002C1000F0B1FA094B1B68187A082806D151
:102840004FF48052064B1A801022064B1A80A0F1DA
:1028500009035842584108BD98050020942F0020D4
:10286000862F0020882F002073B5964C964E216845
:1028700032680B7A092B16D0944B92B213445B004A
:102880001B885B0003F1804303F5C0431A780A708C
:102890005978226851709988226851801989226874
:1028A00091809B89D380012223681A72DA885D782F
:1028B000002A64D11A7812F07F024DD1092D03D17C
:1028C000FFF7B0FE40BB16E0052D20D193F90220A2
:1028D000002A07DA08232268137202B0BDE87040AC
:1028E000FFF7A2BFDA78002AF4D19A88002AF1D142
:1028F0009B7A002BEED13268754B92B213440022C2
:102900005B001A603022734B1A800623E3E7032D25
:1029100014D19A78012A08D06F4B28461B685B694E
:102920009847032828D10923D5E79A88002AF3D1AC
:102930005B7A9A06F0D5FFF757FFC3E7012DEBD17D
:102940009A78012AE8D19A88002AE5D15B7A9B0619
:10295000E2D5FFF7A9FEB5E7012A04D10B2DDBD1A3
:10296000FFF77CFEAEE7022AD6D1012DF1D0032D70
:10297000D2D1FFF7FBFEA5E70028ABD1BBE7062DC0
:1029800012D11A7855065AD1DB78534A012B1268B6
:1029900002D1D369DBB952E0022B01D1136AF9E706
:1029A000032B4CD1536AF5E7002D54D159880029E7
:1029B00045D15A6822F0FF02B2F5003F3FD11A78A4
:1029C00012F07F0216D19B88002B38D1434B002593
:1029D0002268284655829361984728464FF6FF7132
:1029E00023681A8A8A4233D0022801D0002A55D19E
:1029F00008222EE0012A0AD1374A18791268926912
:102A00009047E0B923689B7A002BDFD117E0022AB8
:102A100015D11A7902F00F018B00100603F18043E3
:102A20002F4803F5B8431B6800784CBF03F0300310
:102A300003F44053884202D912F0700FE4D0264BC1
:102A400022681B6850781B6998470328C6D1236801
:102A500009221A7241E7082D04D11B785B06EED1DA
:102A6000204BB4E70A2DEAD11A7802F07F02012A3E
:102A7000E5D19A7A002AE2D059880029DFD15A6834
:102A800022F0FF02B2F5803FD9D1134A18791268BB
:102A9000926990470028D2D1134B98E793F9001020
:102AA000002936DAD9880C4C0191019824688242B9
:102AB0001CD9019A1A8294F82C209A82FFF75CFDA7
:102AC0000BE700BF942F0020505C00400430002032
:102AD00002300020882F00208C2F0020F1240008D5
:102AE000C8050020A9240008CD2400088A42E2D2AB
:102AF00094F82C00824203D20021094A1170DAE7CF
:102B000092FBF0F100FB1122002AD4D1044A0121EA
:102B1000F4E703221A724FF44052024B1A80DCE6AB
:102B200060120020862F0020F8B52A4E3468237AE0
:102B3000032B01D0052B44D1A369B3B1258AA5B1DC
:102B4000A28A954228BF154628469847238A0746F9
:102B50005B1B2382638A00202B44638200F000F910
:102B60002A460146384600F09FF8238A53B10021D7
:102B70004FF44052184B08461A8000F0FFF83022FC
:102B8000164B1A80228AA18A3368914209D80322FF
:102B90001A7233681B7A32681372BDE8F840FFF787
:102BA00043BE0AB10522F3E7062119720C4B1968DE
:102BB0000C4B89B20B445B001A603022074B1A8021
:102BC000E7E7072B03D1084B1B68DB68984708230E
:102BD000E1E700BF942F0020862F0020882F0020DF
:102BE000505C0040023000208C2F0020002210B5E5
:102BF0000C4B1C78A24204D30B4B40F080001860B1
:102C000010BD02F1805303F5B8539B00196821F4FD
:102C1000E04121F070010904090C114319600132EF
:102C2000E8E700BFC80500204C5C004010B5134C1D
:102C300023681A7A022A01D0042A09D1FFF79CFCE2
:102C400023681B7A22681372BDE81040FFF7ECBDC1
:102C5000062A10D15A78052A09D11A78520606D1C7
:102C60009878FFF7C3FF064B1B681B6A9847054B14
:102C70001B689B6898470823E4E700BF942F002057
:102C8000902F00208C2F0020704701F1005101325D
:102C900001F540515210490002B9704730F8023B2B
:102CA000013A21F8043BF7E7002310B501F1005188
:102CB000013201F54051521049009A4200D110BD35
:102CC00051F8234020F813400133F6E7800000F16B
:102CD000804000F5B8400368CA0623F4E04323F0BF
:102CE00040039BB248BF83F010038A0648BF83F0BD
:102CF000200303607047800000F1804000F5B84079
:102D000003685B0409D5036823F4E04323F07003F0
:102D10001B041B0C43F4804303607047800000F1E8
:102D2000804000F5B84003685B0609D5036823F4CA
:102D3000E04323F070031B041B0C43F040030360CB
:102D400070470000054B1B689BB203EBC00000F10D
:102D5000005000F54050400000887047505C004033
:102D6000044B1B689BB203EBC000034B03445B00A6
:102D700018887047505C004004300020044B1B68EA
:102D80009BB203EBC000034B03445B001960704728
:102D9000505C0040023000200D4B0E4A1B683E295B
:102DA0009BB203EBC00002444FEA42020AD94B092E
:102DB000C80604BF03F1FF339BB29B0243F40043F8
:102DC000136070474B08C90748BF01339B02F7E700
:102DD000505C00400630002013B504468DF8071003
:102DE00001220DF107012046FEF755FF0028F7D01C
:102DF00002B010BD38B505464C1E14F9011F01B9CB
:102E000038BDC9B22846FFF7E7FFF6E708B5134B10
:102E100003221C6801212046FEF7ECF80023012163
:102E20001A46B2F5007F0CD072B1B3F5007F01D124
:102E300000230A449A420CD9022520680561013317
:102E4000EFE74FF0FF31F0E7B3F5007F4FF00101FE
:102E5000EED020684FF40035F0E700BF88EC0208A0
:102E600008B5034B0BB100F025F862B6FFF7CEFFB3
:102E7000B52E000808B5044B23B100F03BF8034918
:102E8000FFF7B8FFFFF7ECFFF52E000873ED02081F
:102E9000FDF70CBA08B501F0A3FC01F099FDFCE7C1
:102EA00023F0FCBC002203685B0103F18443C3F8F8
:102EB000002170474FF0FF3310B50A4C0A48C4F8A0
:102EC0008030C4F88430FEF787FB0848FDF76EFEBB
:102ED0000748FEF79FFF4FF4002323604FF4801351
:102EE000236010BD00E100E039160008A52E00089F
:102EF000611C000810B5094B094C18680B2202210F
:102F0000FEF778F82068FEF77BFE20684FF4165233
:102F10000021FEF762FF206810BD00BF84EC0208AC
:102F200088020020322838B53BD8082939D8DFE894
:102F300001F00529171A1D2017232600002403225B
:102F4000184B00011D18297B1858FEF753F86868C4
:102F500038B3697BCCB1BDE838400122FEF72EBC06
:102F600000240422ECE700242246E9E70024092299
:102F7000E6E700240822E3E701240B22E0E701242E
:102F80000F22DDE700240722DAE702684B1E02F178
:102F9000404220329B0003EBC2039B0003F18443B9
:102FA0001C6038BD18E9020808B5124B1A88124B8C
:102FB00019680A441A60114B92B21978104B1868BC
:102FC000FDF776FB0F4A1388013B9BB213806BB968
:102FD0000D490B7883F001030B700C49096833B17C
:102FE0000B4B1B680B600B4B1B88138008BD0A4BF7
:102FF000F7E700BFA0120020901200200C0600206E
:10300000A41200208A12002014060020841200203E
:103010009C1200208C1200209812002010B51C4B2E
:103020001C4C1A881C4B206819680A441A601B4BF8
:1030300092B21978FDF73CFB194A1388013B9BB209
:1030400013801BBB174BB3F90030002B0ADD164968
:103050000B7883F001030B7014490968A3B1144B7A
:103060001B680B60134B1B881380134A1368013BCA
:1030700013605BB92068FDF7D5FABDE810400F4B2F
:1030800002211878FFF74EBF0D4BE9E710BD00BFD6
:10309000A0120020A4120020901200200C06002094
:1030A0008A1200200E060020140600208412002040
:1030B0009C1200208C120020941200201206002086
:1030C000981200202DE9F74F0C46504D504900B2A0
:1030D000288001EB00104F4B477B89461B784E4EF2
:1030E0004E49002F77D0002B76D1377043681B797B
:1030F000193B0B700B784A49013B51F82300494BAF
:10310000DFF84CB11C800023DFF848A1DFF84881CC
:103110000192CBF80000CAF80030C8F800305F46D2
:10312000FDF780FA002C64D03F4B4048B3FBF4F32A
:10313000190C0131B3FBF1F301803D48019A018084
:103140003C4803808346002A50D04FF47A715200E5
:103150005443B4FBF1F4CAF8004028780721FFF784
:10316000E1FE28780021FFF7DDFEB5F90030324995
:103170001B0109EB030259F8033038681B68103350
:103180000B600123127B317893402C4A13602C4A48
:103190001B041360BBF800300222C8F80030FDF7B2
:1031A00083FAB8F8002031783868FDF781FADAF848
:1031B0000010244B244A3868002918BF1A46317879
:1031C000FDF785FA3868FDF78AFA386803B0BDE87C
:1031D000F04FFDF72FBA3BB11C480078002B08BF19
:1031E00008230870337085E70820F7E7CAF8002045
:1031F000B3E73178DBF80000FDF76DFA022128789B
:1032000003B0BDE8F04FFFF78DBE00BF12060020EF
:1032100018E90208881200200C0600201006002081
:10322000EC0500200E06002080A812018A12002062
:103230008C120020A0120020841200209C1200207A
:10324000981200201D300008A92F000889120020C4
:10325000A4120020941200209012002008B5012131
:103260001048FDF7C9F902210F48FDF7C5F9032100
:103270000E48FDF7C1F904210D48FDF7BDF9052100
:103280000C48FDF7B9F906210B48FDF7B5F9072100
:103290000A48FDF7B1F9BDE8084008210848FDF7E4
:1032A000ABB900BF64120020681200206C1200202D
:1032B0007012002074120020781200207C1200206E
:1032C00080120020322810B50ED8084B00011C18BF
:1032D0001B58B1FA81F11A680123207B4909834008
:1032E000090103FA01F1116110BD00BF18E90208DC
:1032F0000A4A0B4B11689B6800BF00BF12688A42E4
:10330000F6D14820C3F58C3303F5A073B3FBF0F37B
:103310004FF47A7000FB0230704700BF802F00200E
:1033200010E000E038B50446FFF7E2FF05465CB167
:10333000FDF7A4FBFFF7DCFF401BB0F57A7FF6D367
:10334000013C05F57A75F5D138BD28B10C2343430E
:10335000013B18460138FDD8704700000449054B71
:10336000CA6822F4E0621204120C1343CB60704767
:1033700000ED00E00003FA05704770470120704738
:1033800013B5104C204617F0E2FC2046042117F03C
:1033900078FC204602220C4917F076FC002302221A
:1033A0000A4900932046A02317F0D4FC204617F0CA
:1033B000C7FC204617F0B6FC204602B0BDE810401E
:1033C00017F0B7BCB012002098ED0208AA12002036
:1033D00024280AD0252807D10123054A32F81330C2
:1033E000044AC3F38903138070470023F5E700BF45
:1033F000AA120020A8120020FDF780BF024B03484C
:10340000196817F03CBC00BF1C000020B01200205F
:1034100010B5074C032294F84C10206CFDF7EAFD20
:10342000236C94F84C101A6801238B40136110BD73
:1034300018E90208062838B58CBF00250A4B0B4C4A
:1034400098BF1D5C2046E46600F051FA29462046EC
:1034500000F05FFA2046012100F068FA2046BDE83E
:103460003840002100F06FBA9AED020838130020AE
:10347000FF21014800F07CBA381300200B460246B9
:103480000021014800F02CBB381300200146014800
:1034900000F0AEBB3813002070B50D46064C014657
:1034A000204600F0A5FB29462046BDE870400123D8
:1034B0004FF4007200F090BB38130020034682885E
:1034C000016892B2885C99881A89C0B292B28A4225
:1034D0000FBF00229A88013292B29A80704738B5A5
:1034E000C38882880133934204460D4607D0C288C0
:1034F00003899BB2934214D183889BB28BB9204637
:10350000FFF7DCFFE38822689BB2D554E288238969
:103510009BB293420FBF0023E38801339BB2E38049
:1035200038BD4FF0FF30EDE770B5164B1A68164BFB
:1035300095681C68DE68194616F0200F19D0A006A1
:1035400017D5A1070FD05B6832060BD5230609D526
:10355000AA88EB880C4C9BB293420ED02846FFF70A
:10356000ADFF606070BD59685068C9B2FFF7B7FF22
:10357000EAE7200748BF4B68E6E7E36823F08003EB
:10358000E360EFE7840200200038014070B5164B7D
:103590001A68164B95681C68DE68194616F0200FED
:1035A00019D0A00617D5A1070FD05B6832060BD53E
:1035B000230609D5AA88EB880C4C9BB293420ED007
:1035C0002846FFF77BFF606070BD59685068C9B23C
:1035D000FFF785FFEAE7200748BF4B68E6E7E368A7
:1035E00023F08003E360EFE78802002000440040FE
:1035F00070B5164B1A68164B95681C68DE6819463C
:1036000016F0200F19D0A00617D5A1070FD05B68C0
:1036100032060BD5230609D5AA88EB880C4C9BB241
:1036200093420ED02846FFF749FF606070BD59688D
:103630005068C9B2FFF753FFEAE7200748BF4B685D
:10364000E6E7E36823F08003E360EFE78C02002005
:103650000048004038B51749174D184C0A23092275
:1036600009682846FCF776FF2C601549154D0323A1
:10367000022209682846FCF76DFF2C601249134DA1
:103680001B231A2209682846FCF764FF2C601049A6
:10369000104D2B232A2209682846FCF75BFF2C607B
:1036A0000D490E4D32232C2209682846FCF752FFA3
:1036B0002C6038BD84020020C0120020ACED02084E
:1036C00088020020D81200208C020020F012002076
:1036D0007C0200200813002080020020201300201C
:1036E00001398B00012102689940516070470368DD
:1036F0009A689107FCD59A681206FCD47047436813
:1037000023B1417B00221846FEF758B870470000ED
:10371000172806D0182806D01628044818BF0020FD
:103720007047034870470348704700BF8C33030855
:1037300090330308943303082DE9F04F814687B096
:1037400000798A46FFF7E4FF60B30578174C4678A6
:103750002D012B198778360190F8038006EB040BB6
:103760001846059304EB0717FFF7C9FF5846FFF704
:10377000C6FF04EB08183846FFF7C1FF4046FFF7C5
:10378000BEFF98F80C20059B51461B7B03923A7BA9
:10379000484602929BF80C200192325900922A5915
:1037A000FDF7B0FE07B0BDE8F08F00BF18E90208D2
:1037B00010B50C46FDF7B0FD90B10228094B88BF4B
:1037C000002300225B089C42D0B205D20132072AB6
:1037D0004FEA5303F7D11046034B0344187B10BD47
:1037E000024BEEE700A24A048C3303080051250285
:1037F0002DE9F041034604466C302C4D00221D603B
:1038000001255A731D735A60C3E907222433984275
:10381000F3D124224B1E02FB03430229E366DFF8A7
:10382000AC80234E39D003293CD0A94201D1214B91
:103830001C60214B214F1B68216823611879FFF719
:10384000B7FF3B680225A36103236375D8F80030F6
:10385000A06063632575616A1879FFF7A9FF3B686B
:10386000E062E363052384F83930042384F83830B8
:103870003368A16CA3651879FFF79AFF104B0022FB
:103880001B6820652366012384F85C30E36E84F8AE
:103890005D50DA732046BDE8F081D8F800306363EC
:1038A000084BC5E73368A365074BC1E700093D0036
:1038B00068010020A81300206001002060000020A3
:1038C00064000020AC130020B0130020640100202D
:1038D000C06E037B4268012B0CBF0023802342F49F
:1038E00040721343017A427B0069FDF7EBBD10B5CE
:1038F0000446C36E1869FDF7BAFDE36E012118692D
:10390000FFF71AFF2046FFF7E3FF0122E36EDA73A9
:1039100010BDC36E9960C36E01F038011B691A684F
:10392000136823F03803194311607047C36E19738D
:10393000C36E1B691A68136823F0800309B943F04A
:10394000800313607047C36E5973C36E01F00301A7
:103950001B691A68136823F0030319431160704749
:10396000C36E1B691B68D960C36E1869FFF7BFBEC1
:1039700010B5C36E1C6923682046DA68D960FFF76A
:10398000B6FE2368D868C0B210BD0000F0B5054689
:10399000C36E85B0986917460E46FDF736F9E86E96
:1039A0004468017DA4F500635C425C4103691A68C8
:1039B0008223CDE90143009723460C328069FDF74D
:1039C00067F9E86E0369417D1A68C6B91023CDE92D
:1039D00001430D4B009323460C328069FDF758F9E3
:1039E000EB6E0022597D9869FDF712F90322EB6E08
:1039F000197D986905B0BDE8F040FDF709B990233D
:103A00000096CDE90143E6E7C8ED020870B504462B
:103A10000D4611B90025284670BDC36E1A6912689B
:103A20009168CE0748BFD2680422DA73C36E2A4673
:103A3000197D9869FDF7F8F8E36E2A46597D986973
:103A4000FDF7F2F8E36E197D9869FDF709F9E36E69
:103A5000597D9869FDF704F9E36E1869FDF744FD97
:103A6000E36E1869FDF734FDE26ED369002BD1D106
:103A700093691A491E68537D0D68013B9B00DBB2B8
:103A80003068D840800727D40868401B6428F7D9DD
:103A900002251069FFF72BFEE36E1869FDF71EFD86
:103AA000E36E1869FDF726FDE36E597D9869FDF711
:103AB000E3F8E36E197D9869FDF7DEF8E36E197D92
:103AC0009869FFF70DFEE36E597D9869FFF708FED0
:103AD0000122E36EDA739EE70025DAE7802F0020EB
:103AE00038B504461D46FFF751FF29462046BDE87C
:103AF0003840FFF78BBF7FB5054614460E46C36EB0
:103B0000E4019869FDF781F8E86E44F01204436817
:103B1000417DA3F500625342534102691268CDE929
:103B2000013400960C328069FDF7B2F80022EB6E8A
:103B3000597D986904B0BDE87040FDF769B8000090
:103B400070B504460D4611B90025284670BDC36EF8
:103B5000597D9869FFF7C4FDE36E2A46597D98693F
:103B6000FDF762F80322E36EDA73E36E597D98691C
:103B7000FDF776F8E36E1869FDF7AAFCE26E136AAA
:103B8000002BE1D1936913491E68537D0D68013BF9
:103B90009B00DBB23068D840800719D40868401B0E
:103BA0006428F7D902251069FFF7A1FDE36E1869B3
:103BB000FDF794FCE36E597D9869FDF75DF8E36EBF
:103BC000597D9869FFF78CFD0122E36EDA73BCE73B
:103BD0000025E8E7802F002038B5044615461A4630
:103BE000FFF789FF29462046BDE83840FFF7A8BF08
:103BF00008B5FFF7B5FE012008BD0000012101480E
:103C0000FFF7F6BD38130020012342798B4010B531
:103C1000DB439AB1012A41F65F6218BF01220468B2
:103C200013402361036803F140430C3301EBC301EC
:103C30000123890001F184410B6010BD41F6FF6250
:103C4000EDE7002203685B0103F184431A607047CB
:103C5000012203685B0103F18443C3F880227047AB
:103C600070B5224D224C2B78BFF35B8F13F0010F00
:103C70000AD1284618F00EFC30B1012000F0C6FB36
:103C80002060284618F022FC23681B681E69B207D2
:103C900014D5184D0322297B2868FDF7ABF92B6852
:103CA000297B1A684FF480338B401361002223680C
:103CB0001B685B0103F18443C3F80422730713D527
:103CC0000C4D0322297B2868FDF794F92B68297B8A
:103CD0001A6801238B401361002223681B685B0173
:103CE00003F18443C3F8082270BD00BFB81300205D
:103CF000BC13002018E902084FF0FF3310B5084A42
:103D0000436013780446022B9ABF591C1170FF239D
:103D100001210370084600F0DBFA204610BD00BF09
:103D2000B413002038B542680546531C28D00378E8
:103D30000BB9006938BD846844F62060114B03EB71
:103D400002135A685B7B126803F180433432013BF3
:103D500052F823104FF6AF7289B20023A1FB000185
:103D600018F0E0F8E968A0F50870091B4FF4E86264
:103D7000002380FB010118F0D5F8204400B2D9E7F8
:103D80000020D7E718E90208F8B501200D4600F039
:103D90003DFB044600283ED01F4E2D017719397B8C
:103DA00070590322FDF726F9735901251A683B7BE8
:103DB000204605FA03F31B041361FFF742FF0222BA
:103DC0002946FDF7FBFC226829469369204623F02B
:103DD000FF0393612268936923F47F439361152263
:103DE00023689A624FF6AF732268D36222685363E6
:103DF00022689363094AFDF743FC084A02212046E2
:103E0000FDF73EFC2046FFF723FF284623685B01B1
:103E100003F184431D60F8BD18E90208613C000805
:103E200070B5054601200E4600F0F0FA03685E63A7
:103E3000FFF70EFF3EB10121FFF7E6FEBDE870403F
:103E40000221FFF7E1BE03680F4C5B0103F18443DD
:103E5000C3F88461036803225B0103F18443C3F860
:103E600088616B681B01E118097BE058FDF7C2F817
:103E70006B681B01E118E358097B1A684FF4803323
:103E80008B40136170BD00BF18E90208037813B9B5
:103E90001146FFF7C5BF074B03EB0113596839B152
:103EA0005B7B086803F180433430013B40F82320FA
:103EB000704700BF18E90208F8B505780446022DDE
:103EC0000E4601D90020F8BD3229FBDCC0E90223EF
:103ED0004FF0FF33036125B9FFF756FF08B1666065
:103EE000F1E7114B03EB06135D68002DEAD0F7B242
:103EF00007213846FFF716F8002239462046FFF71B
:103F0000C5FF2846FFF79DFE15222B689A624FF6E3
:103F1000AF722B68DA62FFF79BFE01202B685B0112
:103F200003F184431860DAE718E9020808B541682C
:103F30004A1C08D04FF0FF32C9B202610022FFF7DD
:103F4000A5FF012008BD0020FCE738B54568044600
:103F50006B1C28D0D0E902328B4222DC9142A8BFF0
:103F600011464FF4E8602161D21AC91A81FB0001A1
:103F7000D31717F0D7FF4FF6AF7100F5087080B276
:103F8000002344F62062A0FB010117F0CBFFE9B249
:103F900082B22046FFF77AFFBDE83840322000F0B9
:103FA000EBBD1946DDE738BD0821F0B5324B1E7870
:103FB000C709324B76BBD3F8D021002F15684FF0DC
:103FC00001020CBF1027002793F8DC4102FA04F429
:103FD00024042C6193F8FC51D3F8F04102FA05F562
:103FE0002468BD402561D3F8F041256893F8FC4171
:103FF00002FA04F4BC402C61D3F8D04193F8DC31D0
:1040000024689A4022614B1E400013F0FF01C0B2A9
:10401000CED1F0BD0022D3F8D04193F8DCC12568A1
:104020004FF48034013204FA0CF42C61D4B2A6426D
:10403000F1D2002F14BF002710270024E2B29642CD
:104040000BD9D3F8F02193F8FCC11568012202FACC
:104050000CF2BA402A610134F0E70022D4B2A64241
:10406000D1D9D3F8D04193F8DC7125680124BC4044
:104070002C610132F2E700BFC013002018E90208EA
:10408000013938B514461D46062950D8DFE801F03D
:104090000C81514F740478002C44A54247D015F888
:1040A000010BFFF781FFF8E70125424C032294F84A
:1040B000EC11D4F8E001FCF79DFFD4F8E0311A6868
:1040C00094F8EC3105FA03F31B04136194F8DC1146
:1040D0000322D4F8D001FCF78DFFD4F8D0311A6850
:1040E00094F8DC3105FA03F31B04136194F8FC1116
:1040F0000322D4F8F001FCF77DFFD4F8F0311A6800
:1041000094F8FC3105FA03F31B04136194F8CC1105
:104110000322D4F8C001FCF76DFF94F8CC21D4F849
:10412000C031954000221B681D61234B1A7001208D
:1041300038BD204B8AB1D3F8D02193F8DC11106838
:10414000012202FA01F10161D3F8C01193F8CC31D8
:1041500009689A4012040A61E9E7D3F8C02193F88C
:10416000CC111068012202FA01F10161D3F8D011DB
:1041700093F8DC310968ECE71046FFF715FFD6E746
:10418000002CD4D015F8010B013CFFF70DFFE4B271
:10419000F6E70123074A002C92F8EC11D2F8E0214F
:1041A00003FA01F314BF0021102112688B40136140
:1041B000BDE700BF18E90208C0130020084B1868CB
:1041C00003F178420749A2F57C328850064A04334D
:1041D0009342F4D10022054B01201A70704700BFB2
:1041E00000F00308C413002000F80308C41B0020DB
:1041F00070B5164D2C783CB316F062FE144816F0DC
:1042000017FE052805D016F067FE00232B70204608
:1042100070BD104816F00CFE0528F4D10C4E0E4A65
:1042200006F17843A3F57C33D15A304616F022FECE
:10423000052804D0002416F04FFE2C70E7E7054B4C
:1042400002369E42EBD1DEE70124E0E7C41B0020EA
:1042500000F0030800F80308C4130020F8B5054671
:104260000024944206D0094E0F5D28682644375436
:104270000134F6E70120064A1070A2B218460CF08D
:10428000A9FD2B6800201C442C60F8BDC41300203D
:10429000C41B002070B515469DF8102004465AB97D
:1042A00002680A491144AAB218460CF093FD22682C
:1042B00000202A44226070BD0022AA42F3D0034E9F
:1042C00020681644305C88540132F6E7C41300209D
:1042D0000138072813D8DFE800F01004080A0C1290
:1042E000120E1C20C9B2FCF7DFBF1D20FAE71E200A
:1042F000F8E73220F6E72E20F4E71B20F2E77047BC
:10430000022870B502460D4639D0052836D1002660
:104310002C4C0222236801215B0103F184431E60BF
:104320002046FDF74BFA28494FF6FF70B1FBF5F137
:104330001122814228BF014623685E629A62D862D8
:104340009A69204622F0FF029A6159635B0103F1EA
:1043500084430121DE611D4AFDF792F902213220DA
:10436000FCF7A2FF012223685B0103F18443C3F839
:10437000802223685B0103F184431A6070BD00262C
:10438000134C0121236820465B0103F184431E6026
:10439000FDF714FA40F2E73223680E495E62B1FB82
:1043A000F5F19A624FF6FF72914228BF1146DA6228
:1043B00020465963084A0121FDF762F903211C20B8
:1043C000CEE700BF1802002000093D00155E01087D
:1043D000AC010020401901008D70010802280CD0AA
:1043E00005280CD1074B1B685B0103F18443D3F80C
:1043F0008401003018BF01207047034BF3E7002011
:10440000704700BF18020020AC01002001380728C7
:104410009ABF024B53F8200000207047CCED0208F1
:10442000FCF73ABF40F271210620FCF725BF704728
:104430000368C9B21B68184708B50EF081FC0EF07E
:10444000E3FCFE200DF026FDBDE808400DF000BDA8
:10445000054BD3F8D02293F8DC124FF48033126866
:104460008B401361704700BF18E902080E4AD2F86A
:10447000803092F88C101868012303FA01F10904C6
:104480000161D2F81011086892F81C1103FA01F1C9
:1044900009040161D2F8201292F82C220968934095
:1044A0001B040B61FFF7D4BF18E90208044BD3F8D3
:1044B000D02293F8DC12012312688B4013617047FD
:1044C00018E90208012130B4124BD3F8802010689B
:1044D00093F88C2001FA02F202610F48027822F070
:1044E00001040470D3F81041256893F81C4101FAC7
:1044F00004F42C6122F003040470D3F8204293F8F2
:104500002C322468994022F007022161027030BCED
:10451000FFF7CCBF18E9020853210020044B93F9A0
:10452000000001281EBF034B1878C0F380007047BD
:10453000442100201C2E0020094B93F90030022B4F
:104540000CD0084B1B78C3F3C00040B1064AD078AA
:1045500028B1C3F3800080F001007047012070474C
:10456000442100201C2E0020FC2D00200DF050BA0C
:1045700010B540F2E9330446013B08D000BF00BF4C
:1045800000BF42F62F22013A00BFFCD1F4E772B619
:1045900040F2E933013B08D000BF00BF00BF41F249
:1045A0009312013A00BFFCD1F4E712F015FA24B1DE
:1045B000FFF788FFFFF734FFFCE7FFF777FFF9E726
:1045C0000D460446164608B512F006FA00F052FAF7
:1045D000074800F03DFA07490748002D18BF294653
:1045E000002C18BF20460CF03DFA3046FFF7C0FF04
:1045F0006CEE02080DEE0208E0EF020870B5384BD1
:1046000005461B78032B01D803F078FF35490C6869
:104610000DB1354B1C60354B1B68ABB1324A12688B
:104620001344E31A002B0FDB00F024FA304B31481F
:10463000196800F025FA0A212F48FFF7F9FE002239
:1046400011461046FFF7BCFF2C4B1B683BB12C4AB0
:1046500010782C4A127890420BD0234B1C602A4DC4
:104660002B68E31A002B03DB64340EF00DFB2C6087
:1046700070BD264A35B91C48096800680344CB1A46
:10468000002B02DA00231370E9E71378002BE6D140
:10469000012313701E4AD2F88010086892F88C101B
:1046A00003FA01F101611B48017821F00105057051
:1046B000D2F810512E6892F81C5103FA05F53561B5
:1046C00021F003050570D2F8205292F82C222D68B3
:1046D000934021F007012B610170FFF7E7FEBEE771
:1046E000EC1D0020802F0020DC1B0020E41B00209C
:1046F000F01B00202FEE0208C01200201806002038
:10470000092700200A270020C81B0020CC1B0020FE
:1047100018E902085321002008B50020FFF76EFFBA
:1047200012F02AFA0A4B1B7883B1FEF725FE15F02A
:1047300057F802F073F90CF0D5FA0BF083FF054B34
:104740001B781BB9BDE8084012F04ABF08BD00BF86
:10475000CF1B0020E01B00200322F8B50D4C0E4DAE
:1047600094F900702270012206462A7010B10B4B9A
:104770001B681E442B7843B126B1084B1B689B1B5A
:10478000002B02DAFFF7C8FFF4E7002327702B7035
:10479000F8BD00BFD71B0020D01B0020802F0020B9
:1047A00010B50C4C12F018F90DF0DAF82378012B43
:1047B0000ED100F05FF9084800F04AF900210748DF
:1047C0000CF064F94FF4AF7000F0D6F908232370B1
:1047D00010BD00BFCF1B002098EE0208F0EF0208CA
:1047E00037B5654A654C1368204623F0E06343F013
:1047F000007313604FF4E1310022FBF7BBFE236925
:10480000012193F99100FCF74FFD5D4B1B6800F00F
:104810002BF95C4800F01CF9FEF7A0FD11F0ECFB51
:10482000FFF705FEFEF7AAFDC507044602D5564868
:1048300000F00EF9A00702D5544800F009F961070D
:1048400002D5534800F004F9220702D5514800F080
:10485000FFF8A30602D5504800F0FAF8FEF78DFDE8
:104860004E4800F0F5F820214448FFF7E1FD4C48A0
:1048700000F0EEF80A214148FFF7DAFD00F0F4F805
:10488000484800F0E5F800F0EFF8474800F0E0F89D
:1048900000F0EAF80020FBF7BDFD01250DF107014E
:1048A000091A4248424C00F0F7F84FF4A861414819
:1048B00000F0F2F80A213148FFF7BAFD94F89C1293
:1048C000D4F890020322FCF795FBD4F890321A68D2
:1048D00094F89C3205FA03F31B041361D4F8903268
:1048E0001A6894F89C32002405FA03F31B04136140
:1048F000314B5C600BF082FE05F002FA20462F4C33
:104900000CF0FAF823781BB910F0F8FD00B125700F
:104910002B4C2C4D2168286816F0DAFF696820605E
:10492000606816F0D5FFA9686060A06816F0D0FF37
:10493000A0600DF08DFA244811F06AFF0DF038F8F0
:104940000DF0B8F810F070FF0FF096FB0FF0B2FA10
:1049500000200DF0D1F8012000F01EFAFFF762FDF3
:1049600001231A461946184600F034FA0122174B63
:104970001A7003B030BD00BF04000140C012002017
:10498000802F0020F91503080FEF020818EF020826
:1049900029EF02083BEF02084CEF0208E9EF02089A
:1049A0005DEF020866EF0208A3EF0208BAEF020803
:1049B00018E90208C9EF020814210020CD1B0020CD
:1049C0004806002070210020ED290020CF1B002088
:1049D00010B5FFF7A1FE14F0A9FE144B1B785B067F
:1049E00013D514F07FFA03F04FFAFFF725FD0CF012
:1049F000B7FF11F0F1FF0021084611F053FD00222E
:104A00000B4B1A700B4B0C4A1A600C4C2378102B72
:104A100005D10B4803F004FB08B10123237003F018
:104A2000F9FBBDE810400DF067B900BF1C2E002057
:104A300015060020E41D00208CEE0208CF1B00208C
:104A400092EE0208014814F087B800BFCE1B002088
:104A500010B5044614F9011B19B10248FFF7E8FC30
:104A6000F8E710BDC01200200148FFF7F1BF00BFFA
:104A700001F002080148FFF7EBBF00BFFAEF0208A0
:104A800010B50C46FFF7E4FF2146BDE81040014891
:104A9000FBF786BEC012002010B50C46FFF7D8FF0A
:104AA0002146BDE810400A220148FBF7DFBE00BFE7
:104AB000C012002010B50C46FFF7CAFF2146BDE822
:104AC00010400A220148FBF7E4BE00BFC0120020DC
:104AD00013B50C46FFF7BCFF204616F069FB022316
:104AE0000246009302480B46FBF7AEFF02B010BD32
:104AF000C012002010B50C46FFF7AAFF2146BDE802
:104B000010400A220148FBF7DBBE00BFC0120020A4
:104B1000034A044B002814BF10461846FFF798BFFD
:104B2000C7F40208B7F30208F8B5069C07460E461C
:104B3000154613B11846FFF78BFF39680A48FFF78F
:104B4000C7FF31680948FFF7C3FF29680848FFF726
:104B5000BFFF24B12046BDE8F840FFF779BF0A2126
:104B60000448FFF765FCF8BD1BEE020822EE0208C0
:104B700029EE0208C012002010B50446322C06D9D6
:104B80003220323CFEF7CEFB11F0F6FFF6E720466E
:104B9000FEF7C8FBBDE8104011F0EEBF38B5094C78
:104BA00025882DB2002D0CD0CCBF0121002111F0A1
:104BB00087F92388002DCCBF03F1FF3301331BB2EB
:104BC000238038BDD41B0020012303FA00F010B568
:104BD000C0B20C460DF034FB48B9054AA1B21388A7
:104BE0000B441380034B1A88114409B2198010BD7D
:104BF000D21B0020D41B00200A4610B5074B0446E8
:104C000003EB80035969106816F06AFF17F044F946
:104C100001B22046BDE81040FFF7D6BF4427002070
:104C2000064BD3F8F02093F8FC10012312688B4058
:104C30009268134214BF01200020704718E902084F
:104C400010B50C4601460748FFF77FF92068B0F51C
:104C5000FA7F38BF4FF4FA70FFF78EFFBDE81040BF
:104C6000FFF7DEBFB02700204FF4FA7337B540F2EC
:104C7000EE2502AC44F8043D2146A020FFF7E0FFFA
:104C800021465A200195FFF7DBFF21460A200195B6
:104C9000FFF7D6FF21465A200195FFF7D1FF03B059
:104CA00030BD000037B540F2EE2502AC44F8045D9B
:104CB00021460A20FFF7C4FF18B90024204603B09C
:104CC00030BDFFF7D1FF21460A200195FFF7B8FF5D
:104CD00004460028F1D0FFF7CDFE0348FFF7B8FEE9
:104CE000FFF75EFDEAE700BF07F0020837B540F2C4
:104CF000EE2502AC44F8045D21465A20FFF7A0FFE0
:104D000018B90024204603B030BD4FF4FA73214691
:104D1000A0200193FFF794FF21465A200195FFF749
:104D20008FFF04460028ECD0FFF7A4FE0248FFF7EF
:104D30008FFEFFF735FDE5E707F0020840F2EE23AE
:104D400073B502AC44F8043D214606460A20FFF73D
:104D500077FF96202146019006B18C209625FFF71B
:104D60006FFF214682200195FFF76AFF01952146DA
:104D70006EB18C20FFF764FF40F2EE2321465A20EB
:104D80000193FFF75DFF034B1E7002B070BD284614
:104D9000F0E700BFD61B00204FF4FA7337B502AC22
:104DA00044F8043D21460546A020FFF749FF40F2A4
:104DB000EE2321465A200193FFF742FF044B1B7854
:104DC0001BB915B10120FFF7B9FF03B030BD00BF1B
:104DD000D61B0020F8B50D4617461E46002800F0E9
:104DE0009E805648FFF734FE58215548FFF720FBB8
:104DF0005448FFF72DFE544815F055F90446002895
:104E000000F08B805148FFF723FE012C00F08380D7
:104E10004F48504B022C18BF1846FFF719FE0A21C5
:104E20004748FFF705FB003418BF01241DB3434872
:104E3000FFF70EFE59214248FFF7FAFA4148FFF703
:104E400007FE454815F02FF9054600286BD03F486E
:104E5000FFF7FEFD012D64D03D483E4B022D18BFEB
:104E60001846FFF7F5FD002D18BF01340A2134481C
:104E7000FFF7DEFAE4B21FB33048FFF7E9FD5A212D
:104E80002F48FFF7D5FA2F48FFF7E2FD334815F01A
:104E90000AF9054600284AD02C48FFF7D9FD012D14
:104EA00043D02B482B4B022D18BF1846FFF7D0FDDF
:104EB000002D18BF01340A212148FFF7B9FAE4B2E6
:104EC00016B31E48FFF7C4FD45211D48FFF7B0FA91
:104ED0001C48FFF7BDFD224815F0E5F8054650B324
:104EE0001A48FFF7B5FD012D23D01948194B022DA3
:104EF00018BF1846FFF7ACFD002D18BF01340A217A
:104F00000F48FFF795FAE4B2BCB1BDE8F8400021C4
:104F100014480BF0BBBD14487FE70E487DE70446FC
:104F200084E711489DE70B489BE70F48BEE7094817
:104F3000BCE70D48DEE70748DCE7F8BD50F00208A3
:104F4000C012002059F002088828002069F00208E9
:104F50004CF0020844F00208D42800202029002048
:104F60003C28002075F0020847F002084138C3B21F
:104F7000192B2FD8184A1068D84010F001002AD0F9
:104F8000164A1748D25C1AB3164B19688B188A5602
:104F9000A2F13001C9B2092906D92E2A07D15A78BF
:104FA000303A092A88BF00230360012070472D2A68
:104FB00001D02B2A0AD193F90110A1F13002D2B20B
:104FC000092AF1D92E2901D19A78E9E70023EBE7E4
:104FD0000260EAE700207047141C0020F61B002046
:104FE000181C0020F01B002008B5FFF7BFFF20B100
:104FF000024B1868003018BF012008BD181C0020A3
:10500000034B186818B10A22002124F05FB87047DA
:10501000181C00202DE9FF4103200DF02DF9002878
:105020003FD10CF015FF254B254CD3F80880254BBC
:10503000254D1F6825606560C4F8088039682846DA
:1050400016F044FC796820600646284616F03EFCBF
:10505000B96805466060404616F038FC1B49A06000
:10506000284616F0EFFEF8B11949284616F0E0FE82
:10507000D0B11649304616F0E5FEA8B114493046C5
:1050800016F0D6FE80B194E803000023019302AB32
:1050900083E80300184601A90CF086FF02200DF0FA
:1050A000DBF904B0BDE8F08100210A480BF0EEFC0A
:1050B000FFF7DAFC0848FFF7CBFCF2E748060020D0
:1050C000602100201C0F03080000DC4217B7D1B894
:1050D00007005C439CF002088AF002082DE9F341C6
:1050E000564B1B7803F00703072B17D14F20FFF710
:1050F0007BFF002800F08680514B1B68002B00F0DE
:105100008680FFF77DFF002808DBFFF779FFFF2887
:105110007DDCFFF775FF10F0FF0F78D10DF074FE06
:105120000022484B5A70484B1A68484B1A600CF0E2
:1051300091FF01200CF0DAFC5A20FFF717FF05461B
:10514000002867D001200DF07BF8064602200DF004
:1051500077F8041C18BF0124002E6BD15820FFF7EC
:1051600005FF002866D1002C56D15920FFF7FEFE1E
:10517000A042064602D1A54251D026465220FFF752
:1051800033FF002852D02E4B1868002850D002461A
:10519000904612F9017B37F0200144D0452F01D011
:1051A000652FF5D1002188F80010186823F0AEFEB5
:1051B00088F800700021019016F026FE40B90CB965
:1051C00006B99DB101220023114601A80CF006FF8B
:1051D00014B100200DF040F916B101200DF03CF99A
:1051E00025B10020FFF7D8FDFFF714FF0CF030FECB
:1051F0000CF02EFC0CF038FF0322154B1A700CF04B
:105200000FFE04E04F20FFF7B1FE002886D002B069
:10521000BDE8F0810446A1E726460446AEE7012436
:1052200026462546AAE723F071FEC3E70948C1E7F1
:105230000020BFE7002C9ED1012496E752210020D8
:10524000181C002060060020802F0020DC1B00209E
:10525000410600200000A04038B50D4B1868A8B1E9
:105260000246154612F9014B34F020010AD0452CB4
:1052700001D0652CF5D100212970186823F046FE75
:105280002C7038BDBDE8384023F040BE0020F8E760
:10529000181C0020F8B501F04DF8071E47DB244E1E
:1052A00044203478FFF7A0FE054610B3FFF7D4FF83
:1052B0000021044616F0A8FD28B100243470BDE892
:1052C000F8400DF0FFBC1B4B002143F8274020465F
:1052D00016F0C2FD60B14FF07C51204616F000FC84
:1052E000014616F0FDFB144916F0FAFB134B18604B
:1052F0002C465320FFF778FE98B1114B1B680BB971
:105300000124DBE7FFF77CFE0028D6DBFFF778FE01
:10531000FF28F5DCFFF774FEC0B2041C18BF01249F
:10532000CCE75320FFF722FE0028C7D0E8E7F8BDFE
:10533000F51B0020F4260020DB0F49408C060020DE
:10534000181C002038B500F0F5FF00280FDB002402
:10535000074BE5B21857FFF709FE28B1FFF77CFFAE
:10536000014628460EF084FC0134042CF0D138BDEF
:10537000ADF0020838B500F0DDFF00280FDB002497
:10538000074BE5B21857FFF7F1FD28B1FFF764FFAF
:10539000014628460EF07AFC0134042CF0D138BDC9
:1053A000ADF0020810B51E4B1E4A1B681A422ED0E3
:1053B0004220FFF7DBFD40B11B4B186818B10A22F1
:1053C000002123F03FFF194B18615320FFF7CEFD5A
:1053D00018B1FFF741FF154B18645420FFF7C6FDC5
:1053E00018B1FFF739FF114B58644A20FFF7BEFD93
:1053F00068B1FFF731FF0E49044616F023FD38B1BE
:105400000C49204616F014FD10B10B4B1C6010BD6A
:10541000FFF730FBBDE810400848FFF719BB00BF9D
:10542000141C002002020C00181C0020442700203D
:105430000AD7233C9A99993E10270020C4F002080D
:1054400010B51D4B1B6813F4682F12D11B4C1C4860
:10545000616BFFF73DFBA16B1A48FFF739FBE16B6E
:105460001948FFF735FBBDE810400A211748FBF744
:1054700061B85320FFF7B8FD20B1FFF7EDFE0F4BE9
:105480005863D8635020FFF7AFFD18B1FFF7E4FE73
:105490000A4B58635220FFF7A7FD18B1FFF7DCFE57
:1054A000064B98635420FFF79FFD18B1FFF7D4FE19
:1054B000024BD86310BD00BF141C002044270020FD
:1054C000B1F00208C1F0020818EE0208C012002074
:1054D00010B5244C23685B031DD5234B23499A7CCC
:1054E000002A3BD0224B186883188256A2F1300064
:1054F000C0B2092806D92E2A1FD15A78303A092A73
:1055000088BF00230B60086828B10A22002123F01D
:10551000DDFD184B1880236813BB164B1648B3F9F2
:105520000010FFF7B9FA25211448FBF703F8BDE88E
:1055300010400A211148FAF7FDBF2D2A01D02B2A6D
:105540000AD193F90100A0F13002D2B2092AD9D9C7
:105550002E2801D19A78D1E70023D3E70A60D2E759
:1055600010BD00BF141C0020F61B0020181C0020DA
:10557000F01B00205C060020E3F00208C0120020AF
:1055800038B500F0D7FE041E5DDB2F4B2F4D1B6896
:1055900013F4802F17D02E4B2E499A7C002A3CD032
:1055A0002D4B186883188256A2F13000C0B209282A
:1055B00006D92E2A20D15A78303A092A88BF0023EA
:1055C0000B60086858BBFFF74FFA45212348FEF7E8
:1055D0002FFF04F130012148FEF72AFF35F914109E
:1055E0001F48FFF759FA25211C48FEF721FF0A2121
:1055F0001A48FEF71DFF26E02D2A01D02B2A0AD1DA
:1056000093F90100A0F13002D2B2092AD8D92E288C
:1056100001D19A78D0E70023D2E70A60D1E70A22C5
:10562000002123F053FD00B225F8140016F004FA0F
:105630000C4916F055FA0C4B53F8241016F050FA9A
:105640000A4B43F8240038BD141C002088060020B3
:10565000F61B0020181C0020F01B0020C0120020A8
:10566000E7F002080AD7233C142700209006002008
:1056700010B54520FFF77AFC002837D15020FFF7FE
:1056800075FC264C10B1FFF7E7FDE0604920FFF7FD
:105690006DFC28B1FFF7E0FD214916F021FA2061E9
:1056A0004420FFF763FC28B1FFF7D6FD1C4916F034
:1056B000CBFA6061FFF7D8F9E1681A48FFF708FAFA
:1056C0002069174916F0C0FA01461748FFF700FA9B
:1056D0006069134916F004FA01461448FFF7F8F917
:1056E000BDE810400A211248FAF724BF114B1B688D
:1056F000002BC3D0FFF784FC0028BFDBFFF780FC42
:10570000FF2804DCFFF77CFC10F0FF0FB6D0FFF79A
:10571000B1F9BDE810400848FFF79AB96C2900209C
:105720000AD7233EEFF00208F3F00208F7F0020870
:10573000C0120020181C0020FBF0020870B5532096
:10574000FFF714FC0546F0B12F4B186800283AD03B
:105750000246164612F9014B34F0200130D0452C98
:1057600001D0652CF5D100213170186823F0CEFBF3
:10577000347016F091FB254B00B21880B0FA80F01F
:10578000234B400918705020FFF7F0FB0446F0B19E
:105790001E4BB3F9003083B11B4B1B686BB1FFF795
:1057A0002FFC002811DBFFF72BFCFF2805DCFFF79F
:1057B00027FCC0B2041C18BF0124154B1C7070BD1F
:1057C00023F0A4FBD5E70020D3E70024F5E7002D64
:1057D000F5D1FFF749F90F48FFF73AF90C4B0E4A9C
:1057E00018780E4B002814BF10461846FFF730F902
:1057F000064B0B48B3F90010FFF74EF9BDE87040B7
:105800000848FFF725B900BF181C0020A206002099
:10581000AC29002011F10208580D03080DF102080F
:1058200024F1020835F1020810B5C0B1FFF71CF9E8
:105830000D4C0E486169FFF74BF9A1690C48FFF761
:1058400047F9E1690B48FFF743F9216A0A48FFF776
:105850003FF9BDE810400A210848FAF76BBE202145
:105860000648FAF767FEE3E74427002039F102080B
:1058700022EE020829EE020815EE0208C0120020EE
:105880002DE9F04100F056FD011E3EDB204B214A80
:105890001B681A4204D1BDE8F0410120FFF7C4BFE4
:1058A00000251D4B5857FFF761FB08B31B4B1B68C6
:1058B000F3B1032D1A4C22D1FFF7CEFC194906464D
:1058C00016F0ACFA98B13146206A16F0BDF90146DF
:1058D0008046206B16F004F9134F2063F86816F029
:1058E000A7F8414616F0FCF816F0FCFAF8602662BC
:1058F0000135042DD5D1BDE8F0410EF099B9FFF77F
:10590000ABFC04EB85046061F2E7BDE8F08100BF09
:10591000141C00201000800340F10208181C002015
:10592000442700200000A041242700200023024A31
:105930001370024A13707047D01B00201506002018
:10594000012200210148FEF73BBE00BFF0ED020836
:10595000FEF772BD70B55320FFF708FB204D28B14C
:105960005320FFF703FB20BB00202870FFF77CF8D3
:105970001C48FFF76DF82B786BB3002423462A7878
:10598000E240D2070CD55E1CF6B21BB12C211648A2
:10599000FAF7D0FD154B53F82400FFF759F83346BA
:1059A0000134052CEBD1BDE870400A210E48FAF70E
:1059B000C1BD0F4B1B68002BD6D0FFF721FB002881
:1059C000D2DBFFF71DFBFF2803DCFFF719FBC0B29A
:1059D000CBE7FF20C9E70748FFF73AF8E3E700BF46
:1059E000D11B002044F10208C012002078F1020807
:1059F000181C00204BF1020801200CF051B80020C7
:105A00000CF04EB808B51F4B1F491B68194031D028
:105A10005820FFF7ABFA48B11C4BD3F8802093F81D
:105A20008C104FF4803312688B4013615920FFF7BC
:105A30009DFA48B1154BD3F8102193F81C114FF47F
:105A4000803312688B4013615A20FFF78FFA48B1F8
:105A50000E4BD3F8202293F82C124FF480331268A7
:105A60008B4013614520FFF781FA50B1BDE8084033
:105A7000FEF7EEBC06480BF009F8BDE80840FEF75B
:105A8000F5BC08BD141C00201000800318E90208B2
:105A90008CF1020838B55320FFF768FA10B3364B83
:105AA0001868F8B1354A1168354A11600246154642
:105AB00012F9014B34F0200111D0452C01D0652C96
:105AC000F5D100212970186823F020FA2C702D4997
:105AD00016F006F816F006FA2B4B186038BD23F0C6
