:020000040800F2
:1000000000C00020A5030008C10D0008C50D0008B0
:10001000C90D0008CD0D0008D10D0008FB14000823
:10002000FB140008FB140008FB140008FB14000874
:10003000FB140008FB140008FB1400080D15000851
:10004000FB140008FB140008FB140008FB14000854
:10005000FB140008FB140008150E0008350E0008FC
:10006000550E0008750E0008950E0008650C000876
:100070007D0C0008950C0008B10C0008CD0C0008A0
:10008000E90C0008050D0008710A0008FB140008BF
:10009000951F0008FB140008FB140008B50E0008AB
:1000A000F117000815180008391800087118000821
:1000B000C518000835190008A5190008CD11000859
:1000C000E5110008D9110008F1110008FB1400081F
:1000D000FB1400080532000869320008CD32000820
:1000E000F90E0008FB140008FB140008CD1A0008E4
:1000F000F11A0008151B00084D1B0008C90A00086A
:10010000FB140008FB140008151A0008FB14000873
:10011000F11D0008411E0008851A0008A91A0008F0
:10012000210D0008390D0008510D00086D0D000863
:1001300010B5054C237833B9044B13B10448AFF321
:1001400000800123237010BD30100020000000004B
:10015000A024020808B5034B1BB103490348AFF3C1
:10016000008008BD0000000034100020A024020818
:1001700010B512490A2309220968114800F0EAF96A
:1001800010490323022209680F4800F0E3F90F49E0
:100190001B231A2209680E4800F0DCF90D492B23B5
:1001A0002A2209680C4800F0D5F9BDE810400B4937
:1001B00032232C2209680A4800F0CCB984020020BE
:1001C0004C10002088020020641000208C020020C7
:1001D0007C1000207C02002094100020800200206F
:1001E000AC10002010B5044600F0C4FC034B2046C0
:1001F000BDE81040197800F024BC00BF16000020B4
:10020000F8B50446056801F0DDF9002223685B01BA
:1002100003F184431A6080232B600123AB622A61BF
:10022000EA606B61637973B1012B0FD001222368FF
:100230005B0103F18443C3F8802223685B0103F16F
:1002400084431A60F8BD4FF400436B644FF6FF72AD
:1002500000252368DA626E1CF7B23946204601F0A9
:10026000C6F9E8B148F6FF72236817F0010F03F1F1
:10027000340343F8252014BF6FF0FF026FF47F4270
:1002800023684FEA650503F1180353F8251001EAC6
:10029000020114BF68224FF4D0420A4343F82520DC
:1002A000042E3546D7D1C1E77047000038B5002588
:1002B000264A274C1368022043F01003136000F015
:1002C0003DFE002001F00EF865602368182023F43D
:1002D0000023236001F012F8102001F00FF800F065
:1002E00043F8A560102000F0FDFF102001F014F885
:1002F0000028FAD000F039F8164801F019F8182053
:1003000000F0F0FF182001F007F80028FAD00220D2
:1003100000F0D8FF00214FF0006000F0A9FF0E4868
:1003200001F0ECF800F038F80C4B188800F00AFCEB
:100330000B4800F00BFC0B4801F01EF900F02EF802
:1003400000F02DF8FFF7B0FF38BD00BF00200240DD
:10035000001002400C0000203F1901001400002092
:10036000E5010008010200087047002108B50846B1
:1003700001F01EF84FF48061012001F019F800210E
:10038000022001F015F82D2001F022F8BDE8084008
:100390000021032001F00CB800F0E4BD704700F02C
:1003A00020BE000001498D460149084700C00020D9
:1003B000B503000808B5114B1A68114B9A4213D1C6
:1003C000104B114A934213D31BF074F900221146CB
:1003D000104602F02FFD0D4B7BB11AF007FF52F8CB
:1003E000041B043343F8041C09498B42F7D3E7E7A5
:1003F0000022043343F8042CE3E7FEE770690208A7
:100400000000002030100020002C0020EDB1010879
:100410003010002010B50D4B1A680AB90C4A1A604A
:100420001A680C49891A814204DB09494442511A6D
:10043000A14207DA1AF0D4FE0C234FF0FF3203601A
:10044000104610BD10441860FAE700BFC410002029
:10045000002C0020C0F60228002070474FF4005303
:1004600000204B607047012070474FF0FF3070470D
:100470000020704710B50C46FFF7FAFF20700120EE
:1004800010BD704770B515460C468E18B44201D1A8
:10049000284670BD14F8010BFFF7F3FFF6E7FEE7FF
:1004A000C38882889B1AC2888188914282BF028950
:1004B00001329B1898B2704710B50369044658681A
:1004C000FFF7EEFF88B123695B689A88196892B2DA
:1004D000885C99881A89C0B292B28A420FBF002202
:1004E0009A88013292B29A8010BD4FF0FF30FBE73C
:1004F00008B503695868FFF7D3FF08BD03695B6857
:100500009988DA8892B28A421FBF9A881B6892B291
:10051000985C14BFC0B24FF0FF3070470269916819
:100520008888CB889BB28342FAD1126813685B0635
:10053000FCD5704713B504698DF8071001220DF141
:100540000701204601F077FB0028F7D0012002B018
:1005500010BD000030B54FF0000C4FF47A75C0E9C3
:1005600001C5034D016105600275437530BD00BFD3
:10057000F83902082DE9F74303690446DB68884629
:100580008B42914625D3067D134D3601AB19477D2D
:10059000586818B10022597B01F0E0F8206901F099
:1005A000FFFA39016A18127BAB19CDF804901B7B56
:1005B000695800932069AB5901F0B9FB20694246A4
:1005C000002101F0DAFB206903B0BDE8F04301F03F
:1005D0000DBB03B0BDE8F083C0360208044B0279BE
:1005E0001B789A4202BF034B1B681860704700BF1C
:1005F000E8100020EC100020002310B50446036032
:1006000072B6054B19311970044B1860044800F09C
:10061000B3FF62B6204610BDE8100020EC100020A9
:10062000DD050008002203681B685B0103F18443B9
:100630001A607047012203681B685B0103F1844361
:100640001A607047036801391B6889B29962704764
:1006500003681A68D36A9BB2994228BF194651624F
:10066000704738B561B9012203681B689962036855
:100670001B68DA6203681B68DC6AA4B2204638BDD6
:1006800048224A434FF6FF71B2FBF1F1013189B2C2
:1006900002EB5102B2FBF1F294B2FFF7D3FF036811
:1006A00092B21B68DA62E9E7012203681B685B010A
:1006B00003F18443C3F880227047000008B501218C
:1006C0001048FFF799FF02210F48FFF795FF03211C
:1006D0000E48FFF791FF04210D48FFF78DFF05211C
:1006E0000C48FFF789FF06210B48FFF785FF07211C
:1006F0000A48FFF781FFBDE8084008210848FFF7D6
:100700007BBF00BFC8100020CC100020D0100020FC
:10071000D4100020D8100020DC100020E0100020B1
:10072000E4100020F8B506460C4615468F18A7427F
:1007300006D0336814F8011B1B6830469847F6E76B
:100740002846F8BD70B505460C46084649B11CF070
:100750006DF82B68024621462846BDE870409B682C
:10076000184770BD0368C9B21B68184703685B6807
:10077000184738B50D210546FFF7F4FF0A21044656
:100780002846FFF7EFFF204438BD38B50546FFF790
:10079000EDFF04462846FFF7ECFF204438BD2DE965
:1007A00070439046994690B058EA090306469DF872
:1007B000585007D13021FFF7D5FF0125284610B04A
:1007C000BDE870830024404649462A46002310F0C5
:1007D0004BFB8046894601340DEB040303F8012CE2
:1007E00058EA0903EFD10025013C1DF804103046FA
:1007F000092994BF3031373149B2FFF7B3FF0544BF
:10080000002CF1D1DAE72DE9F0411D46002A75F1FF
:10081000000307461446069E05DA2D21FFF7A2FFC6
:10082000644265EB4505F6B2069622462B463846ED
:10083000BDE8F041FFF7B3BF07B5CB1700920A46FA
:10084000FFF7E1FF03B05DF804FB38B50546FFF79D
:10085000F3FF04462846FFF78CFF204438BD07B558
:10086000CB1700920A46FFF7CEFF03B05DF804FBFA
:1008700037B5CB1700920A460546FFF7C4FF04467A
:100880002846FFF776FF204403B030BD07B5D2B24B
:10089000009200230A46FFF782FF03B05DF804FBD5
:1008A00037B5D2B2009200230A460546FFF777FF1C
:1008B00004462846FFF75DFF204403B030BD00002A
:1008C0002DE9F34717461E4682460022002338468C
:1008D00031460FF0F7FE9DF828504FF00104F8B1B3
:1008E00043A3D3E90023384631460FF0E1FE00B9B7
:1008F0000446E4B20022002338463146C4B10FF06A
:10090000C3FE18B12D215046FFF72CFF04463C4989
:100910005046FFF72BFF0444204602B0BDE8F087A5
:1009200035A3D3E90023384631460FF0B7FEDEE7A2
:100930000FF0AAFE30B12D215046FFF713FF0446F9
:1009400006F100464FF0000800202E495FFA88F3B8
:100950009D4206D900222C4B0FF04EFD08F10108F4
:10096000F4E73A4633460FF067FA06460F4610F0B2
:1009700093FA0A230246009380460B465046894666
:10098000FFF741FF0444002DC6D0404649460FF012
:10099000DBFB02460B46304639460FF04BFA064663
:1009A0000F4650461949FFF7E1FE0444013DEDB200
:1009B000FF2DB1D0144B0022304639460FF0F2FB28
:1009C0000F4606460FF088FE0A2201468046504632
:1009D000FFF732FF044440460FF07AFB02460B4615
:1009E000304639460FF026FA06460F46DEE700BFCE
:1009F000800350726C92DF43800350726C92DFC3AD
:100A0000143A02080000E03F00002440683E02085B
:100A10009DF800100091FFF753BF704710B50446D2
:100A2000007900F093FC2079BDE8104000F0A6BCEE
:100A3000026841F48011936823F4602319439160A4
:100A40007047002330B51C461D4603EB4302072BBD
:100A500001FA02F203F10103D8BF15430A2B44EA5D
:100A60000204F2D10368DD6003681C6130BD000040
:100A700070B5144C23681B681D68A90707D51A6850
:100A800022F002021A6023689B6803B198476A0744
:100A900009D523681A68136823F0040313602368D8
:100AA0001B6903B19847EB070BD523681A681368D5
:100AB00023F0010313602368DB6813B1BDE87040C5
:100AC000184770BD1C00002070B5144C23681B68CB
:100AD0001D68A90707D51A6822F002021A60236868
:100AE0009B6803B198476A0709D523681A68136899
:100AF00023F00403136023681B6903B19847EB07D5
:100B00000BD523681A68136823F001031360236868
:100B1000DB6813B1BDE87040184770BD24000020A9
:100B2000012203685B0103F1844303F58673191FF7
:100B30001A6018680028FCD143F8042C0B68002BBD
:100B4000FCD170470146042000F032BC10B50446C9
:100B5000054B1868A047054B1868A047044B186858
:100B60002346BDE8104018471C000020200000204C
:100B70002400002010B50446FFF750FF20464FF434
:100B80006021FFF755FF0122236820465B0103F136
:100B90008443C3F8502123685B0103F18443C3F805
:100BA0000021BDE81040FFF7BBBF007900F0CEBBCD
:100BB00014230139594300680830435823F4405343
:100BC00043EA023242507047036814200833013967
:100BD00000FB01314A60704700EBC10340F831204F
:100BE00093F90430002B08DB0122591103F01F0395
:100BF00002FA03F3014A42F82130704700E100E0B5
:100C000014220368013902FB01310123490101F17A
:100C10008441C1F80031704714220368013902FB96
:100C200001310023490101F18441C1F800317047CD
:100C30002DE9F04114251C4690464B1E5D43066885
:100C4000FFF7EAFF9DF81C30240244EA8324089B46
:100C500008361C43069B77197451FB60C7F808805F
:100C6000BDE8F08110B5044B1C68A3681BB1984720
:100C7000012223685A6010BD6000002010B5044BAB
:100C80001C6823691BB19847102223685A6010BD65
:100C90006000002010B5054B1C68A36923B198477C
:100CA0004FF4807223685A6010BD00BF60000020BE
:100CB00010B5054B1C68236A23B198474FF4805246
:100CC00023685A6010BD00BF6000002010B5054BBE
:100CD0001C68A36A23B198474FF4803223685A6096
:100CE00010BD00BF6000002010B5054B1C68236BD1
:100CF00023B198474FF4801223685A6010BD00BF9B
:100D00006000002010B5054B1C68A36B23B1984709
:100D10004FF0807223685A6010BD00BF6000002051
:100D200010B5044B1C68A3681BB1984701222368C7
:100D30005A6010BD6400002010B5044B1C68236984
:100D40001BB19847102223685A6010BD6400002030
:100D500010B5054B1C68A36923B198474FF4807206
:100D600023685A6010BD00BF6400002038B5104CE5
:100D7000636CD8070BD52368D90408D50D4B1D68C3
:100D80002B6A23B198474FF480522B685A60A36DA9
:100D9000DA070BD52368DB0308D5064B1C68A36A6A
:100DA00023B198474FF4803223685A6038BD00BFA2
:100DB0000004024064000020000000000000000069
:100DC000012007E0022005E0032003E0042001E009
:100DD0000520FFE70D4A0121116072B60C4A00217F
:100DE0001160074902B4084902B486B005498E462D
:100DF000704700BFAFF30080AFF30080AFF3008017
:100E000000000061F9FFFFFF012E000814ED00E073
:100E100010E000E008B5054A136833B15068984700
:100E20000122034B5A6100BF00BF08BDF010002033
:100E30000004014008B5054A936833B1D06898476B
:100E40000222034B5A6100BF00BF08BDF010002012
:100E50000004014008B5054A136933B15069984749
:100E60000422034B5A6100BF00BF08BDF0100020F0
:100E70000004014008B5054A936933B1D069984729
:100E80000822034B5A6100BF00BF08BDF0100020CC
:100E90000004014008B5054A136A33B1506A984707
:100EA0001022034B5A6100BF00BF08BDF0100020A4
:100EB000000401402DE9F041002705240C4DD5F830
:100EC00014800126A64018EA060F08D0094BE1005D
:100ED00053F834201AB10B44586890473743013413
:100EE0000A2CEED16F6100BF00BFBDE8F08100BFEA
:100EF00000040140F01000202DE9F04100270A24F1
:100F00000C4DD5F814800126A64018EA060F08D02B
:100F1000094BE10053F834201AB10B44586890474C
:100F200037430134102CEED16F6100BF00BFBDE824
:100F3000F08100BF00040140F0100020034A136854
:100F400023F0070318431060704700BF00200240E1
:100F500010B50446007900F0F9F92079BDE8104099
:100F600000F00CBA08B50748FFF7F2FF0648FFF794
:100F7000EFFF0648FFF7ECFFBDE808400448FFF725
:100F8000E7BF00BFD8000020E0000020E8000020FC
:100F9000F000002070B50F250368CE0801F00700AF
:100FA000840053F82600092A05FA04F520EA05050D
:100FB00014BF10460820A0402843082A43F8260002
:100FC00007D10120DA6800FA01F122EA0101D960B3
:100FD00070BD092AFCD10122D86802FA01F101434F
:100FE000F5E708B5032000F0B1F9BDE8084003209B
:100FF00000F0C4B903681A6812F4985FFBD11A684C
:1010000042F480721A60704703681A6812F4985F9D
:10101000FBD11A6842F400721A600268136813F474
:10102000985FFBD17047000070B502684568516950
:1010300092695A4AAE781268CB07044606F0010658
:10104000C26014D50023EB8000F0D8F82268536802
:1010500043F48063536026B12268136843F48063CD
:10106000136000212B88226846EA4303136111F0C4
:101070000A0F10D0AB88002E45D0012B0AD1226870
:101080002046136823F480631360A38B012B37D9A8
:10109000FFF7B0FF002101F08402802A03D1A38B67
:1010A000002B49D1002101F08402842A0DD1A18BAB
:1010B0002046002954D0FFF79DFF22685369D907C5
:1010C000FCD5002163680C3363604B0661D523684F
:1010D000AA681969EB88581CE880D154AB88EA8863
:1010E000591E8A424BD122682046136823F480633C
:1010F0001360A38B022B3ED9BDE87040FFF77ABF87
:10110000FFF782FFC6E7012B08D9EB88A9685A1CB4
:10111000EA802268CB5C13613146BCE7002BFBD12F
:101120002046FFF771FF2268536823F40073536071
:10113000022384F82330ADE7EB88A9685A1CEA80C3
:101140002268CB5C1361EA88AB889A42AAD12268F4
:10115000536823F480635360A38B013BA383A1E70F
:10116000FFF752FF2268536823F400735360022391
:1011700084F82330A9E7BDE87040FFF745BF9A42E5
:1011800007D1A38B013B9BB2A3831BB9022384F835
:10119000233070BD63680C336360FAE7942B002042
:1011A00008B50268536903F47063836000235361D8
:1011B00002689361FFF728FF0268536823F4E06335
:1011C0005360FF2380F8233008BD00000148FFF77B
:1011D0002BBF00BFF80000200148FFF725BF00BF6C
:1011E0001C0100200148FFF7DBBF00BFF800002012
:1011F0000148FFF7D5BF00BF1C01002010B5044611
:10120000002190F9210000F01FF894F9220000213C
:10121000BDE8104000F018B845F25552054B1A6071
:101220004CF6CC42586099601A604AF6AA221A60BD
:10123000704700BF003000404AF6AA22014B1A60F6
:10124000704700BF003000400028A8BF00F1604098
:101250004FEA0111B8BF054BC9B2B5BF00F00F008E
:1012600000F56140195480F80013704714ED00E058
:1012700010B5002421F0604121F07F01064A0143AE
:10128000916060B20F210134FFF7DEFF3C2CF8D1F2
:10129000F02382F8233010BD00ED00E00449054B37
:1012A000CA6802F4E0621343CB60BFF34F8FFEE7DE
:1012B00000ED00E00400FA05014B13F81000704740
:1012C000403A0208064B5A6822F0030202435A6071
:1012D00080005A6802F00C028242FAD1704700BFC7
:1012E00000100240030AC2B2012003F1804303F55B
:1012F0000433196890400843186070470121030ABD
:1013000003F1804303F504331A68C0B201FA00F018
:1013100022EA000018607047030A03F1804303F5D6
:1013200004331A680223C0B203FA00F01040704779
:10133000054A0168536823F474130B434168096834
:101340000B435360704700BF0010024010B50446C5
:10135000FFF7B2FF074B53F82020074800EB44008B
:10136000437803EBC20301229B0003F184431A601C
:1013700010BD00BF40010020403A020810B50446ED
:10138000FFF79AFF084B53F82020084800EB440071
:10139000437803EBC20301229B0003F184431A60EC
:1013A00000221A6010BD00BF58010020403A020818
:1013B00010B5054A054C536854F8200023EA000391
:1013C0000B43536010BD00BF001002402C3A0208CE
:1013D00010B50446FFF770FF074B53F8202007486D
:1013E00000EB4400437803EBC20300229B0003F1AF
:1013F00084431A6010BD00BF4C010020403A02082F
:1014000001EBC000800000F184400260704710B51D
:1014100004460079FFF79AFF2079BDE81040FFF7F6
:10142000ADBF012206210068FFF7EABF00220621B6
:101430000068FFF7E5BF10B50C46016803464A682F
:1014400022F0E0024A6002681268624012F4205FF3
:1014500001D0FFF7EBFF1A6818461460BDE8104092
:10146000FFF7DFBF134343F004031943FFF7E3BF64
:101470000122006811460430FFF7C2BF0068002255
:1014800001210430FFF7BCBF0068012200210430B5
:10149000FFF7B6BF002203685B0103F18443C3F882
:1014A00080207047F8B51046069C9DF81C709DF88A
:1014B00020609DF8245081B10B2239462046FFF769
:1014C00069FD042231462046FFF764FD0B222946C0
:1014D0002046BDE8F840FFF75DBD19460422FFF73E
:1014E00059FD042239462046FFF754FD0B223146B0
:1014F0002046FFF74FFD0422E9E7FEE70722024BF3
:1015000058601A60704700BF10E000E0044A13689A
:1015100001331360034B1B6803B11847704700BFCA
:10152000942B00207011002011F0010F70B501F113
:10153000FF340DBF082500256FF0FF016FF47F41D8
:101540000068C4F34004183050F82460134331405D
:10155000AB400B4340F8243070BD02684B1E02F1D3
:10156000404220329B0003EBC20301229B0003F1A7
:1015700084431A607047000010B504460948A0472C
:101580000948A0470948A0470948A0470948A0477B
:101590000948A0470948A0472346BDE8104008482D
:1015A000184700BF84010020AC010020D0010020BA
:1015B000F4010020180200203C0200204802002014
:1015C0005402002010B504460079FFF7BFFE2079D1
:1015D000BDE81040FFF7D2BE002302681360026826
:1015E000D3604279012A9CBF026813627047037975
:1015F0001E2B10D9212B0ED0202B0ED9222B01D03F
:10160000252B04D102298CBF0020012070474B1EDE
:101610005842584170470120704700207047000031
:101620008B1C40F82320012342798B4010B5DB430B
:10163000EAB1012A41F65F6218BF0122134001227C
:1016400004682361036803F140430C3301EBC303D7
:101650009B0003F184431A60427903793ABB07295E
:1016600015D8DFE801F007151515151A1A1F41F6F0
:10167000FF62E3E71A2B0CBF19232C23012259091F
:1016800003F01F0302FA03F3254A42F8213010BD8C
:101690001A2B0CBF1B232E23F0E71A2B0CBF1A2387
:1016A0002D23EBE71A2B0CBF18232B23E6E71B3B5C
:1016B0000C2BECD801A252F823F000BF1D17000834
:1016C000F1160008F5160008F9160008FD160008C6
:1016D000011700088F1600080517000809170008F1
:1016E0000D17000811170008151700081917000832
:1016F0001D23C3E71E23C1E73223BFE73623BDE71F
:101700003723BBE71823B9E71923B7E71A23B5E74F
:101710002B23B3E72C23B1E72D23AFE71C23ADE741
:1017200000E100E00022036803F140430C3301EBC9
:10173000C3039B0003F1844302311A6040F8212067
:10174000704738B504460D4613460022FFF7ECFEFD
:1017500029462046BDE83840FFF7FFBE38B543793B
:101760000546022B0C4615D0042A13D8DFE802F0F8
:1017700003132A2D3A00FFF7D5FF0268631E02F11A
:10178000404220329B0003EBC20300229B0003F186
:1017900084431A6038BD0022036803F140430C33D0
:1017A00001EBC3039B0003F184431A60082360220A
:1017B00021462846FFF7B8FE21462846BDE83840B6
:1017C000FFF7CBBE00231022F2E74FF2F1120368BD
:1017D0009A61032203689A60036801225B0103F1A6
:1017E0008443D6E70122BDE83840FFF7AABF0000D6
:1017F00010B5074A1468E36821690B401B0606D53B
:10180000536A23B19847236923F08003236110BDF5
:101810008401002010B5074A1468E36821690B4071
:10182000DB0706D5936823B19847236923F00103AA
:10183000236110BD84010020F8B50C4D2F68FE68AF
:101840003B691E4016F0400403D02C6A0CB1A0473F
:101850004024B30604D5EB6913B1984744F0200443
:101860003B6923EA04043C61F8BD00BF8401002009
:10187000F8B5134D2F68FE683B691E4016F0100442
:1018800003D0AC690CB1A0471024310704D56B69B3
:1018900013B1984744F00804720704D52B6913B1BB
:1018A000984744F00404B30704D5EB6813B1984794
:1018B00044F002043B6923EA04043C61F8BD00BF24
:1018C00084010020F8B51A4D2F68FE683B691E4060
:1018D00016F0400403D02C6A0CB1A0474024F30654
:1018E00004D5AB6913B1984744F01004300704D510
:1018F0006B6913B1984744F00804710704D52B694C
:1019000013B1984744F00404B20704D5EB6813B14F
:10191000984744F00204F30704D5AB6813B1984725
:1019200044F001043B6923EA04043C61F8BD00BFB4
:10193000AC010020F8B51A4D2F68FE683B691E40C7
:1019400016F0400403D02C6A0CB1A0474024F306E3
:1019500004D5AB6913B1984744F01004300704D59F
:101960006B6913B1984744F00804710704D52B69DB
:1019700013B1984744F00404B20704D5EB6813B1DF
:10198000984744F00204F30704D5AB6813B19847B5
:1019900044F001043B6923EA04043C61F8BD00BF44
:1019A000D0010020F8B51A4D2F68FE683B691E4033
:1019B00016F0400403D02C6A0CB1A0474024F30673
:1019C00004D5AB6913B1984744F01004300704D52F
:1019D0006B6913B1984744F00804710704D52B696B
:1019E00013B1984744F00404B20704D5EB6813B16F
:1019F000984744F00204F30704D5AB6813B1984745
:101A000044F001043B6923EA04043C61F8BD00BFD3
:101A1000F4010020F8B51A4D2F68FE683B691E409E
:101A200016F0400403D02C6A0CB1A0474024F30602
:101A300004D5AB6913B1984744F01004300704D5BE
:101A40006B6913B1984744F00804710704D52B69FA
:101A500013B1984744F00404B20704D5EB6813B1FE
:101A6000984744F00204F30704D5AB6813B19847D4
:101A700044F001043B6923EA04043C61F8BD00BF63
:101A80001802002010B5074A1468E36821690B406A
:101A9000DB0706D5936823B19847236923F0010338
:101AA000236110BD3C02002010B5074A1468E368AA
:101AB00021690B40DB0706D5936823B1984723695A
:101AC00023F00103236110BD4802002010B5074A2E
:101AD0001468E36821690B401B0606D5536A23B1DD
:101AE0009847236923F08003236110BD540200202E
:101AF00010B5074A1468E36821690B40DB0706D577
:101B0000936823B19847236923F00103236110BD33
:101B100054020020F8B50C4D2F68FE683B691E404A
:101B200016F0400403D02C6A0CB1A0474024B30641
:101B300004D5EB6913B1984744F020043B6923EACC
:101B400004043C61F8BD00BF54020020F8B5134DF9
:101B50002F68FE683B691E4016F0100403D0AC6984
:101B60000CB1A0471024310704D56B6913B1984715
:101B700044F00804720704D52B6913B1984744F068
:101B80000404B30704D5EB6813B1984744F002048A
:101B90003B6923EA04043C61F8BD00BF5402002005
:101BA00000223F2110B50446436810309A80186027
:101BB000DA801981A3689A80DA8004F150021981D1
:101BC0001A6094F89000FFF7C1FB94F99130002B54
:101BD00008DB0122591103F01F0302FA03F3024A42
:101BE00042F8213010BD00BF00E100E00368DA6870
:101BF00042F02C02DA60DA6842F40052DA60704790
:101C000010B5036881688C88CA8892B2A242FAD162
:101C1000DA68910402D51A685206F9D5DA6822F416
:101C20000052DA60426893889BB2D38082689388BE
:101C30009BB2D38010BDF0B50B4606460468B5686C
:101C4000581AAF88ED88ADB2BD4204D125682D0683
:101C500001D5824210D8E36823F08003E36090420C
:101C6000B3680DD39A88DB889BB293421EBFE368AA
:101C700043F08003E360F0BD13F8010B6060DEE722
:101C8000DD889F880135BD42ECD0DF881D89ADB26B
:101C9000BD4203D19D88ADB2002DE3D0DD8811F89F
:101CA00000C01F68ADB207F805C0DF881D8901308C
:101CB000ADB2BD420FBF0025DD880135ADB2DD807C
:101CC000CDE703468288016892B2885C99881A89B8
:101CD000C0B292B28A420FBF00229A88013292B2F9
:101CE0009A80704738B5C38882880133934204468E
:101CF0000D4607D0C28803899BB2934214D18388D2
:101D00009BB28BB92046FFF7DCFFE38822689BB2C9
:101D1000D554E28823899BB293420FBF0023E38806
:101D200001339BB2E38038BD4FF0FF30EDE770B573
:101D30001E460546084611460422059CFFF72AF96F
:101D40000B229DF810103046FFF724F92968630232
:101D5000CA6803F4F05322F4F0521204120C134335
:101D6000CB602A682402136904F4405423F44053DE
:101D70001B041B0C1C43146170BD38B5054614468A
:101D800011B900F085F8014619235943A200B1FBAF
:101D9000F2F26421B2FBF1F001FB10231B0132339C
:101DA000B3FBF1F303F00F032C6843EA00139BB27B
:101DB000A36038BD10B50446084B1868A047084B0F
:101DC0001868A047074B1868A047074B1868A0473A
:101DD000064B18682346BDE81040184784020020CF
:101DE000880200208C0200207C020020800200205B
:101DF00010B5104CE368980607D52368990604D5FA
:101E000061680D48C9B2FFF76DFFE3681A060BD58C
:101E100023681B0608D509488288C3889BB2934271
:101E200003D0FFF74EFF606010BDE36823F080032E
:101E3000E360F9E7004C004074110020801100209D
:101E400010B5104CE368980607D52368990604D5A9
:101E500061680D48C9B2FFF745FFE3681A060BD564
:101E600023681B0608D509488288C3889BB2934221
:101E700003D0FFF726FF606010BDE36823F0800306
:101E8000E360F9E7005000408C1100209811002019
:101E900008B590F89000FFF70FFA20B10128034829
:101EA00018BF002008BD0248FCE700BF00A24A049A
:101EB0000051250230B548F28005094C226822F411
:101EC000804222F070022A4342402260236823F4B9
:101ED000E04323F040032B434B40236030BD00BF61
:101EE000005C0040284B072818BF18701A78052A94
:101EF00048D8DFE802F003131E232B364FF6FB71A0
:101F0000224A106C014011644FF43F4111640622D3
:101F10001A701F4B1B685A7B1A7370474FF6FB7180
:101F20001A4A106C014011644FF43F4111640422BD
:101F300002E002225A7003221A7006E05A78013A2F
:101F4000D2B25A705A78002AF1D070470F490A6C01
:101F500092B242F010020A6405221A700A225A70E4
:101F600070475A78013AD2B25A705A78002AECD1A6
:101F70004FF6EF720549086C02400A64044A126881
:101F8000517B11730622D7E79C2B0020005C004098
:101F9000740500202DE9F0415F4D604A2B68546CB8
:101FA0001B68A4B223405E0506D56FF480635364BA
:101FB0005B4B1B685B6898472A681368234098044A
:101FC00042BF6FF40051554B596413682340D90444
:101FD00006D56FF4C052514B00205A64FFF782FFC0
:101FE0002B681A68224012050FD54C490A6C92B230
:101FF00042F0080042F00C0208640A641A7B5A732B
:1020000003221A736FF4C0524A641A68224097057B
:1020100042BF6FF40071414A51641B682340DE05E2
:1020200006D56FF480723D4B07205A64FFF75AFFC4
:102030002B681B681C40240403D5384C676C3B0498
:1020400001D4BDE8F0816FF4004317F00F0663641C
:1020500038D148F68003D4F8008018EA030FECD09A
:102060001FFA88F32F4D304E03F440524FF40050C6
:1020700003F03003202133802A80FFF71BFFF8068E
:1020800023680ED423F4E14323F070031B041B0CDC
:10209000236000F09BFD31882888BDE8F041FFF700
:1020A00009BF18F0800FEDD123F070031B051B0D45
:1020B00018F4006F236002D000F0A6FBEBE700F0FD
:1020C00003FDE8E7B40004F1804404F5B844276850
:1020D00039040DD5236823F070031B051B0D236005
:1020E0002A6806F180439268013B52F823309847F2
:1020F0003A06A2D5236806F1804623F4E14323F093
:1021000070031B041B0C23602B68013E5B6853F8B3
:102110002630984791E700BF74050020005C00401E
:10212000A42B0020982B00209A2B0020800000F187
:10213000804000F5B840036823F4804323F0700327
:1021400043F4004343F080035940016070470000AE
:1021500018B90722024B1B681A820248704700BF59
:10216000CC2B0020E40500200022012110B5104BEB
:102170001B689A720F4B19640F490868026008685F
:1021800004681C644FF4E0545A64046008680468EE
:102190001C644FF43F445A64046008680068186483
:1021A0004FF48010054B18600B681A7310BD00BF08
:1021B000CC2B0020005C00407405002000E100E012
:1021C00013B5104B1A68137803F07F03212B16D137
:1021D000022808D0222801D0022405E093780A4A78
:1021E00003F0030313700024084B1B6823B102A9FA
:1021F00001F8010D02209847204602B010BD0224CC
:10220000FAE700BFCC2B0020F0110020EC110020D9
:1022100021B901288CBF022000207047022070479E
:10222000054B1B689B78032B04D8044901EBC301C1
:1022300000F0BCBA00207047CC2B0020CC05002059
:10224000014900F0B3BA00BF88050020014900F041
:10225000ADBA00BF9005002037B5114C2268127846
:1022600002F07F02212A02D0022003B030BDA0F18B
:102270002003012B0B4B0C4D1B6888BF002523B19D
:1022800002A901F8010D02209847002DECD0236827
:1022900000249D615C822046A8472046E5E700BFF8
:1022A000CC2B0020EC110020512100082DE9F04733
:1022B00000254FF0C00948F68F1648F280074FF00E
:1022C000400A434B434C1B68DFF838819D7283F80A
:1022D0000990256523682846334043F40073236042
:1022E000236803EA08033B4383F010032360226D55
:1022F000394B520043F802A08022236D5B0003F1AA
:10230000804303F5C0431A60236823F4E24323F0BB
:1023100070031B041B0C2360304B1B6893F82C10BC
:1023200000F072F84FF440512846FFF7FFFEA36813
:102330002946334043F4C063A360226D284B52000A
:1023400013444FF480721A60A268022002EA080265
:102350003A4382F02002A260FFF7E8FEE3685146AC
:102360003340E360226D1F4B520013444FF48872D8
:1023700003201A6000F048F84FF440510320FFF7A3
:10238000D5FE636829461E406660226D164B5200DA
:1023900043F802906368012003EA08033B4383F09B
:1023A00020036360FFF7C2FE0122104B28461B6822
:1023B0001A7300F0EBFBFF220D4B1D600D4B1D60EF
:1023C0000D4B1D600D4B1D600D4B1A70BDE8F08765
:1023D000CC2B0020005C004008600040A42B0020B3
:1023E000206000403860004010600040740500200C
:1023F000F4110020F8110020001200200412002027
:10240000FC110020BF8FFFFF0D4B0E4A1B6D3E29B4
:1024100003EBC0004FEA400002440AD94B09C8064A
:1024200004BF03F1FF339BB29B0243F400431360EC
:1024300070474B08C90748BF01339B02F7E700BF4D
:10244000005C00400C60004010B5064C18B9012239
:1024500023681A8210BD044B1B681B6898472068CC
:102460000A30F7E7CC2B0020C82B002010B5064C13
:1024700018B9012223681A8210BD044B1B689B689F
:10248000984720680C30F7E7CC2B0020C82B0020A1
:1024900010B51E4B1C68002310B90223238210BD07
:1024A0001B4803802178024611F07F0112D1617A26
:1024B0008C0644BF02230370037848064CBF23F008
:1024C000010343F001031370124B1B681B6998470B
:1024D0000F48E4E70129E2D0022915D1217901F062
:1024E0000F039B0003F1804303F5B84309061B6803
:1024F00005D503F03003102BE6D10123E3E703F405
:102500004053B3F5805FF7E71846C8E7CC2B0020AF
:102510009E2B0020C82B00202DE9F843234FDFF825
:10252000A0803D682C8AD4B92E7A042E17D1204978
:102530000B78012B0ED11F4B1A681F4B92B213441C
:102540005B001C6030230C70A8F800303B681E72E2
:10255000BDE8F88310230726A8F80030F6E7AB8A19
:102560009C4294BF042602269C4228BF1C46AB69AD
:10257000204698478146002000F0B4FB22460146E1
:10258000484600F052FB2146002000F0C7FB2B8A92
:102590004FF440521B1B2B826B8A1C443023A8F83B
:1025A0000030064B6C821A80D0E700BFCC2B002095
:1025B00008120020505C004002300020982B0020C0
:1025C0009A2B002010B50A4B0A491B6849789A7863
:1025D00091420AD3D97841B99C8834B99A72064B92
:1025E0001B685B689847204610BD0220FCE700BFCF
:1025F000CC2B0020C8050020C82B002038B50F4A7E
:102600000F4D12682B6892699978187990472B685A
:1026100004469A7A7AB170B95A7962B9DB7853B9BB
:10262000084B1B68DB6898472B681A79DA729A782E
:102630001A73204638BD0224FBE700BFA42B0020FC
:10264000CC2B0020C82B002038B52B4B1B681878EA
:1026500010F07F0004D15A7A22F020025A7238BD5D
:10266000022847D15A88002AF9D15A79002AF6D18E
:102670001979224D21F08000840004F1804404F592
:10268000B844226849B22D780029B4BF02F0300264
:1026900002F4405285422DD962B39B7A53B300298C
:1026A000236811DA03F03003102B07D1C4B220469F
:1026B00000F004FB3021204600F0D8FA104B1B68D4
:1026C0005B6998470020CAE703F44053B3F5805F85
:1026D000F4D10C4D58B90C4B93F82C1000F02CFB96
:1026E00023682B409BB283F440532360E6E700F05D
:1026F000D2FAF5E70220B2E7CC2B0020C805002073
:10270000C82B00208FBFFFFF9805002038B51B4B5A
:102710001B4D18682D78017921F08004A30003F186
:10272000804303F5B8431A6849B20029B4BF02F0E8
:10273000300202F44052A5421DD94488DCB9D2B11E
:10274000827AC2B11A680029B5BF22F4E04222F4AD
:10275000804222F0400222F07002B5BF92B292B2E3
:1027600082F0100282F480521A60064B1B689B694B
:102770009847002038BD0220FCE700BFCC2B00208A
:10278000C8050020C82B002008B5064B1A68537AEC
:1027900043F020035372044B1B68DB699847002009
:1027A00008BD00BFCC2B0020C82B002010B5054B66
:1027B0001C68628A18B98B889B1A238210BD08682E
:1027C0001044FBE7CC2B002008B50B4B002093F8FE
:1027D0002C1000F0B1FA094B1B68187A082806D1B2
:1027E0004FF48052064B1A801022064B1A80A0F13B
:1027F00009035842584108BD98050020CC2B002001
:10280000982B00209A2B002073B5964C964E216889
:1028100032680B7A092B16D0944B92B213445B00AA
:102820001B885B0003F1804303F5C0431A780A70EC
:1028300059782268517099882268518019892268D4
:1028400091809B89D380012223681A72DA885D788F
:10285000002A64D11A7812F07F024DD1092D03D1DC
:10286000FFF7B0FE40BB16E0052D20D193F9022002
:10287000002A07DA08232268137202B0BDE870400C
:10288000FFF7A2BFDA78002AF4D19A88002AF1D1A2
:102890009B7A002BEED13268754B92B21344002222
:1028A0005B001A603022734B1A800623E3E7032D86
:1028B00014D19A78012A08D06F4B28461B685B69AF
:1028C0009847032828D10923D5E79A88002AF3D10D
:1028D0005B7A9A06F0D5FFF757FFC3E7012DEBD1DE
:1028E0009A78012AE8D19A88002AE5D15B7A9B067A
:1028F000E2D5FFF7A9FEB5E7012A04D10B2DDBD104
:10290000FFF77CFEAEE7022AD6D1012DF1D0032DD0
:10291000D2D1FFF7FBFEA5E70028ABD1BBE7062D20
:1029200012D11A7855065AD1DB78534A012B126816
:1029300002D1D369DBB952E0022B01D1136AF9E766
:10294000032B4CD1536AF5E7002D54D15988002947
:1029500045D15A6822F0FF02B2F5003F3FD11A7804
:1029600012F07F0216D19B88002B38D1434B0025F3
:102970002268284655829361984728464FF6FF7192
:1029800023681A8A8A4233D0022801D0002A55D1FE
:1029900008222EE0012A0AD1374A18791268926972
:1029A0009047E0B923689B7A002BDFD117E0022A19
:1029B00015D11A7902F00F018B00100603F1804344
:1029C0002F4803F5B8431B6800784CBF03F0300371
:1029D00003F44053884202D912F0700FE4D0264B22
:1029E00022681B6850781B6998470328C6D1236862
:1029F00009221A7241E7082D04D11B785B06EED13B
:102A0000204BB4E70A2DEAD11A7802F07F02012A9E
:102A1000E5D19A7A002AE2D059880029DFD15A6894
:102A200022F0FF02B2F5803FD9D1134A187912681B
:102A3000926990470028D2D1134B98E793F9001080
:102A4000002936DAD9880C4C019101982468824219
:102A50001CD9019A1A8294F82C209A82FFF75CFD07
:102A60000BE700BFCC2B0020505C0040043000205E
:102A7000023000209A2B0020A42B00209124000873
:102A8000C8050020492400086D2400088A42E2D2CB
:102A900094F82C00824203D20021094A1170DAE72F
:102AA00092FBF0F100FB1122002AD4D1044A01214B
:102AB000F4E703221A724FF44052024B1A80DCE60C
:102AC00008120020982B0020F8B52A4E3468237A8B
:102AD000032B01D0052B44D1A369B3B1258AA5B13D
:102AE000A28A954228BF154628469847238A07465A
:102AF0005B1B2382638A00202B44638200F000F971
:102B00002A460146384600F09FF8238A53B1002137
:102B10004FF44052184B08461A8000F0FFF830225C
:102B2000164B1A80228AA18A3368914209D803225F
:102B30001A7233681B7A32681372BDE8F840FFF7E7
:102B400043BE0AB10522F3E7062119720C4B19683E
:102B50000C4B89B20B445B001A603022074B1A8081
:102B6000E7E7072B03D1084B1B68DB68984708236E
:102B7000E1E700BFCC2B0020982B00209A2B0020EF
:102B8000505C004002300020A42B0020002210B531
:102B90000C4B1C78A24204D30B4B40F08000186011
:102BA00010BD02F1805303F5B8539B00196821F45E
:102BB000E04121F070010904090C11431960013250
:102BC000E8E700BFC80500204C5C004010B5134C7E
:102BD00023681A7A022A01D0042A09D1FFF79CFC43
:102BE00023681B7A22681372BDE81040FFF7ECBD22
:102BF000062A10D15A78052A09D11A78520606D128
:102C00009878FFF7C3FF064B1B681B6A9847054B74
:102C10001B689B6898470823E4E700BFCC2B002083
:102C2000C82B0020A42B0020704701F10051013275
:102C300001F540515210490002B9704730F8023B8B
:102C4000013A21F8043BF7E7002310B501F10051E8
:102C5000013201F54051521049009A4200D110BD95
:102C600051F8234020F813400133F6E7800000F1CB
:102C7000804000F5B8400368CA0623F4E04323F01F
:102C800040039BB248BF83F010038A0648BF83F01D
:102C9000200303607047800000F1804000F5B840D9
:102CA00003685B0409D5036823F4E04323F0700351
:102CB0001B041B0C43F4804303607047800000F149
:102CC000804000F5B84003685B0609D5036823F42B
:102CD000E04323F070031B041B0C43F0400303602C
:102CE00070470000054B1B689BB203EBC00000F16E
:102CF000005000F54050400000887047505C004094
:102D0000044B1B689BB203EBC000034B03445B0006
:102D100018887047505C004004300020044B1B684A
:102D20009BB203EBC000034B03445B001960704788
:102D3000505C0040023000200D4B0E4A1B683E29BB
:102D40009BB203EBC00002444FEA42020AD94B098E
:102D5000C80604BF03F1FF339BB29B0243F4004358
:102D6000136070474B08C90748BF01339B02F7E760
:102D7000505C00400630002013B504468DF8071063
:102D800001220DF107012046FEF755FF0028F7D07C
:102D900002B010BD38B505464C1E14F9011F01B92B
:102DA00038BDC9B22846FFF7E7FFF6E708B5134B71
:102DB00003221C6801212046FEF7ECF800230121C4
:102DC0001A46B2F5007F0CD072B1B3F5007F01D185
:102DD00000230A449A420CD9022520680561013378
:102DE000EFE74FF0FF31F0E7B3F5007F4FF001015F
:102DF000EED020684FF40035F0E700BF283A020813
:102E000008B5034B0BB100F025F862B6FFF7CEFF13
:102E1000552E000808B5044B23B100F03BF80349D8
:102E2000FFF7B8FFFFF7ECFF952E0008133B0208F1
:102E3000FDF73CBA08B500F0CFFF01F093F8FCE7CE
:102E400018F07EBC002203685B0103F18443C3F8E1
:102E5000002170474FF0FF3310B50A4C0A48C4F800
:102E60008030C4F88430FEF787FB0848FDF76EFE1B
:102E70000748FEF79FFF4FF4002323604FF48013B1
:102E8000236010BD00E100E0D9150008452E0008C0
:102E9000011C000810B5094B094C18680B220221CF
:102EA000FEF778F82068FEF77BFE20684FF4165294
:102EB0000021FEF762FF206810BD00BF243A02081F
:102EC00088020020322838B53BD8082939D8DFE8F5
:102ED00001F00529171A1D201723260000240322BC
:102EE000184B00011D18297B1858FEF753F8686825
:102EF00038B3697BCCB1BDE838400122FEF72EBC67
:102F000000240422ECE700242246E9E700240922F9
:102F1000E6E700240822E3E701240B22E0E701248E
:102F20000F22DDE700240722DAE702684B1E02F1D8
:102F3000404220329B0003EBC2039B0003F1844319
:102F40001C6038BDC036020808B501211048FDF7E5
:102F500053FB02210F48FDF74FFB03210E48FDF7FD
:102F60004BFB04210D48FDF747FB05210C48FDF7FD
:102F700043FB06210B48FDF73FFB07210A48FDF7FD
:102F80003BFBBDE8084008210848FDF735BB00BF02
:102F90000C12002010120020141200201812002021
:102FA0001C120020201200202412002028120020D1
:102FB000322810B50ED8084B00011C181B58B1FA66
:102FC00081F11A680123207B49098340090103FA32
:102FD00001F1116110BD00BFC03602080A4A0B4B57
:102FE00011689B6800BF00BF12688A42F6D1482072
:102FF000C3F58C3303F5A073B3FBF0F34FF47A7091
:1030000000FB0230704700BF942B002010E000E06E
:1030100038B50446FFF7E2FF05465CB1FDF7FDFC5D
:10302000FFF7DCFF401BB0F57A7FF6D3013C05F5D6
:103030007A75F5D138BD00000449054BCA6822F401
:10304000E0621204120C1343CB60704700ED00E005
:103050000003FA05704770470120704713B5104C04
:1030600020460CF016FE204604210CF0ABFD204655
:1030700002220C490CF0AAFD002302220A49009307
:103080002046A0230CF008FE20460CF0FBFD204655
:103090000CF0EAFD204602B0BDE810400CF0EBBD9C
:1030A00034120020383B02082E12002024280AD0B7
:1030B000252807D10123054A32F81330044AC3F307
:1030C0008903138070470023F5E700BF2E1200200C
:1030D0002C120020FEF7E2B8024B034819680CF0EE
:1030E0006FBD00BF1C0000203412002010B5074C3B
:1030F000032294F84C10206CFDF74CFF236C94F8DD
:103100004C101A6801238B40136110BDC0360208B1
:10311000062838B58CBF00250A4B0B4C98BF1D5CA8
:103120002046E46600F051FA2946204600F05FFA96
:103130002046012100F068FA2046BDE83840002111
:1031400000F06FBA3A3B0208BC120020FF21014890
:1031500000F07CBABC1200200B4602460021014858
:1031600000F02CBBBC1200200146014800F0AEBBB1
:10317000BC12002070B50D46064C0146204600F0FA
:10318000A5FB29462046BDE8704001234FF400729C
:1031900000F090BBBC12002003468288016892B206
:1031A000885C99881A89C0B292B28A420FBF002205
:1031B0009A88013292B29A80704738B5C388828863
:1031C0000133934204460D4607D0C28803899BB25F
:1031D000934214D183889BB28BB92046FFF7DCFF62
:1031E000E38822689BB2D554E28823899BB293423C
:1031F0000FBF0023E38801339BB2E38038BD4FF05B
:10320000FF30EDE770B5164B1A68164B95681C68D1
:10321000DE68194616F0200F19D0A00617D5A107B1
:103220000FD05B6832060BD5230609D5AA88EB8838
:103230000C4C9BB293420ED02846FFF7ADFF606066
:1032400070BD59685068C9B2FFF7B7FFEAE72007B9
:1032500048BF4B68E6E7E36823F08003E360EFE7ED
:10326000840200200038014070B5164B1A68164BD6
:1032700095681C68DE68194616F0200F19D0A00664
:1032800017D5A1070FD05B6832060BD5230609D5E9
:10329000AA88EB880C4C9BB293420ED02846FFF7CD
:1032A0007BFF606070BD59685068C9B2FFF785FF49
:1032B000EAE7200748BF4B68E6E7E36823F08003AE
:1032C000E360EFE7880200200044004070B5164B31
:1032D0001A68164B95681C68DE68194616F0200FB0
:1032E00019D0A00617D5A1070FD05B6832060BD501
:1032F000230609D5AA88EB880C4C9BB293420ED0CA
:103300002846FFF749FF606070BD59685068C9B230
:10331000FFF753FFEAE7200748BF4B68E6E7E3689B
:1033200023F08003E360EFE78C02002000480040B8
:1033300038B51749174D184C0A2309220968284641
:10334000FDF708F92C601549154D03230222096881
:103350002846FDF7FFF82C601249134D1B231A2253
:1033600009682846FDF7F6F82C601049104D2B230C
:103370002A2209682846FDF7EDF82C600D490E4D0C
:1033800032232C2209682846FDF7E4F82C6038BD6A
:1033900084020020441200204C3B020888020020D6
:1033A0005C1200208C020020741200207C0200209D
:1033B0008C12002080020020A412002001398B0012
:1033C0000121026899405160704703689A6891072B
:1033D000FCD59A681206FCD47047436823B1417B40
:1033E00000221846FEF7BAB970470000172806D029
:1033F000182806D01628044818BF00207047034834
:1034000070470348704700BF5C69020860690208A2
:10341000646902082DE9F04F814687B000798A4639
:10342000FFF7E4FF60B30578174C46782D012B19A0
:103430008778360190F8038006EB040B1846059355
:1034400004EB0717FFF7C9FF5846FFF7C6FF04EB69
:1034500008183846FFF7C1FF4046FFF7BEFF98F84F
:103460000C20059B51461B7B03923A7B48460292F7
:103470009BF80C200192325900922A59FEF712F85B
:1034800007B0BDE8F08F00BFC036020810B50C468B
:10349000FDF712FF90B10228094B88BF00230022DC
:1034A0005B089C42D0B205D20132072A4FEA53038F
:1034B000F7D11046034B0344187B10BD024BEEE7D7
:1034C00000A24A045C690208005125022DE9F0417E
:1034D000034604466C302C4D00221D6001255A73B2
:1034E0001D735A60C3E9072224339842F3D1242282
:1034F0004B1E02FB03430229E366DFF8AC80234E38
:1035000039D003293CD0A94201D1214B1C60214B69
:10351000214F1B68216823611879FFF7B7FF3B68CB
:103520000225A36103236375D8F80030A0606363AC
:103530002575616A1879FFF7A9FF3B68E062E363CC
:10354000052384F83930042384F838303368A16CBB
:10355000A3651879FFF79AFF104B00221B682065BE
:103560002366012384F85C30E36E84F85D50DA73DF
:103570002046BDE8F081D8F800306363084BC5E70A
:103580003368A365074BC1E700093D0068010020CF
:103590002C13002060010020600000206400002047
:1035A000301300203413002064010020C06E037B20
:1035B0004268012B0CBF0023802342F44072134366
:1035C000017A427B0069FDF74DBF10B50446C36E1A
:1035D0001869FDF71CFFE36E01211869FFF71AFF58
:1035E0002046FFF7E3FF0122E36EDA7310BDC36EDE
:1035F0009960C36E01F038011B691A68136823F0E3
:103600003803194311607047C36E1973C36E1B6989
:103610001A68136823F0800309B943F0800313602C
:103620007047C36E5973C36E01F003011B691A68BA
:10363000136823F00303194311607047C36E1B69BD
:103640001B68D960C36E1869FFF7BFBE10B5C36EA3
:103650001C6923682046DA68D960FFF7B6FE236844
:10366000D868C0B210BD0000F0B50546C36E85B085
:10367000986917460E46FDF798FAE86E4468017D92
:10368000A4F500635C425C4103691A688223CDE9BA
:103690000143009723460C328069FDF7C9FAE86EB2
:1036A0000369417D1A68C6B91023CDE901430D4B6A
:1036B000009323460C328069FDF7BAFAEB6E0022C4
:1036C000597D9869FDF774FA0322EB6E197D9869AC
:1036D00005B0BDE8F040FDF76BBA90230096CDE948
:1036E0000143E6E7683B020870B504460D4611B990
:1036F0000025284670BDC36E1A6912689168CE070E
:1037000048BFD2680422DA73C36E2A46197D9869CD
:10371000FDF75AFAE36E2A46597D9869FDF754FA87
:10372000E36E197D9869FDF76BFAE36E597D986930
:10373000FDF766FAE36E1869FDF7A6FEE36E1869F9
:10374000FDF796FEE26ED369002BD1D193691A4939
:103750001E68537D0D68013B9B00DBB23068D8408A
:10376000800727D40868401B6428F7D90225106910
:10377000FFF72BFEE36E1869FDF780FEE36E186914
:10378000FDF788FEE36E597D9869FDF745FAE36E13
:10379000197D9869FDF740FAE36E197D9869FFF786
:1037A0000DFEE36E597D9869FFF708FE0122E36E76
:1037B000DA739EE70025DAE7942B002038B504463B
:1037C0001D46FFF751FF29462046BDE83840FFF768
:1037D0008BBF7FB5054614460E46C36EE40198695B
:1037E000FDF7E3F9E86E44F012044368417DA3F568
:1037F00000625342534102691268CDE901340096D8
:103800000C328069FDF714FA0022EB6E597D98693D
:1038100004B0BDE87040FDF7CBB9000070B50446B8
:103820000D4611B90025284670BDC36E597D9869B3
:10383000FFF7C4FDE36E2A46597D9869FDF7C4F988
:103840000322E36EDA73E36E597D9869FDF7D8F9C8
:10385000E36E1869FDF70CFEE26E136A002BE1D1EE
:10386000936913491E68537D0D68013B9B00DBB2D1
:103870003068D840800719D40868401B6428F7D9FD
:1038800002251069FFF7A1FDE36E1869FDF7F6FD4B
:10389000E36E597D9869FDF7BFF9E36E597D98692C
:1038A000FFF78CFD0122E36EDA73BCE70025E8E741
:1038B000942B002038B5044615461A46FFF789FFB9
:1038C00029462046BDE83840FFF7A8BF08B5FFF7F6
:1038D000B5FE012008BD000001210148FFF7F6BD3B
:1038E000BC120020084B186803F178420749A2F582
:1038F0007C328850064A04339342F4D10022054BAF
:1039000001201A70704700BF00F003083813002030
:1039100000F80308381B002070B5164D2C783CB316
:103920000CF070FA14480CF025FA052805D00CF0BC
:1039300075FA00232B70204670BD10480CF01AFA5F
:103940000528F4D10C4E0E4A06F17843A3F57C33DA
:10395000D15A30460CF030FA052804D000240CF07F
:103960005DFA2C70E7E7054B02369E42EBD1DEE7AD
:103970000124E0E7381B002000F0030800F80308EA
:1039800038130020F8B505460024944206D0094EAD
:103990000F5D2868264437540134F6E70120064AB3
:1039A0001070A2B2184604F073F82B6800201C4473
:1039B0002C60F8BD38130020381B002070B5154668
:1039C0009DF8102004465AB902680A491144AAB267
:1039D000184604F05DF8226800202A44226070BD79
:1039E0000022AA42F3D0034E20681644305C88546B
:1039F0000132F6E738130020022870B502460D4662
:103A000039D0052836D100262C4C0222236801210A
:103A10005B0103F184431E602046FDF79FFE2849A9
:103A20004FF6FF70B1FBF5F11122814228BF01462C
:103A300023685E629A62D8629A69204622F0FF0289
:103A40009A6159635B0103F184430121DE611D4AE0
:103A5000FDF7E6FD02213220FDF7F6FB0122236887
:103A60005B0103F18443C3F8802223685B0103F107
:103A700084431A6070BD0026134C01212368204640
:103A80005B0103F184431E60FDF768FE40F2E732FC
:103A900023680E495E62B1FBF5F19A624FF6FF7240
:103AA000914228BF1146DA6220465963084A012133
:103AB000FDF7B6FD03211C20CEE700BF1802002051
:103AC00000093D0069BA0008AC010020401901005E
:103AD000B1CC000802280CD005280CD1074B1B687C
:103AE0005B0103F18443D3F88401003018BF012047
:103AF0007047034BF3E70020704700BF1802002017
:103B0000AC010020013807289ABF024B53F820006F
:103B1000002070476C3B0208FDF78EBB40F271211C
:103B20000620FDF779BB70470368C9B21B681847C8
:103B300008B505F059F905F0C3F9FE2004F01EFAA6
:103B4000BDE8084004F0F8B9054BD3F8D02293F84B
:103B5000DC124FF4803312688B401361704700BF52
:103B6000C03602080E4AD2F8803092F88C101868DD
:103B7000012303FA01F109040161D2F81011086868
:103B800092F81C1103FA01F109040161D2F8201224
:103B900092F82C22096893401B040B61FFF7D4BFF5
:103BA000C0360208044BD3F8D02293F8DC1201236C
:103BB00012688B4013617047C0360208012130B48F
:103BC000124BD3F88020106893F88C2001FA02F28F
:103BD00002610F48027822F001040470D3F810410A
:103BE000256893F81C4101FA04F42C6122F00304C7
:103BF0000470D3F8204293F82C322468994022F0C4
:103C000007022161027030BCFFF7CCBFC03602084A
:103C1000E31D002003F0B0BF10B540F2E9330446C5
:103C2000013B08D000BF00BF00BF42F62F22013A7F
:103C300000BFFCD1F4E772B640F2E933013B08D093
:103C400000BF00BF00BF41F29312013A00BFFCD198
:103C5000F4E708F0CFFC24B1FFF7B0FFFFF75CFFFB
:103C6000FCE7FFF79FFFF9E7144608B508F0C2FC30
:103C700000F0CAF9024800F0B5F92046FFF7CCFF82
:103C8000003C020870B5384B05461B78032B01D861
:103C900003F0FEFA35490C680DB1354B1C60354B0D
:103CA0001B68ABB1324A12681344E31A002B0FDBD6
:103CB00000F0AAF9304B3148196800F0ABF90A213D
:103CC0002F48FFF731FF002211461046FFF7CCFFC7
:103CD0002C4B1B683BB12C4A10782C4A127890422E
:103CE0000BD0234B1C602A4D2B68E31A002B03DBFF
:103CF000643405F01DF82C6070BD264A35B91C48A7
:103D0000096800680344CB1A002B02DA0023137001
:103D1000E9E71378002BE6D1012313701E4AD2F88D
:103D20008010086892F88C1003FA01F101611B48B9
:103D3000017821F001050570D2F810512E6892F833
:103D40001C5103FA05F5356121F003050570D2F821
:103D5000205292F82C222D68934021F007012B610C
:103D60000170FFF71FFFBEE75C1D0020942B0020B1
:103D70004C1B0020541B0020601B0020C33B02088A
:103D800044120020EC050020592300205A23002073
:103D90003C1B0020401B0020C0360208E31D002011
:103DA00008B50020FFF76EFF08F000FD084B1B78F8
:103DB00063B1FFF74FF90BF031FA01F0EFFF054B5C
:103DC0001B781BB9BDE8084009F01ABA08BD00BF4E
:103DD000431B0020501B002037B54E4A4E4C136841
:103DE000204623F0E06343F0007313604FF4E131A9
:103DF0000022FCF7BFFB2369012193F99100FDF735
:103E000023FA464B1B6800F0F9F8454800F0EAF841
:103E1000FFF712F907F01AFFFFF785FEFFF71CF90D
:103E2000C507044602D53F4800F0DCF8A00702D5DC
:103E30003D4800F0D7F8610702D53C4800F0D2F8C1
:103E4000220702D53A4800F0CDF8A30602D539483A
:103E500000F0C8F8FFF7FFF8374800F0C3F820215A
:103E60002D48FFF761FE354800F0BCF80A212A48CA
:103E7000FFF75AFE00F0C2F8314800F0B3F800F046
:103E8000BDF8304800F0AEF800F0B8F80020FCF7BC
:103E9000C1FA0DF10701091A2B4800F0C7F82B4CA5
:103EA0004FF4A0612A4800F0C1F80A211A48FFF730
:103EB0003BFE237823B907F039F908B101232370B9
:103EC000244C254D216828680CF0A4FC6168206012
:103ED00068680CF09FFCA9686060A0680CF09AFC10
:103EE000A06004F029F81D4808F0A0FA03F014FEC1
:103EF00003F090FE07F0C2FAFFF710FE01231A4606
:103F00001946184600F076F90122154B1A7003B0D5
:103F100030BD00BF0400014044120020942B00205B
:103F2000F04B02082C3C0208353C0208463C0208D3
:103F3000583C0208693C0208FD3C02087A3C020831
:103F4000833C0208C03C0208D73C0208411B002009
:103F5000E63C0208F4050020001E00202526002073
:103F6000431B002010B5FFF71BFF0BF0FDF8144BAF
:103F70001B785B0613D50AF07FFD02F053FEFFF7B6
:103F8000D7FD03F0A1FD08F035FB0021084608F03D
:103F9000D1F800220B4B1A700B4B0C4A1A600C4CD8
:103FA0002378102B05D10B4802F008FF08B101233C
:103FB000237002F0FDFFBDE8104003F027BF00BFF3
:103FC000542A0020EB050020541D0020203C02084C
:103FD000431B0020263C020801480AF0BDBB00BF7D
:103FE000421B002010B5044614F9011B19B1024808
:103FF000FFF79AFDF8E710BD441200200148FFF7D3
:10400000F1BF00BF0B3D02080148FFF7EBBF00BF47
:10401000043D020810B50C46FFF7E4FF2146BDE859
:1040200010400148FCF7A2BB4412002010B50C461A
:10403000FFF7D8FF2146BDE810400A220148FCF7EF
:10404000FBBB00BF4412002010B50C46FFF7CAFFAF
:104050002146BDE810400A220148FCF700BC00BF21
:104060004412002013B50C46FFF7BCFF20460CF0AD
:1040700041F802230246009302480B46FCF7C8FCB5
:1040800002B010BD4412002010B50C46FFF7AAFF85
:104090002146BDE810400A220148FCF7F7BB00BFEB
:1040A00044120020034A044B002814BF104618464F
:1040B000FFF798BF6141020851400208F8B5069C1D
:1040C00007460E46154613B11846FFF78BFF3968B1
:1040D0000A48FFF7C7FF31680948FFF7C3FF29689F
:1040E0000848FFF7BFFF24B12046BDE8F840FFF7BE
:1040F00079BF0A210448FFF717FDF8BDAF3B02085E
:10410000B63B0208BD3B02084412002010B504462D
:10411000322C06D93220323CFEF77AFF08F046FBFB
:10412000F6E72046FEF774FFBDE8104008F03EBBFE
:1041300038B5094C25882DB2002D0CD0CCBF0121FB
:10414000002107F0E7FC2388002DCCBF03F1FF33EB
:1041500001331BB2238038BD481B0020012303FA22
:1041600000F010B5C0B20C4604F0CEF848B9054ACC
:10417000A1B213880B441380034B1A88114409B26F
:10418000198010BD461B0020481B00200A4610B5B0
:10419000074B044603EB8003596910680CF042FC9E
:1041A0000CF01CFE01B22046BDE81040FFF7D6BF60
:1041B0009023002038B505460BF08FF904460649D8
:1041C00028460BF0C0FB284600210BF07BF984F059
:1041D0000100C0B238BD00BFFFFF0F0010B504469C
:1041E00081F001010BF06EF92046BDE8104000217E
:1041F0000BF0A9BBF8B50D4617461E46002800F087
:104200009E805648FFF7EEFE58215548FFF78CFC7C
:104210005448FFF7E7FE54480BF05DFC04460028C5
:1042200000F08B805148FFF7DDFE012C00F0838009
:104230004F48504B022C18BF1846FFF7D3FE0A21F7
:104240004748FFF771FC003418BF01241DB34348F1
:10425000FFF7C8FE59214248FFF766FC4148FFF7C7
:10426000C1FE45480BF037FC054600286BD03F489F
:10427000FFF7B8FE012D64D03D483E4B022D18BF1C
:104280001846FFF7AFFE002D18BF01340A2134484D
:10429000FFF74AFCE4B21FB33048FFF7A3FE5A21F0
:1042A0002F48FFF741FC2F48FFF79CFE33480BF0E7
:1042B00012FC054600284AD02C48FFF793FE012D3A
:1042C00043D02B482B4B022D18BF1846FFF78AFE10
:1042D000002D18BF01340A212148FFF725FCE4B264
:1042E00016B31E48FFF77EFE45211D48FFF71CFC54
:1042F0001C48FFF777FE22480BF0EDFB054650B354
:104300001A48FFF76FFE012D23D01948194B022DD3
:1043100018BF1846FFF766FE002D18BF01340A21AA
:104320000F48FFF701FCE4B2BCB1BDE8F840002142
:10433000144803F0AABB14487FE70E487DE7044603
:1043400084E711489DE70B489BE70F48BEE7094803
:10435000BCE70D48DEE70748DCE7F8BD1D3D020875
:1043600044120020263D0208B4240020363D0208F5
:10437000193D0208113D02080425002054250020A3
:1043800064240020423D0208143D02084138C3B2B3
:10439000192B2FD8184A1068D84010F001002AD0E5
:1043A000164A1748D25C1AB3164B19688B188A56EE
:1043B000A2F13001C9B2092906D92E2A07D15A78AB
:1043C000303A092A88BF00230360012070472D2A54
:1043D00001D02B2A0AD193F90110A1F13002D2B2F7
:1043E000092AF1D92E2901D19A78E9E70023EBE7D0
:1043F0000260EAE700207047841B0020661B002053
:10440000881B0020601B002008B5FFF7BFFF20B10C
:10441000024B1868003018BF012008BD881B00201F
:10442000034B186818B10A22002119F0A3BD704788
:10443000881B00201FB5032003F082FFD0B903F0D2
:104440007BFD0D4B0D4C9A680D4B4FF4FA702360B9
:104450006360A260FFF75AFE94E803000023019313
:1044600002AB83E80300184601A903F001FE022015
:1044700004F096F804B010BDF4050020F01D0020F3
:104480000000DC422DE9F341524B1B7803F0070397
:10449000072B15D14F20FFF7B7FF00287ED04E4BDA
:1044A0001B68002B7FD0FFF7BBFF002808DBFFF75E
:1044B000B7FFFF2877DCFFF7B3FF10F0FF0F72D1D3
:1044C00004F0FEFC0022454B5A70454B1A68454BE0
:1044D0001A6003F023FE012003F0B8FB5A20FFF717
:1044E00055FF0546002861D0012003F00DFF064668
:1044F000022003F009FF041C18BF0124002E65D11F
:104500005820FFF743FF002860D1002C50D15920DC
:10451000FFF73CFFA042064602D1A5424BD02646FB
:104520005220FFF771FF00284CD02B4B1868002851
:104530004AD00246904612F9017B37F020013ED066
:10454000452F01D0652FF5D1002188F8001018689B
:1045500019F030FC88F80070002101900CF0F6FB97
:1045600040B90CB906B985B101220023114601A852
:1045700003F098FD14B1002004F012F816B10120E8
:1045800004F00EF80DB1FFF755FF03F0D5FC03F072
:1045900013FB03F0CDFD03F0B7FC04E04F20FFF761
:1045A000F5FE00288CD002B0BDE8F0810446A7E7F4
:1045B00026460446B4E7012426462546B0E719F00E
:1045C000F9FBC9E70848C7E70020C5E7002CA4D1DC
:1045D00001249CE7E21D0020881B00200C0600201F
:1045E000942B00204C1B00200000A04038B50D4B40
:1045F0001868A8B10246154612F9014B34F02001A3
:104600000AD0452C01D0652CF5D1002129701868FD
:1046100019F0D0FB2C7038BDBDE8384019F0CABB8A
:104620000020F8E7881B0020F8B501F07FF8071E8E
:1046300047DB244E44203478FFF7E6FE054610B3EE
:10464000FFF7D4FF002104460CF080FB28B10024C2
:104650003470BDE8F84004F089BB1B4B002143F8DF
:10466000274020460CF09AFB60B14FF07C51204669
:104670000CF0D8F901460CF0D5F914490CF0D2F938
:10468000134B18602C465320FFF7BEFE98B1114B18
:104690001B680BB90124DBE7FFF7C2FE0028D6DB5D
:1046A000FFF7BEFEFF28F5DCFFF7BAFEC0B2041C20
:1046B00018BF0124CCE75320FFF768FE0028C7D0BD
:1046C000E8E7F8BD651B002044230020DB0F4940CC
:1046D00038060020881B002038B501F027F8002894
:1046E0000FDB0024074BE5B21857FFF74FFE28B148
:1046F000FFF77CFF0146284605F008FB0134042C37
:10470000F0D138BD573D020838B501F00FF8002848
:104710000FDB0024074BE5B21857FFF737FE28B12F
:10472000FFF764FF0146284605F0FEFA0134042C29
:10473000F0D138BD573D020810B51E4B1E4A1B680C
:104740001A422ED04220FFF721FE40B11B4B1868C1
:1047500018B10A22002119F0C9FC194B1861532025
:10476000FFF714FE18B1FFF741FF154B18645420F2
:10477000FFF70CFE18B1FFF739FF114B58644A20C0
:10478000FFF704FE68B1FFF731FF0E4904460CF055
:10479000FBFA38B10C4920460CF0ECFA10B10B4B87
:1047A0001C6010BDFFF730FCBDE810400848FFF763
:1047B00019BC00BF841B002002020C00881B0020D3
:1047C000902300200AD7233C9A99993E6023002029
:1047D0006E3D020810B51D4B1B6813F4682F12D1F3
:1047E0001B4C1C48616BFFF73DFCA16B1A48FFF79F
:1047F00039FCE16B1948FFF735FCBDE810400A2190
:104800001748FBF797BE5320FFF7FEFD20B1FFF7D7
:10481000EDFE0F4B5863D8635020FFF7F5FD18B13C
:10482000FFF7E4FE0A4B58635220FFF7EDFD18B185
:10483000FFF7DCFE064B98635420FFF7E5FD18B147
:10484000FFF7D4FE024BD86310BD00BF841B0020CD
:10485000902300205B3D02086B3D0208AC3B020840
:104860004412002010B5244C23685B031DD5234B54
:1048700023499A7C002A3BD0224B18688318825621
:10488000A2F13000C0B2092806D92E2A1FD15A78C9
:10489000303A092A88BF00230B60086828B10A2231
:1048A000002119F067FB184B1880236813BB164BC7
:1048B0001648B3F90010FFF7B9FB25211448FBF7A0
:1048C00039FEBDE810400A211148FBF733BE2D2AFE
:1048D00001D02B2A0AD193F90100A0F13002D2B203
:1048E000092AD9D92E2801D19A78D1E70023D3E714
:1048F0000A60D2E710BD00BF841B0020661B0020A9
:10490000881B0020601B0020080600208D3D020847
:104910004412002038B500F009FF041E5DDB2F4B68
:104920002F4D1B6813F4802F17D02E4B2E499A7CE5
:10493000002A3CD02D4B186883188256A2F1300013
:10494000C0B2092806D92E2A20D15A78303A092A2D
:1049500088BF00230B60086858BBFFF74FFB452159
:104960002348FFF7E1F804F130012148FFF7DCF8B4
:1049700035F914101F48FFF759FB25211C48FFF794
:10498000D3F80A211A48FFF7CFF826E02D2A01D0E4
:104990002B2A0AD193F90100A0F13002D2B2092AE0
:1049A000D8D92E2801D19A78D0E70023D2E70A601F
:1049B000D1E70A22002119F0DDFA00B225F814002F
:1049C0000BF0DCFF0C490CF02DF80C4B53F82410C5
:1049D0000CF028F80A4B43F8240038BD841B002053
:1049E00034060020661B0020881B0020601B00206E
:1049F00044120020913D02080AD7233C6423002082
:104A00003C06002010B54520FFF7C0FC002837D138
:104A10005020FFF7BBFC264C10B1FFF7E7FDE0602C
:104A20004920FFF7B3FC28B1FFF7E0FD21490BF067
:104A3000F9FF20614420FFF7A9FC28B1FFF7D6FD5C
:104A40001C490CF0A3F86061FFF7D8FAE1681A4836
:104A5000FFF708FB206917490CF098F80146174842
:104A6000FFF700FB606913490BF0DCFF01461448B7
:104A7000FFF7F8FABDE810400A211248FBF75ABDCB
:104A8000114B1B68002BC3D0FFF7CAFC0028BFDB0B
:104A9000FFF7C6FCFF2804DCFFF7C2FC10F0FF0F95
:104AA000B6D0FFF7B1FABDE810400848FFF79ABA50
:104AB000A42500200AD7233E993D02089D3D020807
:104AC000A13D020844120020881B0020A53D0208D9
:104AD00070B55320FFF75AFC0546F0B12F4B18680C
:104AE00000283AD00246164612F9014B34F0200154
:104AF00030D0452C01D0652CF5D1002131701868DB
:104B000019F058F934700CF069F9254B00B218808F
:104B1000B0FA80F0234B400918705020FFF736FCA4
:104B20000446F0B11E4BB3F9003083B11B4B1B6838
:104B30006BB1FFF775FC002811DBFFF771FCFF2854
:104B400005DCFFF76DFCC0B2041C18BF0124154B37
:104B50001C7070BD19F02EF9D5E70020D3E70024B2
:104B6000F5E7002DF5D1FFF749FA0F48FFF73AFABC
:104B70000C4B0E4A18780E4B002814BF10461846EE
:104B8000FFF730FA064B0B48B3F90010FFF74EFA67
:104B9000BDE870400848FFF725BA00BF881B002019
:104BA0004E060020E4250020BB3D0208FB4302081E
:104BB000B73D0208CE3D0208DF3D020810B5C0B186
:104BC000FFF71CFA0D4C0E486169FFF74BFAA1691B
:104BD0000C48FFF747FAE1690B48FFF743FA216AEF
:104BE0000A48FFF73FFABDE810400A210848FBF7E2
:104BF000A1BC20210648FBF79DFCE3E790230020A1
:104C0000E33D0208B63B0208BD3B0208A93B02088F
:104C1000441200202DE9F04100F088FD011E3EDB2A
:104C2000204B214A1B681A4204D1BDE8F041012003
:104C3000FFF7C4BF00251D4B5857FFF7A7FB08B36C
:104C40001B4B1B68F3B1032D1A4C22D1FFF7CEFC8E
:104C5000194906460CF084F898B13146206A0BF0E9
:104C600095FF01468046206B0BF0DCFE134F20635E
:104C7000F8680BF07FFE41460BF0D4FE0CF0D4F840
:104C8000F86026620135042DD5D1BDE8F04105F06C
:104C90001DB8FFF7ABFC04EB85046061F2E7BDE8EB
:104CA000F08100BF841B002010008003EA3D020851
:104CB000881B0020902300200000A04170230020CA
:104CC0000022014B1A707047EB05002001220021E1
:104CD0000148FEF7C9BF00BF8C3B0208FEF728BFA2
:104CE00070B55320FFF752FB204D28B15320FFF73A
:104CF0004DFB20BB00202870FFF780F91C48FFF710
:104D000071F92B786BB3002423462A78E240D2074E
:104D10000CD55E1CF6B21BB12C211648FBF70AFC21
:104D2000154B53F82400FFF75DF933460134052C89
:104D3000EBD1BDE870400A210E48FBF7FBBB0F4BDF
:104D40001B68002BD6D0FFF76BFB0028D2DBFFF7E8
:104D500067FBFF2803DCFFF763FBC0B2CBE7FF2054
:104D6000C9E70748FFF73EF9E3E700BF441B00200F
:104D7000EE3D020844120020203E0208881B00205D
:104D8000F53D0208012002F03BBF002002F038BFD1
:104D900008B51F4B1F491B68194031D05820FFF739
:104DA000F5FA48B11C4BD3F8802093F88C104FF4DF
:104DB000803312688B4013615920FFF7E7FA48B13E
:104DC000154BD3F8102193F81C114FF4803312685F
:104DD0008B4013615A20FFF7D9FA48B10E4BD3F834
:104DE000202293F82C124FF4803312688B40136109
:104DF0004520FFF7CBFA50B1BDE80840FEF7A4BE4E
:104E0000064802F042FEBDE80840FEF7ABBE08BD12
:104E1000841B002010008003C0360208343E0208C4
:104E200038B55320FFF7B2FA10B3364B1868F8B113
:104E3000354A1168354A11600246154612F9014B90
:104E400034F0200111D0452C01D0652CF5D1002182
:104E50002970186818F0AEFF2C702D490BF0E2FD98
:104E60000BF0E2FF2B4B186038BD18F0A3FFF4E7FE
:104E7000294B2A4A1B681A4240D004F021F85820D6
:104E8000FFF784FA68B1264BD3F8802093F88C1092
:104E9000012312688B401361224A137823F0010327
:104EA00013705920FFF772FA68B11D4BD3F8102127
:104EB00093F81C11012312688B401361194A13786F
:104EC00023F0020313705A20FFF760FA68B1144B05
:104ED000D3F8202293F82C12012312688B4013611F
:104EE000104A137823F0040313704520FFF74EFA9D
:104EF0000028B9D0BDE83840FEF754BEBDE83840C0
:104F000003F0B8BF881B0020942B00204C1B00200E
:104F100000007A44EC050020841B00201000800370
:104F2000C0360208E31D00202DE9F043444D454CF6
:104F30002F6889B0394660680BF06CFCD4F8089093
:104F40006E680290314648460BF064FCD4F80C8041
:104F5000AD680390294640460BF05CFC394604904E
:104F600020690BF057FCD4F8149005903146484660
:104F70000BF050FCD4F818802946069040460BF000
:104F800049FC0790FFF73AF82F48FFF72BF82F4B13
:104F90001B685B0321D52E4B2E499A7C002A43D0F7
:104FA0002D4B186883188256A2F13000C0B2092830
:104FB00006D92E2A27D15A78303A092A88BF0023E9
:104FC0000B600B683BB1FFF72BFA002835DBFFF7CE
:104FD00027FAFF282ADD012020702078FFF762F8E9
:104FE0001E4B04AA009303A902A81D4BFFF766F805
:104FF000002307AA009306A91A4B05A8FFF75EF83D
:1050000009B0BDE8F0832D2A01D02B2A0AD193F9EB
:105010000100A0F13002D2B2092AD1D92E2801D143
:105020009A78C9E70023CBE70A60CAE7FFF7F8F9E7
:10503000C0B2003018BF0120CEE70020CCE700BF8F
:10504000181E00200C0600203D3E0208841B002094
:10505000661B0020881B0020601B0020DB46020826
:105060004D3E0208553E020803F02ABF08B507F07E
:10507000C1FA02F029FD03F0FDFE0021084607F009
:1050800059F84FF47A70FFF741F8BDE80840002165
:10509000014802F0FABC00BF5D3E020838B5284B5B
:1050A0001B685B0333D5274B274A997C002940D0E6
:1050B000264B186843184156A1F13000C0B20928A8
:1050C00006D92E2924D159783039092988BF0023DF
:1050D00013601F4B106819681E4B196070B30346AC
:1050E0001D4613F9014B34F0200124D0452C01D08A
:1050F000652CF5D100212970106818F05BFE2C702A
:1051000015490BF08FFC0BF08FFE144B186038BD67
:105110002D2901D02B290AD193F90100A0F13001EA
:10512000C9B20929D4D92E2801D19978CCE7002316
:10513000CEE71160CDE718F03DFEE1E70020DFE7A4
:10514000841B0020661B0020881B0020601B0020A1
:10515000942B00204C1B002000007A44541B00209C
:1051600008B51D4B1B685B0304D40020BDE8084054
:10517000FDF7B0BF194B1A499A7C52B3194B186806
:1051800083188256A2F13000C0B2092806D92E2A0F
:105190000ED15A78303A092A88BF00230B6008687C
:1051A0000028E2D00A22002118F0E4FE00B2DDE778
:1051B0002D2A01D02B2A0AD193F90100A0F1300247
:1051C000D2B2092AEAD92E2801D19A78E2E700233F
:1051D000E4E70A60E3E700BF841B0020661B0020B1
:1051E000881B0020601B0020012208B5104B5320B3
:1051F0001A70FFF7CBF8A0B10E4B1B688BB1FFF70D
:105200000FF9002803DABDE8084001F01FBFFFF7DF
:1052100007F9FF2804DCFFF703F910F0FF0FF2D0C5
:1052200008BD5320FFF7B2F80028ECD0F8E700BF24
:10523000431B0020881B0020034B00211A68034BEE
:10524000C0B21A6008F08EB9942B00204C1B0020CD
:1052500004F000BE05F06ABF05F0BAB810B55320DF
:10526000FFF794F80446B8B10F4B1B68A3B1FFF7E2
:10527000D7F8002815DBFFF7D3F8FF2805DCFFF788
:10528000CFF8C0B2041C18BF012484F00100C0B2E2
:10529000BDE8104005F01AB95320FFF777F8012454
:1052A000F3E70024F1E700BF881B002008B505F0F4
:1052B00031FF30B1FEF7A2FEBDE808400148FEF71D
:1052C00091BE08BD6A3E020837B50024012501944D
:1052D0001F4B1857FFF75AF818B10122002501ABF0
:1052E000E2540134042CF3D145B101238DF804308C
:1052F0008DF805308DF806308DF807304920FFF71E
:1053000045F8F8B1134B1B68E3B1FFF789F80028A3
:1053100005DBFFF785F8FF280EDD06F085FC9DF81C
:1053200007309DF806209DF805109DF8040003B095
:10533000BDE83040FEF75EBFFFF772F810F0FF0FD8
:10534000EBD1ECE74920FFF721F80028E7D0E4E7AC
:10535000753E0208881B002008B5FFF761F8002899
:1053600007DBFFF75DF8FF2805DCFFF759F8C0B24F
:1053700008BD0020FCE7FF20FAE700002DE9F0411E
:105380005320FFF703F8054600283CD0474E32680B
:1053900022B1FFF7E1FF051C18BF012500F0C6F997
:1053A00080464920FEF7F2FF18B1346814B1FFF7C8
:1053B000D3FF044600263E4BF7B29857FEF7E6FFB0
:1053C00070B1022F15D0032F17D0012F0DD03CB98B
:1053D000384885F0010180F84A50C9B20AF072F8E5
:1053E0000136042EE7D1BDE8F081002CF8D1324817
:1053F000EFE7002CF4D13148EBE7B8F1000FF2DB16
:10540000EED12F48E5E758212E48FEF78DFB2E48B8
:10541000FEF7E8FD27480AF060F82C4D2C4C0028D8
:105420000CBF28462046FEF7DDFD0A212548FEF781
:105430007BFB59212348FEF777FB2348FEF7D2FD7B
:105440001D480AF04AF800280CBF28462046FEF7FF
:10545000C9FD0A211B48FEF767FB5A211948FEF7D0
:1054600063FB1948FEF7BEFD14480AF036F8002821
:105470000CBF28462046FEF7B5FD0A211148FEF76D
:1054800053FB45210F48FEF74FFB0F48FEF7AAFDDF
:105490000B480AF022F800280CBF28462046FEF7E9
:1054A000A1FD0A210748FEF73FFB9CE7881B00206F
:1054B000793E0208B4240020042500205425002051
:1054C0006424002044120020953E02087D3E02081C
:1054D000893E02082DE9F0414920FEF795FF00BB07
:1054E0000026002701253F4B5FFA87F8D857FEF7C3
:1054F0008BFF10B1FEF794FF00B284B294B3B8F101
:10550000020F20D0B8F1030F21D0B8F1010F16D04F
:105510002EB93548A0F8484021460AF065FA002522
:1055200020E0FEF77DFF0028DADBFEF779FFFF2899
:1055300003DCFEF775FFC6B2D3E7FF26D1E7002EE6
:10554000EDD12A48E6E7002EE9D12948E2E700F04C
:10555000EDF8051E43DBE2D126482146A0F848407D
:105560000AF042FA0137042FBDD1002D37D058215F
:105570002148FEF7D9FA1C4B2048B3F84810FEF733
:1055800055FD0A211C48FEF7CFFA59211A48FEF7AB
:10559000CBFA164B1948B3F84810FEF747FD0A211D
:1055A0001548FEF7C1FA5A211348FEF7BDFA104B11
:1055B0001248B3F84810FEF739FD0A210E48FEF7ED
:1055C000B3FA45210C48FEF7AFFA0A4B0B48B3F883
:1055D0004810FEF72BFD0A210748FEF7A5FABDE8A3
:1055E000F08100BFA43E0208B4240020042500205E
:1055F000542500206424002044120020A83E020804
:10560000F8B54920FEF7C2FE00284DD1002500263E
:105610000124F7B207F1580040B2FEF7B7FE78B1A7
:10562000FEF7FEFE012F01B250D0022F55D0012D02
:1056300005D881F308012D48C9B20AF079F9002490
:105640000136032EE5D1002C4ED058212848FAF718
:1056500071FF2848FEF7C6FC24480AF071F90A22B7
:1056600001462348FBF7F1F859212148FAF762FF78
:105670002048FEF7B7FC20480AF062F90A220146EA
:105680001B48FBF7E2F85A211948FAF753FF19486B
:10569000FEF7A8FC19480AF053F9BDE8F8400146A6
:1056A0000A221348FBF7D1B8154B1B68002BADD06D
:1056B000FEF7B6FE0028A9DBFEF7B2FEFF2803DCEA
:1056C000FEF7AEFEC5B2A2E7FF25A0E7012DB6D8D2
:1056D00081F30801C9B20848AFE7012DAFD881F3C3
:1056E0000801C9B20548A8E7F8BD00BFB4240020EE
:1056F00044120020BA3E0208042500205425002050
:10570000881B0020084B03281B7804D113F02002CB
:1057100005D1D90605D4C34003F00100704701202C
:1057200070471046704700BF4B1B002010B5542037
:10573000FEF76AFE48B3FEF773FE002821DBFEF792
:105740006FFEFF281FDCFEF76BFEC0B244B2002CD8
:1057500015DDFEF753FC4D210D48FEF7E5F90D4B25
:105760000A2219680A48FBF767F821460A48FEF73B
:105770005DFC0A210648FEF7D7F94FF0FF342046BA
:1057800010BD0020E2E7FF20E0E70446F7E700BF96
:1057900044120020801B0020113F02082DE9F04137
:1057A00000245FFA84F808F1580040B2FEF72CFE9E
:1057B000A600244D00283AD0FEF718FF07464046C1
:1057C000FFF7A0FF68B3204B384699590BF022F839
:1057D000A8510134032CE4D14520FEF715FE60B337
:1057E000FEF704FF06462046FFF78CFF28B1164B54
:1057F0003046D9680BF00EF80646EE604620FEF7FC
:1058000003FE60B1FEF7F2FE00210BF0C7FA30B1E3
:10581000FEF7ECFE0D490BF0B9F90D4B1860BDE831
:10582000F0810C4B384699590AF0F2FFD0E7064B4D
:1058300053F8243045F82430CBE7034BDB68EB60AA
:10584000DCE700BFF01D0020F405002000007042DE
:1058500004060020181E002038B5054C25680544B4
:1058600023685B1B002B02DAFEF79AFAF8E738BDD3
:10587000942B0020012370B5D14E054696F90040C7
:105880003370D04B93F900304D2B3AD0542B00F0AD
:105890002582472B17D1CC4B1868042824D00BDC69
:1058A000002810DB012819DC00F058FD002D40F025
:1058B0008F8001F065FB8BE05A281BD007DC152890
:1058C000F4D01C2813D0C14801F08EF9EEE75B2814
:1058D00014D05C28F7D100F09FFAE7E7831E584206
:1058E000584100F025FFE1E700F0F0FFDEE7FEF7AA
:1058F000C9FDDBE70022B64B1A70D7E7B44B0F2285
:10590000FAE7B14B1B68752B00F0A98100F3828088
:105910004D2B00F0718138DC1A2B00F04E811BDC1E
:10592000152B00F03E810ADC122B00F08F81142B26
:1059300000F03481112BC6D1FFF72AFAB6E7172BF6
:1059400000F03581C0F23081182B00F03381192B23
:10595000B9D101F003FDA9E71E2B00F0418107DC5E
:105960001C2B00F03A8140F3358101F099FD9DE751
:10597000202B00F03881C0F239814B2B00F03981A7
:105980004C2BA0D101F082FE90E76A2B00F03D8104
:1059900020DC542B00F05A8109DC522B00F050819E
:1059A00000F35181512B8ED1FFF760FB7EE75C2B1A
:1059B00000F04F8104DC552B85D1FFF76FFB75E7B5
:1059C000682B00F01C81692B7FF47DAF01F0CAFECB
:1059D000347070BD6F2B00F01E810DDC6C2B00F05D
:1059E0001D81C0F215816D2B00F00C816E2B7FF4B0
:1059F0006AAF00F00FFB59E7712B00F01881C0F27D
:105A00001081722B00F02881732B7FF45CAF00F0C3
:105A1000BDFB4BE740F22D12934200F03E81B3F5FF
:105A2000977F4DDAC82B00F026811EDC792B00F021
:105A30001F8107DC772B00F0188140F31381FFF7FB
:105A4000A1F933E78C2B00F0F58005DC7A2B7FF48D
:105A50003AAFFFF739FC29E79B2B00F0EE80BE2B15
:105A60007FF431AF01F0E4FE20E7CE2B00F00C8193
:105A700012DCCB2B00F0028105DCC92B7FF423AFB5
:105A8000FEF72AFE12E7CC2B00F0FB80CD2B7FF433
:105A90001AAFFEF751FE09E7DC2B00F0F88005DCB9
:105AA000D32B7FF410AFFFF73FFAFFE6DD2B00F0BA
:105AB000F180B3F5917F7FF406AF00F049FFF5E682
:105AC00040F2F712934200F0F780B3F5FC7F2CDA36
:105AD000B3F5CD7F00F0A8800FDC40F22F12934287
