:020000040800F2
:2000000000500020DD290008691A0008691A0008691A0008691A0008691A0008691A000820
:20002000691A0008691A0008691A0008691A0008691A0008691A0008691A0008B121000819
:20004000691A0008691A0008691A0008691A0008691A0008691A0008691A0008691A000848
:20006000691A0008691A0008691A0008691A0008691A0008691A0008691A0008691A000828
:20008000691A0008691A0008691A0008691A0008691A0008691A0008691A0008691A000808
:2000A000691A0008691A0008691A0008691A0008691A0008691A0008691A0008691A0008E8
:2000C000691A0008691A0008691A0008691A0008691A00087119000810B4D0E90614CA680E
:2000E00083686240CA6090F8301081F00102C90754BFC168016980F8302052070B4403D450
:20010000836010BC012070474269991A0029F7DB1346034A8360426010BC0120704700BF71
:20012000DD020008704700BF10B4D0E900348268EFF3108172B6DBB2012B0CD0022B05D095
:20014000D2B2227081F3108810BC7047226081F3108810BC704792B2228081F3108810BC2B
:20016000704700BFF0B40D4A03780D4D5C1C1268E3B22E7802EBC30205E0174652F8085B6B
:200180005C1C8D4205D0E3B29E42F6D80020F0BC704703707868F0BC704700BF5C0000208C
:2001A000580000200D4B1988B1B130B40C4A0D4B01391568187807D000222B1801321C1AEE
:2001C0008A4223600344F9D1002201FB00F1064B6A501D6030BC7047704700BF4A000020A5
:2001E00054000020500000204C0000200020704730B400240749084B8868084D00F5DB0216
:200200000344074802F5BA420460AB60012030BC8A6070471000002000DD6D801C00002002
:20022000AC010020034600B5D3E9001283B0684602F00EFF03B05DF804FB00BF08B501467B
:2002400072B6014803F0A2FC60000020036B70B573B9B0F91010C368826B5B1A934203D25D
:2002600090F83C309C0629D500234361184670BD5C68B3F9086082691D6822443444C4604E
:20028000541A82610563068258BF826019D45A89C46A51004161197BC90707D42244C2626A
:2002A0000C4A012011681360196070BDD0E90956E968121B7140C262E960F1E71A20FFF779
:2002C000BDFF054A9442A8BF8160E0DA1920FFF7B5FF00BF4C000020C0E6FEFF816AF8B5F2
:2002E000002900F08D80034688680C68474E002818BF0125D3E906E208BF00259C62D6F815
:2003000000C03AD11204CEF810203160C1F800C0B0FA80F693F83020760982F01001C1F34B
:2003200000118E421FD0196AE9B19E6845F004053144002C50D193F83020596102F0100231
:200340002A4383F83020AA0705F0040456D50644002C51D15F6A2E493F1AC3E902601F61CD
:2003600059600120F8BD02F0100252B2ECB92A4383F8302020465C61F8BD5F6A316087420E
:20038000CEF81020C1F800C0C2D9196AF9B993F8302002F0100252B25CBB996842F00302EC
:2003A00083F830205C614618D5E745F004056EB200256468324383F830205C6125B19A6877
:2003C0008618311B0029C5DB9C600120F8BD9E6807253144002CAED06468091B002912DB41
:2003E00093F830106EB201F010014AB205F00205E0E702250726DCE70C46E2E70C46E3E703
:200400001620FFF71BFF1420FFF718FF4C000020D900000808B51220FFF710FF08B50E2029
:20042000FFF70CFF054A08B5136823B1022B1CBF0023136008BD0220FFF700FFA80100201D
:2004400008B50820FFF7FAFE08B5084B1B78834209D9074B1B6853F8302003EBC0038A4292
:2004600001D1586808BD0C20FFF7E8FE580000205C00002010B504460A490078FFF7E4FF76
:20048000626872B6436953B990F83C30826123F0500343F0100380F83C3062B610BD17202F
:2004A000FFF7CCFE7906000810B5044609490078FFF7CAFF6368002B0CBF0023022372B62C
:2004C00090F83C2022F00202134380F83C3062B610BD00BF7906000810B5074904460078E6
:2004E000FFF7B2FF72B6836A1BB96368436262B610BD1520FFF7A2FEFD06000808B5EFF3A2
:20050000108272B6054B186820B10168196082F3108808BD0F20FFF791FE00BF4C000020ED
:2005200038B50A4D0A4B2C6822189A420BD8C31C23F0030323440246002120462B6003F0E9
:20054000D5FA204638BD1120FFF778FE2C000020004E0020F8B5174E338843BB164B0746A1
:200560001C78032C02D8042214461A70134A00231068134D01460A19AA4211D80133B3F561
:20058000806F1146F7D11C46101AFFF7C9FF0D4B34801860FFF706FE3A680B4B1A60F8BD5E
:2005A00013B19CB20A46EFE71020FFF747FE0D20FFF744FE4A000020500000202C0000200D
:2005C000004E0020540000203000002038B5074C236843B90568E8B2C000FFF7A1FF044B76
:2005E00020601D7038BD0A20FFF728FE5C0000205800002038B50C4B1B78834210D90B4BE4
:200600001B6853F8304003EBC0054CB9084C248834B943F830101046FFF782FF686038BDF2
:200620000B20FFF70BFE00BF580000205C0000204A000020F0B5C76883B0FAB2093204463B
:2006400092000C490078FFF7D5FFD4E901126E460546304602F0BCFC96E80300012205F1E8
:200660000C0383E8030085F8217085F8222003B0F0BD00BF3506000870B50646402282B0C9
:2006800000781B49FFF7B6FF326904465ABB13466D4684F83C302846716802F0D9FC95E85A
:2006A000030004F11C0383E8030000222846B16802F0CEFC95E8030000234FF0404504F1F4
:2006C000240282E803000B4AF1681288A163E562C4E90C3352B9084B1A780F2A9CBF102252
:2006E0001A7002B070BD04221346D1E7FFF796FE790600084A0000205000002030B583B057
:200700006D46044682684168003218BF0122284602F09EFC342214492078FFF76BFF03462F
:2007200095E8030003F1180282E80300D4E90221003218BF012211B142F0100252B2002187
:200740000A4D83F8302020692A881862C3E90A113AB9074B1A780B2A9CBF0C221A7003B029
:2007600030BDFFF75BFE00BFFD0600084A000020500000200FB42DE9F04F874F85B03A78C4
:20078000D2B222B105B0BDE8F04F04B070470123824C3B7021780FABC9B2039399460B46CD
:2007A0007F490E78F6B2B34203D30A701646134622700E9A5578AA19602A0AD9D31A602B9A
:2007C00040F2C28000233B7005B0BDE8F04F04B07047744B0193019BE91E03EB060B052DAC
:2007E0000BEB010440F287800E9B0BF1030093F802805D681B78A8448BF80230454574D049
:20080000A04200F2C58015F8013B072B00F2C080DFE803F02F2F2F2F2F1804044B4653F871
:20082000082BA4EB000A924528BF924680F800A0D9F804109946431C5246184603F07EF8BC
:200840005044DBE7D9F80010431C0A7809F1040952B1A34202D307E0A34205D003F8012BF4
:2008600011F8012F002AF7D11A1A013A02701846C4E7D9F80030421C03F120017F2909F14D
:2008800004092ED903F5805C811CBCF5804F00914ED3454903F5002E8E4500F1030C4CD9F5
:2008A00003F1806EBEF1805F00F1040163D24FEA535A6AF07F0A964680F800A062460846EA
:2008C0004FEA933C6CF07F0C8EF800C04FEAD31C00996CF07F0C81F800C003F07F0313700A
:2008E0008CE7114602460846F7E7A0EB0B000146C51C0BEB00042D4B019A1B785FFA85F886
:2009000002F8068058468BF8013002F045FB7E235D444644020A2270F6B205F8020C05F8B9
:20092000013C42F2AC02224B1D490E70DA6049E700F1020C00906046C8E700F1020A864630
:20094000009260465246BBE70025154B1D702178C9B21448761A32460144019003F064F876
:200960002570F1B242F2AC02114B0D480170DA600E9B5D782FE78646180F60F07F000EF8A5
:20098000050B1046009ACDF800C08C4671468EE70620FFF753FC00BF480000201D02002003
:2009A0001C020020BC010020FFFF1F000C0000200038014010B504780A492046FFF744FD29
:2009C00072B64369C26AA2EB5302002AB8BF524262B605482146BDE8104002F14042FFF7D4
:2009E000C9BE00BF79060008B8480008034602485A681978FFF7BEBEA8480008D0E90031E8
:200A0000EFF3108272B6DBB2012B0ED0022B06D00978C9B282F310880748FFF7ABBE096878
:200A200082F310880448FFF7A5BE098889B282F310880148FFF79EBEB048000840F64A13FD
:200A4000D0E9001299420DD840F64B13D2B25018984202D9C1F14B02D2B2054B05480B4467
:200A6000FFF788BE024B00220B440248FFF782BEA03B000868480008064A0749074B5268B5
:200A800009681B680648914294BF1946591CFFF771BE00BF001000E0C0000020C400002082
:200AA00090480008024B03485968FFF763BE00BF001000E0984800080A4A00B511680A4B78
:200AC000003118BF01211B88084A83B012680091191C18BF01210648FFF74CFE03B05DF8F5
:200AE00004FB00BFA80100204A00002030000020A048000808B50420FFF7A0FBEFF31081E0
:200B000072B60F4B1A68824203D10DE0834206D01A461368002BF9D181F3108870470368B3
:200B2000136081F31088704710B410689468054A946010601A6081F3108810BC704700BFCC
:200B4000280000200000002038B50446FFF7D6FF00206269E36AA16AA3EB520383EAE37243
:200B6000C2EBE37294F83C30656A03F0040343F0400384F83C3009045B07E262C4E90500EF
:200B8000226AE06929610FD412040261236B53B10648016800E013461A6819601946002A94
:200BA000F9D12263036038BD0261EFE74C00002038B5D0E903210546906895F820200842C5
:200BC00018BFD24302F001026AB995F82320013A12F0FF0211D0A968AC6985F823202144D7
:200BE0000120A96038BD95F822201248E96985F82320C5E90101012038BD042395F82140C0
:200C000085F82030013CE4B2FF2C05EB84020AD0506A0028F6D0013CE4B2FFF795FFFF2C89
:200C200005EB8402F4D10020034B18600122034B1A7038BD410C0008AC0100203800002029
:200C400010B4D0E902329468D0E904121A4490F820300C4218BFDB4303F001031BB18260FA
:200C600010BC01207047034BC261436010BCFFF79FBF00BFB10B00080148FFF73FBF00BF1D
:200C80003C00002070B58468EFF3108572B6184A11688B68E31A002B01DA0AE011460A68C4
:200CA0009368E31A002BF9DA0260086085F3108870BD104B5B68E31A002B12DB0E4B4FF06C
:200CC0008066994208BF196801600021186013609C600A4A0A4B516091605E6085F3108889
:200CE00070BD084B1B68002BE8D10320FFF7A6FA28000020001000E00000002010E000E02C
:200D000000ED00E0A801002038B5364905460078FFF79AFB0446FFF7F1FB6B6843602B892D
:200D20004381002B5AD00022EB680273038172B694F83C3003F00101C3F3400291422CD050
:200D4000017B458983F0010341F00101012D03F0DF0201732AD0636902F0EF01002B2CD159
:200D600012F0400313D1226B84F83C100360002A31D0636B186060634368A16920461944E6
:200D8000FFF764FA2046FFF77DFF62B638BD164B1A681860026062B638BD418903F0DF02B2
:200DA0000129D8D1017B09B9DB06D4D5636942F0200202F0EF01002BD2D00022236B84F89D
:200DC0003C10026023B1636B1860606362B638BDC4E90C00D9E7C4E90C00CDE71820FFF767
:200DE0002DFA00BF790600084C00002038B51E4905460078FFF728FB0446FFF77FFEA36A20
:200E000073BB2A7994F83030002AB2FA82F2D4E9065012BF012100210004286183F0100094
:200E20005209C0F3001003F01003824249B25BB201D0226A1AB90B4384F8303038BD0B4820
:200E400041F0040145680B4309482A4484F83030C4E9010262612046BDE83840FFF712BF09
:200E60001320FFF7EBF900BFFD060008001000E0DD02000870B51D4905460078FFF7E4FAA2
:200E80000446FFF73BFB6E684660AB68836072B60022A36A026023B1E36A1860E06262B6BE
:200EA00070BD94F83030C4E90A005A0716D443F004029B07666184F830200AD42046FFF76F
:200EC0001DFE0B4B2046C4E90136FFF7DBFE62B670BDA3689B1B002BF9DBEFE76269921B35
:200EE000002AE4DA1420FFF7A9F900BFFD060008DD02000838B50546064C2046FFF7FEFDAC
:200F00002A68054B2046C4E90132BDE83840FFF7B9BE00BF3C000020150400082DE9804805
:200F20008DB0504B02AF5A68C7E903234E4B1B68002B40F0FF8101224C494B480B78026069
:200F4000DBB2DBB10022FF2307F12804484D0A7004F8043D29462046FFF704F970B190F853
:200F600020305E07F6D5014697F8240002F078FC29462046FFF7F6F80028F0D13D490B78E6
:200F8000DBB213B30022FF2307F128043A4D3B4E0A7004F8043D29462046FFF7E3F8A0B1D8
:200FA00090F82A2090F82B309A42F4D172B690F82A2090F82B30934200F0368262B62946FA
:200FC0002046FFF7CFF80028EAD12D490B78DBB2002B00F08C800023FF229B4607F1280514
:200FE00005F80D2D0B7027492846FFF7BBF8044600287CD0637FD807F5D572B6637FD4F899
:20100000088023F00103637762B6237F032BEAD8DFE813F0F601A0013C00040007F12803E8
:2010200023F80CBD02220121A06997F81B9002F081FABB8B424693FA93F81FFA88F8CDE9A1
:2010400000B9434604F1140104F1100002F052FA18F0040FC7D00C4B1B68002BC3D11E2078
:20106000FFF7ECF8001000E0AC0100203800002035060008D8000020A92E0008C84800084F
:20108000B001002041260008A80100204FF0010A07F1280949F804AD4B46A069514603228C
:2010A000FE7E02F047FA07237A6ABB8451464B46A06992FA82F9022202F03CFA019697F88A
:2010C00025104FEA1929009142461FFA89F304F1140104F1100002F00DFA19F0010FBAD106
:2010E000B0492846FFF73EF80446002882D1AE4A1378DBB233B30021FF2307F12804AB4D43
:20110000AB4E117004F8043D29462046FFF72AF8C0B1037FFF2BF7D172B6837C002B00F004
:20112000AD81427F027762B6C27E133097F8241000903046FFF71EFB29462046FFF712F8FF
:201140000028E6D19B4A1378DBB22BB30021FF2307F12804984D994E117004F8043D294675
:201160002046FEF7FFFFB8B1037F1907F7D572B6037F23F00803037762B6827F00F12803C8
:2011800097F824103046D208FFF7F4FA29462046FEF7E8FF0028E7D1894A1378DBB2002BB1
:2011A0003FD00021FF2307F12805DFF848B2117005F8083D59462846FEF7D4FF044680B3D2
:2011C000237E5A07F6D5DE0797F8208040F12881FFF794FC02227B4907F12803098822769A
:2011E0003E6923F8041D20690021D6F8049002F0A1F972B63E69E268D6F804A020465244ED
:20120000A260FFF73FFD62B66F4853464A464146FFF7B0FA59462846FEF7A4FF0446002864
:20122000CED14AF6AA22694B1A603B69596872B6674A13685B1A002BB8BF116062B6654BCC
:201240001A78D2B21546002A44D0634E3478E10740F11B81614B7B607E21604802F028FBEA
:2012600028B17B6804F0FE04C01A3470451CA30700F1268144F0020434705948BD60FFF709
:2012800079FA4FF0FF35D7E901A900208046514B1C78E4B2B4EB09060AD000EB0901321A89
:2012A0005144504402F0C0FB30464E4BC3F80080EFF3108272B6474B1B78DBB29C4240F0B2
:2012C000FC80444B1E7082F31088012D02D14448FFF750FA3B69444D444E5C68FB6829681C
:2012E0003268E31A01311A44B3F5803F2960326080F0A68003FB03F3DFF8FC80FF33D8F866
:2013000000C00CEB1323634538BF4FF0FF33DFF8EC903748D9F800A02018A0EB0A00002898
:20132000C8F8003080F299802E4BFC601B68002B3FF401AE3B695A6872B62A4B1B68002B1C
:2013400040F0C28062B63B695B689B1AFA681A44FA60F0E50C2307F1280949F8043D4B468D
:20136000A0690422012197F81BA002F0E3F80F23D7F824C0BB84A0694B46022201219CFA6B
:201380008CF902F0D7F8CDF804A097F8251029F07F430091424604F1140104F1100002F0E5
:2013A000A9F820E641260008DC00002015260008E8480008B8010020C1310008F04800088D
:2013C000D40000209C3B00080849000800300040B4010020A4010020D0000020E4000020E3
:2013E0004C480008AC01002034000020C800002000D68AEAE9250008CC000020C00000201C
:2014000007F1280343F808BD0422A069012197F81B9002F08FF83B6A424693FA83F80EE67C
:20142000414602F035F9C5E6013380F82A304269038B62B697F824103046FFF79BF9AAE5B1
:20144000B3F5801F1CD2DFF8208203F1FF00D8F800C0000A03FB00C355E77B48FFF78AF918
:20146000A24503D9794A1368013313600023C9F80040C8F8003033602B6055E762B643E615
:201480004FF0FF33DFF8E08141E7042A7FF622AF6F490B787960BB60053B3B2B05D891F8CC
:2014A000019029F00F03102B1AD0BB687E2B00F0C68044F001043470CEE682F31088E6E6DF
:2014C000BD604FF0FF35DEE64FF0FF3361490B6062B630BF72B65F4B1B68002BF8D131E7CA
:2014E000B9688A42FFF4F6AE594B013BCB5C7E2BDBD1DFF85CA1A1F10308414650467A61A3
:2015000001F04AFDBB68AAF1020C1AF8081013F80C30D04443EA012383427A69C5D14E4A1B
:2015200024F00204137834704B4540F086805046013303F00F03811C43F01003884513709A
:201540006ED99AF802A0C7F814D00AF1FF333C2B4AD8C41C2146DFF814914FEA4A0B0BEB70
:201560000A0209EB820253780C469B000A3303F4FF63ADEB030D02A80646556892F803C0F1
:20158000AC44AC4513D0A04554D315F8013B042B2DD9072B4ED12178621C5418A04549D328
:2015A0003346AC4543F8081B72601E46EBD12B4B1B6833B10BEB0A0309EB83039B78DA0723
:2015C00030D50BEB0A0309EB83039B689847D7F814D0A04524D994F800A0611C0AF1FF333C
:2015E0003C2BC7F814D0B8D90520FEF727FE2378311D03F06002602A04F1010403F07F0ECF
:2016000008D16EF01F0E05E014F8013B03F07F0242EACE1E1B06F7D4C6F800E00E46B0E738
:20162000012530E60E4B0F481968FFF7A3F8D7F814D0CEE70720FEF701FEBD681DE60123DD
:201640004FF0FF35BB601EE688480008C4000020E4000020AC0100200C000020A801002076
:20166000BC00002078480008CC000020EC440008002445F2555640F6FF754CF6CC40A14AB9
:20168000A149A24B22F0030280B50A60A0491E605C609D601860CA689E4B42F08072CA60BC
:2016A0001A6882B042F001021A605C60EFF3108172B6202607254FF08060974B974A82F8A2
:2016C00023601D605C609C60506081F31088944D284601F04BF9902242F22C01914BAA6019
:2016E0000A20E960012283F8254372215E6001F0F7F922467221092001F0F2F98A48FFF777
:2017000039F872B6894802F03BFA10B962B6FFF705FC72B6864B7F4A1B68D2F804800BB949
:20172000844B1860022500234FF080608249804A824C15600C608D68814A824C1160226034
:2017400095607549754A4B608B6050607E4A02AC1370FEF727FDFF237C4D04F8073D11265D
:201760000EE090F83030D0E9061213F010030BBF12040A610A613346002280F8303082629F
:2017800029462046FEF7EEFC0028EAD1FF2302AD044605F8063D6E4E02E01C63FFF7D4F977
:2017A00031462846FEF7DEFC03460028F5D1FF2302AD684E05F8053D0AE004F1200393E8FB
:2017C000030001F08BF894F82B30002B40F08D8031462846FEF7C6FC04460028EDD1FF2355
:2017E00002AC5D4D04F8043D05E0037CDB0744BFD0E902321A6129462046FEF7B3FC002802
:20180000F3D1FF2325468DF804300446534E05E0431D02792146006801F08CFE31462846E4
:20182000FEF7A0FC0028F3D1FF2302AC4C4D04F8033D07E002698369C668416912041B043B
:2018400032610B6129462046FEF78CFC0028F1D1FF2302AE044606F8023D424F18E0016901
:20186000C56882690904036A296141691204856A0A61C1691B04026B0B61416A2D04836B46
:201880000D61C16A12040A61426B1B041361047239463046FEF766FC0028E0D1FF2302AC83
:2018A000314D04F8013D01E001F06EFD29462046FEF758FC0028F7D1EFF30383C3F30803FC
:2018C00043B14FF080736FF0060208B401A102B41FB510470122164B1A6062B6154B41463F
:2018E0001A682248FEF746FF10E76269E16801330A4484F82A306261A2602046FFF7C2F983
:2019000066E700BF230200202C00002000300040F0ED00E0001000E010E000E000ED00E070
:201920000038014000E100E07048000860000020A8010020BC000020100000201C0000201C
:20194000000000202800002048000020FD06000879060008A92E0008AD3000087D260008B6
:20196000F932000835320008C131000880480008174A30B4136813F0280F07D1190603D532
:20198000134BDA6812060DD430BC704750687E2819D010490A78BF2AF0D80F4D541CA85470
:2019A0000C70EBE70D490E480A780078904206D90C4C501CA25C087030BC5A60704742F2B7
:2019C0002C02DA60E0E70021074A1160E1E700BF00380140A4010020E40000201D020020ED
:2019E0001C020020BC010020AC010020124B984217D9124B124A98424FF0010300F13F4092
:201A000007D900F57E005269800A03FA00F01040704700F57F009269800A03FA00F0104004
:201A200070470123064A00F14040D269800A03FA00F01040704700BFFFFF0040FFFF014015
:201A400000100240BFF34F8F0549064BCA6802F4E0621343CB60BFF34F8F00BFFDE700BF28
:201A600000ED00E00400FA05FEE700BF82B002AB03E90300EFF3108172B6DDE90020D36868
:201A80004340D36081F3108802B070470022037E044943F0040303760A600121024B104649
:201AA00019707047AC010020D400002030B4D0E90324D36815496340D360437F047F013379
:201AC000DBB284F00104012B4A68856804774377016A17D0042B04D82944816030BC012048
:201AE0007047436A521BD21A931C48BF531D01EBA3032A4406491A4482604362416030BC42
:201B000001207047521B4262E6E700BF001000E0151B0008F0B4D0E90321D368476A4B4030
:201B2000D360437F027F0133C67FDBB2D543B34282F0010202772DD200EBD30292F828209D
:201B400003F007010A4105F0010502F001029542394607D017E092F82820224102F0010201
:201B6000954210D10133DBB2B34200EBD30203F007043944EFD38368074A1944C0E9012196
:201B8000F0BC012070478268437711448160F0BC012070473946EEE799340008F0B4817F96
:201BA000044699B14F1E012200210346F8B204F1080707EBC007D3E90805866808332E42CE
:201BC00018BF114350009F42C2B2F4D1227C8A4207D0637C82EA01004B40DB43DBB2034268
:201BE00010D1237F61745AB2002A04DB013BDBB2FF2B1DD02377D4E9023213440120A36092
:201C0000F0BC7047A07C22EA03020B40134307282374E6D80025421CA274094A2044C37488
:201C20001560FF200122074B617420771A70E2E70021034A11600121024A1170DAE700BF8E
:201C4000AC010020DC0000202DE9F04FD0E905BAD0E9097680460D46016A9DB0C369027A3D
:201C60000191C06A06931893019B0290D8F830101993029B0391D8F834001493039B04906C
:201C8000CDE91ABAD8F838101593049B1AAC0591CDE9167694E803001293059B85EA02097F
:201CA0001393FFF7E3FE19F0100F4ED119F0200F52D119F0400F56D119F0800F5AD13D493D
:201CC0000A464868103053681B1A002BFBDB94E803000792FFF7CAFE2901C9B2079A88F837
:201CE000081052683348133243689B1A002BFBDB069BCDE910BA0E93019B10AC0F93029B98
:201D00004D400A93039B94E803000B93049BCDE90C760893059B0993FFF7A8FEE80642D490
:201D2000A9063AD46A062BD42B0630D4214B19465A6810324B689B1A002BFBDB94E803008B
:201D40001DB0BDE8F04FFFF791BE18A903C9FFF78DFE19F0200FACD016A903C9FFF786FEC6
:201D600019F0400FA8D014A903C9FFF77FFE19F0800FA4D012AA92E80300FFF777FE9EE762
:201D80000AAB93E80300FFF771FE2B06CED508AB93E80300FFF76AFEC8E70CAB93E8030064
:201DA000FFF764FEBEE70EAB93E80300FFF75EFEB6E700BF001000E02DE9F04180460068DC
:201DC000D8F8045089B116464B1EDBB20133094CD71816F8011B63681B1AAB42FBD3404670
:201DE000FFF732FFB7426068F3D1C8F80000BDE8F08100BF001000E02DE9F041082584B00A
:201E00006F4600F1140300F10C020DEB05060C4692E8030086E8030093E8030087E80300D3
:201E2000DFF85480230620D4D8F804200E32D8F804309B1A002BFADB96E80300FFF716FE62
:201E4000D8F804200E32D8F804309B1A002BFADB96E80300013D6400FFF708FE15F0FF056D
:201E6000E4B2DFD104B0BDE8F081E44397E80300FFF7FCFDE4B2D7E7001000E02DE9F84F19
:201E8000D0E900A692F800B091460D460BF0F0018046FFF7B1FF194C09F101076368A3EB67
:201EA0000A039E42FAD84FEA0B1101F0F0014046FFF7A2FF012D6468D8F8086019D0AA1E2C
:201EC000D2B202320D4D914417F801AB40460AF0F001FFF791FF6B681B1B9E42FBD84FEA74
:201EE0000A1101F0F0014046FFF786FFB9456C68EAD1C8F80040BDE8F88F00BF001000E07C
:201F00000021084A30B4034611600120D3E90225597F054C01432A44597720709A6030BC8B
:201F2000704700BFAC010020B001002070B50546074E03E07468E41A002C06DA686931EA13
:201F40000004F7D11042F5D170BD2D20FEF776F9001000E0F8B540F201160D4604460660D6
:201F60001746012100221E46FFF7E0FF256115F0010503D0236843F4806323603346002260
:201F800002212046FFF7D2FFEFF3108272B6A36925B1012F04BF40F20121216082F310889E
:201FA000DB0700D5F8BD2C20FEF748F92DE9F04782B002AC04E903002A489DF8041046684D
:201FC00041F0010A06F5AF2606F5C866009D9DF828900B9F6ABB514633464A46284609F10B
:201FE000FF34FFF7B7FFE4B2B9F1000F18D040F201283346002240212846FFF797FFEFF398
:020000040800F2
:20200000108272B62B69012CDBB208BFC5F8008082F31088013CE4B2FF2C07F8013BE8D1B5
:20202000334628464022002102B0BDE8F047FFF77DBF90461C4628463346FFF78BFF08F1DE
:20204000FF385FFA88F808F10108A04414F8012B33462A61802100222846FFF767FFA045DC
:20206000F4D1B8E7001000E02DE9F041904682B0174C02AD05E903006668009D06F5AF267F
:2020800006F5C8661C46284633469DF80410FFF761FFB8F1000F0FD008F1FF37FFB2013720
:2020A000274414F8012B33462A61802100222846FFF73CFFBC42F4D140F2012233462A60FC
:2020C00028468022002102B0BDE8F041FFF72EBF001000E008B51D20FEF7B0F8D0E90831EB
:2020E0001A6812F0100F07D0920709D4836803F5B463836001207047274A59639A60F5E738
:202100005A6B8A42F2D16FF0100210B51A6090F82A2090F82B10DB6C8A429BB21FD2048B46
:202120000132D2B223449BB28A42038380F82A201BD3428B9A421ED8828B9A421BD3002399
:2021400080F828300022154B1A6001214369C468134A2344117043618360012010BD0122DC
:202160008A42038380F82A20E3D28368026913448360012010BD90F8283090F82920013333
:20218000DBB29A4280F82830DCD8064B1B68002BD5D11C20FEF752F80100DE00AC01002086
:2021A000D8000020A801002000000000000000002DE9F04772B64A4EDFF834913468D9F848
:2021C00000706368474DDFF82C81DFF82CA1002B31D1D4F81CC069686369DCF80C00226A2A
:2021E000013B4240CCF80C20DA0701F1900163614DD52068A160D0F808C0A1EB0C03002B08
:202200000ADB306000E0104602689368CB1A002BF9DA61462260046068680B1A902B19DC99
:202220003A1A002A27DB62B6002B1BDC72B634686368002BCDD0204698470346A16820686E
:20224000D0F808C0002BD8D16146306068680B1A902BE5DD0021244A53609160516062B675
:20226000BDE8F0876B68CB1A002BDFDD6B68CB1A002BDBDDF6E743451DDBDAF80020002A8F
:2022800026DA00F50C47A037C9F80070CBE7CBB1E068A369B4F910200344A3EB010C024467
:2022A000BCF1000FA361E2602068A3DBA3601946D0F808C0A1E70D4A1268002ADDD12A20A9
:2022C000FDF7BCFF2046FDF7C1FFA1680346B6E700F5E150C9F800004FF4B473BAE700BF95
:2022E00028000020001000E010E000E0A8010020B4010020C0E6FEFFAC01002038B5044691
:202300000A490078FEF7A0F8D4E90132E1681C0409D4848A9D18A54205D816331844BDE85E
:20232000384001F00BBB2620FDF788FFE93000082DE9F0411F4906460078FEF785F8057F23
:2023400015F0020801D0BDE8F0813779B1680A2F367B2BD80A2E29D804463A46283005F081
:20236000310501F0EBFA45F00205F600FB002577A67784F81D80E37747B194F8283003F029
:202380003F032A2B02D10C4B636003E0226A0B4B6262636072B60A4B20465B6803F561531B
:2023A000A360FEF76FFC62B6BDE8F0812520FDF745FF00BFC1310008AD1A0008151B00084F
:2023C000001000E038B5144904460078FEF73CF82379C27E1A44C27672B6827C9A4215D976
:2023E000D21A12F0FF040ED0651EEAB2123300F114051544034400F1130213F8011F02F8D5
:20240000011BAA42F9D1847462B638BD0022FE238274037762B638BD1526000838B511499B
:2024200005460078FEF710F80446FEF767FB0023FE206A68A260A968E1602A7C20776274C1
:202440002274A374E376EB6863771B0606D401B938BD2046BDE83840FEF714BC2220FDF721
:20246000EDFE00BF1526000810B5074904460078FDF7EAFFD0E903231361A2682179BDE81F
:202480001040FFF799BC00BF3532000810B5074904460078FDF7D8FF0369C2681B041361A8
:2024A000A2682179BDE81040FFF786BC3532000838B5094904460078FDF7C6FFFA210546BC
:2024C000FFF79AFC217901B938BDA2682846BDE83840FFF7D3BC00BFF932000838B50949DC
:2024E00004460078FDF7B0FFF8210546FFF784FC217901B938BDA2682846BDE83840FFF7C9
:20250000BDBC00BFF932000810B5064904460078FDF79AFFA368227903C8BDE81040FFF791
:20252000A3BD00BF212D000838B50B4904460078FDF78AFF0546FEF7E1FA6368AB60A368AA
:20254000EB6003B938BDE36828462B6123696B61BDE83840FEF796BB4126000838B51249C8
:2025600005460078FDF770FF0446FEF7C7FA6B68A360AB68A3612B7B84F822308BB12A6905
:2025800084F8233062616B69084A002B14BF0323022384F8203062602046BDE83840FEF734
:2025A00071BB84F8203038BD35060008410C000870B50B4905460078FDF746FF2E7990F8F2
:2025C0002130B34208D904460649287AFDF73CFF04EB8604606270BD1B20FDF72FFE00BFE7
:2025E000350600087906000838B54C22054606490078FDF7FFFF0446044B28790449636068
:20260000FDF722FF206138BDE92500088D1A0008AD30000810B50479082C09D8221D007877
:20262000D2000549FDF7E6FF044B8477436010BD2420FDF703FE00BF152600089D1B0008EC
:2026400070B5067A032E0FD80446202208490078FDF7D0FF0546074B207907496B60FDF760
:20266000F3FE2E77A86170BD2020FDF7E7FD00BF41260008011F0008AD30000870B50446CC
:202680000A490079FDF7E0FE257A064605F1080220780749FDF7AEFF05710660E1682A4693
:2026A000BDE87040053001F049B900BFAD3000087D260008007814220149FDF79BBF00BF49
:2026C000AD30000810B5044682B0437E828A1A3000900548FEF74EF80022A38A627601334A
:2026E000A38202B010BD00BF104900082DE9F04707783D493846FDF7A7FE3C4AC168536843
:2027000004695B1A9C4203D953685B1A9C42FBD8D0E9004CB0F8149000F11608334BC14459
:20272000C1455968D0F808E046D0082618F8015B2A0622D55A68521A592AFBD972B6D3F8D3
:2027400004A0E2688CEA0202E26062B6AAEB01018E453BD96D005A68A2EB0A022D2AFAD947
:2027600072B6E2688CEA0202E26062B659685A68521A0D2AFBD951461AE05A68521A592AD7
:20278000FBD972B6D3F804A0E2688CEA0202E2605A68A2EB0A020D2AFAD9E2688CEA02029F
:2027A000E26062B6AAEB01018E450FD951466D00013EBDD1C145B8D10C4B3946BDE8F0475B
:2027C0005B680122C3600A48FDF7D4BF4FEA0C43064923614B680022C3603946BDE8F04769
:2027E0000348FDF7C7BF00BFE9300008001000E0F84800082DE9F04F85B0044602AF23490B
:202800000078FDF721FEE56894F804B0EA07A36838D40646C5F347050BEB050909F1070241
:2028200002F47E72ADEB020D0DF1080819465A46404608EB0B0A7B60246901F07FF8CDE9EA
:20284000005A7B6896E803005A46FFF7AFFB75B10AF1FF326019217812F8013F23EA0103BB
:202860001370295D01340B43A0421370F3D196E8030043465FFA89F2FFF7F6FB0C37BD4698
:20288000BDE8F08F2120FDF7D9FC00BF212D00082DE9F04182B00446067802AF0D49304637
:2028A000FDF7D2FD257B2279EB1D03F4FC73ADEB030D0DF10808A368CDE9005803C8FFF71C
:2028C00075FB43462A4631460348FDF753FFBD46BDE8F081212D0008E048000882B002AB09
:2028E00003E90300DDE90030EFF3108272B61968C90602D5596B814203D082F3108802B017
:2029000070476FF010011960DB6C82F3108802B0704700BF38B5144905460078FDF794FD09
:202920000446FEF7EBF804F1200393E80300FFF7D5FF6B686361A360AB6823612B7B5A1CC8
:2029400084F82B3084F82A202A69E260EA69D5E9050184F829206083A18303B938BD20460B
:20296000BDE83840FEF78EB9A92E00080123064A00F13F4000F57F009169800A83400B4332
:2029800093619369704700BF00100240104A904212D9104A90420DD901220F4900F13F4368
:2029A00003F57E0348699B0A02FA03F303434B614B697047FFF7DABF0122074900F1404383
:2029C0009B0AC86902FA03F30343CB61CB697047FFFF0040FFFF0140001002400421304A64
:2029E00080B5304B11609D462F4B304A1846D21A2F4900F0A3FF2F482F4A0021121A01F05D
:202A000075F84FF41F0700244FF0006614252B4B12201A46196841F001011960D3F804C01A
:202A200027490CEA01015960196821F0847121F480311960196821F480211960596821F429
:202A4000FE0159609F601F491F4F8E608F605D61DC619C6119681D4C41F4803119605C600F
:202A600019681B4C41F080711960206013689B01FCD5184B114953604B6803F00C03082B13
:202A8000FAD1154C2046FFF771FF144A136823F0E06343F0007313606360FEF7E9FD00BF99
:202AA00010E000E000500020000000202C000020B84900082C000020200200200010024081
:202AC0000000FFF800ED00E00000000800E41D000020024002E41D0000000140E000002083
:202AE000F0B401240F26404B050953F825503F4F05F13F4303F57F03D7F818C09B0A9C40D7
:202B000044EA0C0400F00703BC619B00BC6906FA03F400EA060729BB92B3082606FA03F365
:202B200006076FEA040432D56E68002A04EA060443EA04036B6032DD012303FA07F72F616B
:202B4000A0F10D03012B08D8294A2A4C136823F0E06343F08063136063601838012825D94B
:202B6000F0BC7047012930D040F20116B14231D003292DD0CE0531D50D2606FA03F3CFE7AA
:202B8000042606FA03F306076FEA0404CCD42E68002A04EA060443EA04032B60CCDCCFD049
:202BA0000123103703FA07F72F61C9E7C1F303110929D5D1F0BC0E4A0E49136823F4C043DF
:202BC00043F4804313604B60704701FA03F3A7E70023A5E7052606FA03F3A1E7002A9CDCAD
:202BE000092606FA03F39BE76449000800100240E00000200000014010B582B002AB03E956
:202C000003002049DDE900348B4230D001F580618B422ED001F580618B422CD001F5806168
:202C20008B422AD001F580618B4228D001F580618B4210D001F580618B4208BF06200BD041
:202C40000020EFF3108472B60021FFF749FF84F3108802B010BD0520030194FAA4F0002C52
:202C6000B0FA80F008BF4FF0FF301844E9E70023F3E70120F0E70220EEE70320ECE70420D3
:202C8000EAE700BF0008014010B582B002AB03E903002248DDE90031834234D000F58060C9
:202CA000834232D000F58060834230D000F5806083422ED000F5806083422CD000F58060B0
:202CC000834214D000F58060834208BF06200FD00020EFF3108472B602B9090419610022C3
:202CE0000121FFF7FDFE84F3108802B010BD0520040191FAA1F00029B0FA80F008BF4FF0A4
:202D0000FF302044E5E70024F3E70120F0E70220EEE70320ECE70420EAE700BF0008014074
:202D20002DE9F8430446082200783049257BFDF761FC6768012F56D82D4E804656F83740B9
:202D40002046FEF753FE8146002845D1204606EBC706FFF71BFE377976793846012240F21D
:202D60000111FFF7BDFE3046012240F20111FFF7B7FE30464FF0FF3240F20111FFF7B0FE3A
:202D800038464FF0FF3240F20111FFF7A9FE3846012240F20111FFF7A3FE3046012240F21D
:202DA0000111FFF79DFE384601224FF4A171FFF797FE304601224FF4A171FFF791FE4FF439
:202DC00000462420B421252201232660C4F800906060E161226223606D0088F80450C8F84D
:202DE0000040BDE8F8832E20FDF728FA212D0008804900082DE9F047064628490078FDF772
:202E000023FB347A032C44D8037C054613F0060F3FD1D6F80480F768B8F1040F3BD82049C0
:202E200051F838603046FEF7E1FD8146B8B100231C485A1C20FA02F18F420ED2082A1346F2
:202E4000F7D138232A7C44F4517442F0040223432A74C5E90063BDE8F087DB00F2E701EBA3
:202E6000C8083046FFF792FD98F807A098F8040051460122FFF734FE4A46514698F805001E
:202E8000FFF72EFE4A46514698F80600FFF728FECDE7FFF71FF92F20FDF7D0F9AD30000884
:202EA0009049000800512502F8B5446806463CB301222F49134604E00133112B1DD011F8E7
:202EC000012F94421D46F7D12A4B9B6998051CD5FE2C04D0204600220321FFF701FE2C22CD
:202EE00025493078FDF786FB01232449244A80F82A30456241600262F8BD2B20FDF79EF93F
:202F00001C4B9D6915F400752FD11D4F3846FFF72DFD01221B4BBA60DA68D10108D4DA68E7
:202F2000194942F08072DA600B6843F001030B60154B19465A6802F534724B689B1A002B0B
:202F4000FBDB0F4B092219469A608B681A07FCD405230B4A8B6093685B07FCD40B4B0C4999
:202F6000D3600C4B11619360B2E72546B2E700BF5548000800100240A92E0008DD2000082B
:202F800000240140F0ED00E0001000E0244992002449922401009E00B1B130B405464FF688
:202FA000FF70294415F8013B040A434083EA0313DBB2DA0044EA03248D4282EA131384EA4D
:202FC0000300EFD130BC70474FF6FF70704700BF70B56F2982B015D80C4B0546080953F887
:202FE00020607EB1012401F00F018C40CDE9006402AB13E90300FFF7FFFD2846C5E90064F8
:2030000002B070BD2820FDF719F900BF64490008F0B50E49054683B00078FDF715FA2B7976
:20302000827F9A420FD9D5E902126F46044638461E1DFFF7CDFF97E8030004EBC60484E8D8
:20304000030003B0F0BD2320FDF7F8F815260008F0B56F2983B021D8124B0646080953F835
:203060002050DDB10124104805F13F4303F57F0387699B0A04FA03F33B4301F00F018C400F
:2030800083618369CDE9005402AB13E90300FFF7FBFD3046C6E9005403B0F0BD2920FDF7A6
:2030A000CDF800BF644900080010024070B5142282B006460B490078FDF79CFA6D46044659
:2030C000716828460122FFF7C3FF95E8030004F1080383E80300237C43F00103237402B0C1
:2030E00070BD00BFAD30000870B582B06D460446416800222846FFF7ABFFA3681A0413D4C2
:203100009EB206F1180292B209492078FDF772FA034695E8030083E80300E2689E829A6025
:2031200022691A6102B070BD2720FDF787F800BFE93000082DE9F04190F8108082B0B8F1D6
:20314000030F36D806461D490078FDF77DF907461C20FDF7E5F96C46054601222046716801
:20316000FFF736FF94E8030085E803000022B1682046FFF76DFF94E8030005F1080383E847
:2031800003000022F1682046FFF762FF94E8030005F1100383E8030085F818803B7C13F02F
:2031A000060F08D143F002033B743D6002B0BDE8F081FEF78FFFFEF78DFF00BFAD3000082D
:2031C0002DE9F043342283B0054619490078FDF711FA6C46064695F80890D5F8048019F17B
:2031E000000218BF0122EF6841462046FFF7F0FE94E8030006F1140383E80300012239460E
:203200002046FFF725FF94E8030006F10C0383E803002B69B9F1000F33620CBF0123112336
:20322000B84508BF43F02003337703B0BDE8F083C1310008F0B53C2283B005462C49007897
:20324000FDF7D8F96C460646696820460022FFF7FFFE94E8030006F10C0383E8030000224A
:20326000A9682046FFF7F4FE94E8030006F1140383E803000022E9682046FFF7E9FE94E8C2
:20328000030006F11C0383E80300002229692046FFF7DEFE94E8030006F1240383E80300B0
:2032A000002269692046FFF7D3FE94E8030006F12C0383E803000022A9692046FFF7C8FE84
:2032C00094E8030006F1340383E8030072B6094C304600216768FEF7B7FC636862B6EA6912
:2032E000DB1B93423CBFD31A736003B0F0BD00BF35320008001000E0F0B51C2283B0064668
:203300001F490078FDF776F96D460446B16828460022FFF79DFE95E8030004F10C0383E844
:2033200003000022F1682846FFF792FE95E8030004F1140383E80300012228467168FFF7C1
:2033400087FE2046F821FEF757FD20462021FEF753FD72B60B4D204600216F68FEF74CFD18
:203360006B6862B623603269DB1B93423CBFD21A6260726993423CBFD31AA36003B0F0BDD5
:20338000F9320008001000E010B5037F04469A0608D4D0E9032103F0300343F00103116151
:2033A000237710BD00F10C0393E803000122FFF76BFC237F03F0300343F00103237710BD42
:2033C000012270B54169437F8E6800EBD304856903F0070102FA01F194F828202E421ABF8D
:2033E0000A43D2B28A4384F828200133827FDBB29A4207D901228168446A43772144816033
:20340000104670BD0446FFF7BFFF0022237F054943F0080323770A600121034B1046197088
:2034200070BD00BFAC010020B801002038B5D0E90524926805462240017F0DD041F00401F1
:2034400001776A7F511C3F2A69770ED8AA68696A01200A44AA6038BD4B07F2D50B494277F6
:203460004160BDE83840FFF7ABBF00242846AC77FFF78AFF2B7F064A43F0080314602B77AC
:203480000122044B20461A7038BD00BFC1330008AC010020B801002038B5857F0446B5B1D3
:2034A000027F93060AD40021A368656A0E4A03EB850361770120A360626038BD00F1140390
:2034C00002F0100293E80300FFF796FBEBE7FFF75BFF237F054A43F0080323771560012260
:2034E000034B28461A7038BD2D340008AC010020B8010020F0B505461C4683B09DF8240044
:203500009DF820600F46009601460848FDF732F92B689C4202D33B689C4202D9044B1B6881
:203520000BB103B0F0BD1F20FCF788FED8480008A80100202DE9F04F047C83B014F0060FA5
:2035400026D0A6070091814604F00101D0F800A021D44068CAF80000002940F08F80511EDC
:20356000C9B2AAB15A185F1E17F8013F8AF80C30DAF80830D907FBD59AF80C30DBB20099CB
:2035800001B13B709742EFD199F81030DB076AD403B0BDE8F08F9AF81850DAE90440AD07B8
:2035A00058BF00042061002963D0D9E902010C04511E0461C9B2002AE6D05A1801925F1E8D
:2035C0000AF110050826002417F801BF1DE095E80300FEF74BFADAE90212B8F1000FA8BF0D
:2035E00012040A6195E80300FEF740FADAE90023926864001A42E4B24FEA4B0B18BF44F0CB
:203600000104013E5FFA8BFB23D09AF818204FFA8BF8D007DBD4DAE90212B8F1000FA8BF82
:2036200012040A6195E80300FEF720FADAE9002395E80300926864001A42E4B218BF44F0B9
:2036400001044FEA4B0BFEF711FA013E5FFA8BFBDBD1009B03B13C70019BBB42B2D199F864
:203660001030DB0794D5D9E902321A6103B0BDE8F08F511EC9B2002A9FD189E7D9E90201BE
:203680000C04511E0461C9B2002A7FF46BAF7BE7002270B5F226044684B0CDE90122006993
:2036A00001AB8DF80C200D46092201218DF80460FFF740FF04AA637E52F80B0D1A33918898
:2036C000E218E0509180637E0633DBB22A2B637627D89DF80C3023F080031E2B06D94FF607
:2036E000FF71E28A8A421CBF0132E282023B1E2B1CD9237E9B0701D404B070BD2046FDF7E2
:20370000FDF9237E23F00403237672B60B4AE368526820461344A360FDF7B4FA62B604B0AF
:2037200070BD29462046FEF7CDFFD2E70022044B1A600122034B1A7004B070BD001000E056
:20374000AC010020D40000202DE9F0470678054684B02B493046FCF777FED5F8089004465D
:20376000B9F1000F0FD0FDF7C9F9002101236A682046A260AA686161E2602383FDF782FA50
:2037800004B0BDE8F087FDF7B9F92D2304AF27F8043DDFF874A084F8189049463B4602220D
:2037A0002069DAF804902125FFF7C4FE4FF0B908DAF804A005E031462046FFF769FF013D48
:2037C0000BD03B46022201212069ADF80C80FFF7B1FE9DF80D309B06EDD1637E1BB1314693
:2037E0002046FEF76FFFA28A53460192E08A4A46009031460348FCF7BDFF04B0BDE8F087DD
:20380000E925000800490008001000E010B5044605490078FCF718FEA36822790021BDE807
:203820001040FFF787BE00BFAD30000870B50446057809492846FCF707FEA6682479334691
:2038400022460121FFF776FE334622462946BDE870400248FCF78EBFAD300008D048000840
:2038600010B472B691F8202022F0040381F8203062B6D1E90343A168C2F34002194218BF67
:203880000123014608BF0023014810BCFCF772BFC048000810B5047804492046FCF7D4FDD2
:2038A00001462046BDE81040FFF7DABF35060008830770B4CDB23DD0541E0AB30378AB42C3
:2038C0001FD0431C05E014F1FF3419D30278AA4217D013F0030F184603F10103F3D1032CE6
:2038E00011D84CB30378AB420BD00444431C02E00278AA4205D09C42184603F10103F7D1DD
:20390000002070BC704706460A0292B22A4342EA0242336830465340A3F1013121EA0303B0
:2039200013F0803F06F10406DCD1043C032C3046EFD8D6E71446D2E72046E2E7844641EA77
:20394000000313F0030349D1403A23D30B6803604B6843608B688360CB68C3600B690361A1
:203960004B6943618B698361CB69C3610B6A03624B6A43628B6A8362CB6AC3620B6B03637B
:203980004B6B43638B6B8363CB6BC36340304031403ADBD230320BD30B6803604B6843601F
:2039A0008B688360CB68C36010301031103AF3D20C3205D351F8043B40F8043B043AF9D22D
:2039C000043208D0D2071CBF11F8013B00F8013B01D30B8803806046704700BF082A13D38E
:2039E0008B07B1D010F00303AED0C3F10403D21ADB071CBF11F8013B00F8013BA4D331F8B3
:203A0000023B20F8023B9FE7043AD9D3013A11F8013B00F8013BF9D20B7803704B784370B9
:203A20008B788370604670478842F0B40DD98B1883420AD9841832B1224613F8014D994279
:203A400002F8014DF9D1F0BC70470F2A48D940EA01039B0746D1A2F110031B0901F12007CD
:203A600007EB031701F1100400F1100554F8106C103445F8106C54F81C6C103545F81C6C8B
:203A800054F8186C45F8186C54F8146CBC4245F8146CEBD1013302F00F051B01032D19446F
:203AA000034421D90F462C461E1F57F804CB043C032C46F804CFF8D82C1F24F003040434B5
:203AC0002344214402F00302002ABCD0013B0A4411F8014B914203F8014FF9D1F0BC704743
:203AE0000346F1E70346F1E72A46EDE7F0B4860743D0541E002A3ED0CAB2034602E014F1A6
:203B0000FF3438D303F8012B9D07F8D1032C2BD9CDB245EA05250F2C45EA054516D9A4F190
:203B200010073F0903F1200606EB071603F1100242E9045542E902551032B242F8D104F0FF
:203B40000F040137032C03EB07130DD91E462246043A032A46F8045BFAD8221F22F00302FF
:203B60000432134404F003042CB1C9B21C4403F8011B9C42FBD1F0BC704714460346C5E792
:203B8000EC46A0E8F05F4FF000007047B0E8F05FE546080008BF0120704700BF2D08000079
:203BA00078DA9D587B6FDB3812FF2A3C03C56D6F939C25CBB21DA07FB8A97B28AE69B3715A
:203BC000B27B87452128126D13D1AB7AE4718B7CF7FD0D47A4683BBD03AE406391F3E0704B
:203BE000DEC33F46779DCAD2E841D68D2A8B66743EDA26C9B9F8C99B9ECF4EFDB1373FFDDC
:203C0000EE9F866FC5EC6C72E609DA1887BE2F7EAA6526E346BE15BF2FAF2FFF2EF33B99CF
:203C2000A6323D9D9DDED57191EC442D1F1471147EE82DC6B36FE24E155DABB206BCFDB37F
:203C40008977E69D7ADECF75A5BC9F3DEFADE0ADD1C92829F33C2E5208F2C728CEB2328921
:203C60005B19952A6D44527645FBEE4D323AF7C21388DDB690378A937B0130F61D84990307
:203C80004F5303AFCA46FFA8E2DD9B4E545D96455DA5F17D87E07B27EB67CB1202DC1376D6
:203CA0002D9B366A5572DFF0AAC52D9B5CB5913954A8023AECE50B700FA8A78E9A5DD7A610
:203CC000E563313AA7ADB2D8A82D247ACA26C1D41CD1542AE2CFD17938201571566E2355DB
:203CE00058E1B5D4E033B738BDC4068397D1A08589C54CD556B57116955DBBCF4F3CC45944
:203D000027699DCA4DDC656D6437F2F8294ABB3A6E61447DB2B7B0FC240CD496D51EAFC41F
:203D2000D1A8685A5955B27684F166967A9706C16C3E36D47513F5C248F39106F66B6ABFDA
:203D400042FB35B35F328B9FAD5960C7A93D44F98939009FD0151B0EDE44BFF00A58948974
:203D6000C2B1252A6459A927991D28298DDB386AD47F40BAEBE0C86D44CA71BCA191D852FF
:203D80008523C9D4B34C61E043237A63176ABDE4D82584014579B37DF7E66F080B6FBE47F6
:203DA000FBA8DA1DCC1A25C60F70B6C3BD9D2D7CABE9C46ABA49B27BFBAD52FBF95C24D16C
:203DC000BE524592A7D1A19E27BE7382B6B4151DCBA8F78754D5E69394431E03876E650DDD
:203DE0001F23CE1C319A03FBEB70B37627EBBC84F754997C452B2E386A9F2BA9E983C14177
:203E0000DB3CE9E2DA3A7BFD141D45BD68ED2659B455B964CBC1515379D7C11BE0E1647A0C
:203E2000D67BE8997D506D1D803731805AC64836752A6BE24F3EC6211B1A84C75AB5F2086A
:203E400043B03E808823642EEBAD2C9267AD2F2805DC116ED1B6C66DB15CE8A5D6E5AECCCA
:203E6000E551A26AE25C2BC598AF5FDB34B59FC870151BF1B8893F30D7691032C4ADB48E8B
:203E8000351FC0E4F107A6EFD3AB097D43E4836AA390CE103F119B472475C2F17A32DA82EE
:203EA00091161E770BFBA5468225A6BCEE2A320EC4837AFADC81F3A113B8A6CD7EF4CDF655
:203EC00008FC03343295411BCCE6E334CA0C7999AACD73041FB0BC6AA9634DF4391C22101C
:203EE000B4270B988C6DBD8F4F7B512639C6A71346EC6D7E78FC0441AA5259B4385C949B63
:203F00000D4ED1D13624CC93914947FA1AD60A93C08174553A58884DB0EB9C6302E8904D71
:203F20007950765EAF6CA3F385C53FAC40FFA78BE5838B41324A9CC30A45740BC29D4CEE17
:203F40009D52E1FB4686D7D2C00F4AB273CCDE29145633CDAF93AFD541CBAEDC4BDF0B43D2
:203F600042EE6C0B8993BC7A7177BA96E057416E9854D702D8C8EB3F353D3BF8E1892080EC
:203F80008B108E2BD6415D8628473851F59847C973E2E884168EF8C198890AF9D44B805C01
:203FA0006C7D50D5CC1801A0ABCFE05C8EE34C7D036DA978BA49B8AFA5081CE9D4545C7AD3
:203FC0003A9034E5A67D8C6BE9D2E6AA294DCACDCB46BD568C8E98061366AA1BAECD906DFA
:203FE0009C4086ADB8CEFDB7AC300DF6B17E90143CC242E5E07CEBD82AD0F49CDA282921AC
:020000040800F2
:20400000D414B546362C3DDCBE2F3B7B2AD5F16FD30347301C9203F7358F744C3F7F3115C3
:204020008DDAE1E5878BE872F92F32EF0287BDBF5D47579FBEACA9D5F1D0B75FBD0F4FAE77
:20404000DECF46FB105F43D070E08FE7C2A0544DB504D57286FFD303684F1910E594FE4C29
:204060000E10261A81E00426E8C5E7AF17FF8C3E5EAF7E410FEE8FF5BF93D1E5C52D309B22
:20408000369FF81B6F3C7992C0BC5E5DAC3EFDBA8A7EFBF4E5C3D7DFA8B9F46973BDBAC6E7
:2040A000261F206B15675A42927EB90015C09F969FA3F7CBDB0FD4EC31FBF5CDF2661DAD87
:2040C0006F2FD7BF00B25E1124A4EDD555F461F579F96F6CBC50E5EA505A753BAB878BBE65
:2040E0002BEC3FA18ADFC727FE3720C2138DB66F569757ABEBE5CDEDB5E60A17B85A8E358C
:20410000A6177EC3E23D2D308DF0EA8256688D78F58156E8D679B5A25518F4AB8FB49A1B1B
:204120002EFFA0D54273796167EFE56213797A0FD618EB0F683D78D15E8A784770D7E846AA
:204140002295F6220BED481BCEAC5C7C971939DEB3304538E596E5222E4451B602D12A289C
:204160005A05B20A2712A1138978DC297CB39F36A2824BE3240E11D0FEB51571D3A8AD0E59
:2041800000AECDBCABD39EA08A0D0EB230FD808893563D484E7A173CE4892AAE616621EBFF
:2041A000BAACF5D46600B544F66D5ADD727C8C21472ADA52E8B0A2C69E1A270EC94F05C2D3
:2041C00045A5C2CC42C364C6199ACBA5C1EA874B9D54873DA09124712E91DEB9C21B605E2C
:2041E0003E48238CA00980873B03B6F3829D10B8433B82F765DA9E4FADAE4182FE04F5B024
:20420000DC7F995D9A1AB41B50F572374D3EF09D73F6EA64B25355CF90FAF4CBF8891C629C
:204220006E54C47DD625A69F782B053A4D645C630102A8A681B61B14E5B4CBA8D30531D548
:2042400011D1A72AED61F241926EA952FF98A047A281E592F4A80BAAC057BDC9CA47CE98B2
:204260005F4AC6252FE19EEC0B7C32167C2F72681D8E54055C802A2AAE955CEB34A820C939
:20428000866D38E4B5ECA522F78143D6A0235DC1DAE45BD428AE2DC2D1F5C4A3CA32219F9A
:2042A0001209A83B0D73A55FC3CB59A59A1D61A8BCCBCD9EF1BE29639A28D843359B3D2EEB
:2042C000BD42ACCD28A87B4F1CAC6348C7A97D4A20B17BCAB62CC526D6F7E23BD1047CE321
:2042E0007AC3714EA0DE640F85D20378E9F99F1BD31BAD2C628E02D848FD94705B345D5548
:2043000095752B3906D9396130FD4A8326AE2BEEC1836295A77D67BF1900C31307278AB2F1
:20432000C89E45FC00707C97999461AFBAD03DB4361E2EC1EDEC41D37E2EBEA688B42EBF32
:20434000A3E66043C35CF3179E9BF4B351DCA73FF39894F2F8DD50EB5D2034D9311280099E
:2043600014D822AE635AEB208B6BADB7D7AB36D9869D9246F13ECDB1AF535943AA3E9A56B0
:204380002957A3904FBCF974AAD37ABF0875B2E74538D586C6220C67F89EBCBCE896B24273
:2043A000084B7E1DE3867EAF9369285515893C9802E6E064D09DD6049F9E197C69E1DB45DF
:2043C000A69CB72DB072F982DD7860A7BBA561FAC76260A997FE305ACF713B3B56ECCD9657
:2043E0003A0944B617B713028AC264789ADBA3889D99416808DF75460F4DBADF1E9AB7D020
:204400003E3E09D5F4F3A56E0FF51CAAB3BC7359A0180FE457B9F930E03788113BAFCFC630
:20442000CE40ECCA86C91C89B07FF17106EC993F0C8F9131E63045F2BABF4638CC870EAABD
:204440001D14D9B867844A93E420B238EC0C588FE1C4991AFB7B18AB7549A21FC348424464
:204460001C8E72DF3742EAAF87B46486C0D74F09F6BBF5FF75C9A06FB7756711FADCD6D801
:20448000A75E9CD2E5FD4FF39D2D391DDAF083169CA75FCC6133EF20E6F6AFFBAAAB759C05
:2044A000FE58074E277F2C3FF5F05AF639A503DDE7ECD476A767C2C1E142446BFFA68E1684
:2044C000F6617CB638F34EFDD03BDDC6F359E0CBC5FCD41FFBE886C75E846E7E128C4FCBCE
:2044E000047EA4462F7F02969BCBD90000000000000000000000000001020102D4470008A2
:204500003D0A00080201000150490008550500080302000230490008152600080400010075
:20452000000000002504000805020002D4470008250200080602000230490008E92500084E
:204540000702000230490008C523000808010001D847000895380008090300033C4900083D
:20456000493700080A020002DC470008AD3000080B00010000000000790A00080C060006E6
:20458000E04700085D2500080D02010158490008ED0900080E050005E84700081D24000812
:2045A0000F010001D8470008B509000810010001D8470008CD05000811040004F047000892
:2045C00035060008120400032C4900087D26000813050005F4470008FD06000814040004D0
:2045E000FC470008090D00081503000224490008B12400081608000800480008152900082A
:2046000017020002DC470008750400081805000308480008F5270008190800080C480008B2
:20462000353200081A03000224490008692400081B04000414480008113000081C030003F0
:2046400060490008B12500081D030002244900082D3800081E0300022449000809250008F9
:204660001F00010000000000451A00082006000618480008F93200082100010000000000CA
:204680004104000822010001D8470008ED2600082304000420480008F52D0008240001007D
:2046A00000000000A50A000825040003244800083123000826050005284800087906000818
:2046C0002700000000000000790C000828020002DC470008D9040008290301033C4900082D
:2046E000290100082A030002244900088D2400082B06000618480008353100082C010001F0
:2047000050490008F50E00082D04000340490008FD2200082E020102DC470008FD09000895
:204720002F050005304800082925000830020002DC470008A92E0008310300036049000844
:204740004126000832010001D8470008B52600083305000538480008E9300008340300028D
:20476000244900080D3800083504000340480008912800083603000224490008DD24000831
:204780003700010000000000B90A00083802000230490008A90400083905000544480008CD
:2047A000C13100083A02000230490008ED0D00083B0300033C490008750E00083C040004A1
:2047C00020480008212D00083D0201015849000825010008000400000400000004000000EF
:2047E00004000004000400000400000404000000040404040400040400000000040002037C
:20480000040000040002020404070700040000000000000004040004040000000000000062
:2048200004000000040704000404040004000000040000000000000004000200000000004B
:204840000407000004000400000000000005000000000000000102030405060710112021C2
:2048600022232425FE00000000400200444900083E060000000000003F09010018490008DF
:20488000400E02001C4900084115030048490008421002004C490008430B01005049000888
:2048A00044120400544900084540010058490008460B010050490008470D02005C490008D4
:2048C000480C03006049000849100300204900084A400200244900084B1404002849000826
:2048E0004C400200244900084D4003002C4900084E400200244900084F0A020030490008C7
:204900005018050034490008511203003C4900085240030040490008020000000002000088
:2049200004000200040700000400000404040700040400000400000202000000040000003B
:2049400004020700000600000000000000000000000000000400020407000000040100002E
:204960000404040000080140000C0140001001400014014000180140001C014000200140D8
:204980000054004016170000005800401A1B0000003800401E1F1D52003001400607055290
:2049A0000038004022231A520030014014151352003C00401415136200000000ED010008BF
:2049C00000000000100000001C000020F10100080000000000000000F50A0008000000800A
:0449E00010000020A3
:00000001FF
