:020000040800F2
:10000000502B0020F50100080D0A0008050A000821
:10001000090A0008C90500089D1300080000000037
:100020000000000000000000000000004D12000869
:10003000CD05000800000000250A0008391300085B
:100040000F0200080F0200080F0200080F0200084C
:100050000F0200080F0200080F0200080F0200083C
:100060000F0200080F0200080F0200080F0200082C
:100070000F0200080F0200080F0200080F0200081C
:100080000F0200080F0200080F0200080F0200080C
:100090000F0200080F0200080F0200080F020008FC
:1000A0000F0200080F0200080F0200080F020008EC
:1000B0000F0200080F0200080F0200080F020008DC
:1000C0000F0200080F0200080F0200080F020008CC
:1000D0000F0200080F0200080F0200080F020008BC
:1000E0000F0200080F0200080F0200080F020008AC
:1000F0000F0200080F0200080F0200080F0200089C
:100100000F0200080F0200080F0200080F0200088B
:100110000F0200080F0200080F0200080F0200087B
:100120000F0200080F0200080F0200080F0200086B
:1001300000F002F800F03EF80AA090E8000C8244BB
:100140008344AAF10107DA4501D100F033F8AFF298
:10015000090EBAE80F0013F0010F18BFFB1A43F0A5
:1001600001031847BC480000DC480000103A24BFD7
:1001700078C878C1FAD8520724BF30C830C144BF0C
:1001800004680C607047000000230024002500264E
:10019000103A28BF78C1FBD8520728BF30C148BFEA
:1001A0000B6070471FB59DE8030000F02FF91FBDDD
:1001B00010B510BD00F086F91146FFF7F3FF03F00C
:1001C000A3FB00F0A4F903B4FFF7F2FF03BC00F0B7
:1001D000D5F90000EFF30980704780F30988704774
:1001E000EFF30880704780F30888704740BA704783
:1001F000C0BA70470948804709480047FEE7FEE754
:10020000FEE7FEE7FEE7FEE7FEE7FEE7FEE7FEE7C6
:1002100004480549054A064B704700003D13000895
:100220003101000850070020502B002050270020EB
:100230005027002070B5064600F0CCF8056806F19E
:100240000B0020F00704B4429CBF002070BD2B4679
:100250006A68BAB11068A04210D304F1080188425C
:100260003CBF5068586007D351681019416011684D
:10027000091B016058601460101D70BD1346526860
:10028000002AE7D12146284600F0ACF80028DED14C
:1002900070BD70B50446051F00F09CF80068002C86
:1002A00014BF446870BD002C18BFAC423CBF204650
:1002B0006468F8D301680A18AA4218BF456003D1E0
:1002C0002A6805461144016028684119A1421CBFF3
:1002D0006C6070BD6168696021680844286070BD09
:1002E00053EA020C00F069802DE9F04B4FF0000654
:1002F000002B1FBFB3FA83F503FA05F424FA05F6C1
:100300005E4012BF1643B2FA82F502FA05F4C5F157
:1003100020051EBF22FA05FC44EA0C04203556EAEB
:10032000044C4FEA144418BF641C4FF000084FF00F
:100330000009904271EB030C39D3002919BFB1FABF
:1003400081F701FA07F6B0FA80F700FA07F6C7F16D
:1003500020071EBF20FA07FC46EA0C062037B6FB32
:10036000F4FCA7EB0507103F07F01F0BCBF12006AD
:100370000CFA0BFB2CFA06F644BFB3460026202FDE
:10038000A4BF5E464FF0000B5BEA060C08BF4FF0BF
:10039000010B19EB0B09ABFB027C48EB0608C01BF9
:1003A00006FB02CC0BFB03CC71EB0C01C1E70B4647
:1003B000024641464846BDE8F08B13B54FF00000B9
:1003C0004FF00001AFF30080BDE81C40704770475C
:1003D0007047704700487047F80600207047704724
:1003E0007047704738B504460A4600206946AFF3A7
:1003F0000080002808BF38BD02460099204600F062
:100400003FF8012038BD012000F054B8F8B5AFF333
:100410000080054600200C46102000BF0646A819A3
:10042000A0420DD9324669460020AFF30080070094
:1004300008BF00F03FF80098A04218BF0546C41955
:10044000FFF7C8FF05600746F01D20F007004619BA
:10045000284600F00AF8B44208BFF8BDA21B314696
:100460003868BDE8F84000F00BB800210160C0E931
:10047000011070471020704700487047F0060020B8
:10048000034640688C46002818BF88423CBF03469C
:100490004068F8D318681844884207D00CF103006C
:1004A00020F00700001D411A521A0146081D0A607B
:1004B000FFF7EFBE10B500F039F8BDE8104000F0CE
:1004C0002FB870477546FFF7D7FFAE46050069465F
:1004D000534620F00700854618B020B5FFF798FE78
:1004E000BDE820404FF000064FF000074FF0000835
:1004F0004FF0000B21F00701AC46ACE8C009ACE8B6
:10050000C009ACE8C009ACE8C0098D46704710B519
:100510000446AFF300802046BDE81040FFF753BE0D
:10052000002801D000F02AB87047000010B501285B
:1005300005D0002103A000F027F8012010BD09A17B
:10054000F8E7000053494752544D454D3A204F7546
:1005500074206F662068656170206D656D6F7279BB
:10056000000000003A2048656170206D656D6F7273
:100570007920636F72727570746564000149182088
:10058000ABBEFEE72600020070B505460C460A2009
:1005900000E06D1C00F011F835B128780028F8D182
:1005A00002E0641C00F009F814B120780028F8D1AA
:1005B000BDE870400A20AFF3008008B569468DF8A9
:1005C00000000320ABBE08BD00BFFEE7704700007F
:1005D0000149C860704700000020024030B5044661
:1005E00004254FF4302000F085F80546042D17D17E
:1005F0000C48006940F002000A490861084644615D
:10060000006940F0400008614FF4302000F072F8BB
:1006100005460448006941F6FD710840014908613A
:10062000284630BD0020024004200B49C96801F073
:10063000010109B101200EE00749C96801F0040178
:1006400009B1022007E00449C96801F0100109B1AD
:10065000032000E0042070470020024003480069A6
:1006600040F080000149086170470000002002400E
:1006700078B506460C46042500200090E80200F0FC
:1006800039F80546042D24D11348006940F00100D3
:10069000114908613480E80200F02CF80546042D69
:1006A00010D1B01C0090200C00990880E80200F0E6
:1006B00021F805460848006941F6FE7108400649E0
:1006C000086106E00448006941F6FE7108400249ED
:1006D0000861284678BD0000002002400248034916
:1006E0004860034848607047230167450020024086
:1006F000AB89EFCD00B502460423FFF795FF034613
:1007000003E0FFF791FF0346521E012B01D1002A9F
:10071000F7D102B90523184600BD000010B5044604
:100720002948844208D10121042000F09DF90021CC
:10073000042000F099F946E02448844208D10121C0
:10074000082000F091F90021082000F08DF93AE02E
:100750001F48844208D10121102000F085F90021B2
:10076000102000F081F92EE01A48844208D10121BE
:10077000202000F079F90021202000F075F922E016
:100780001548844208D10121402000F06DF9002174
:10079000402000F069F916E01048844208D1012198
:1007A000802000F061F90021802000F05DF90AE06E
:1007B0000B48844207D10121801500F055F9002132
:1007C000A01500F051F910BD00080140000C0140D7
:1007D000001001400014014000180140001C0140BD
:1007E0000020014010B501460A0ACBB2054850F876
:1007F0002200806801249C40204008B1012010BDE7
:100800000020FCE78C4500082DE9F0410246002558
:100810000026002000230024002791F803C00CF0DC
:100820000F0591F803C00CF0100CBCF1000F03D0C1
:1008300091F802C04CEA050591F800C0BCF1000F28
:1008400031D0146800202BE04FF0010C0CFA00F3BB
:10085000B1F800C00CEA03069E4220D183004FF09D
:100860000F0C0CFA03F7BC4305FA03FC4CEA040432
:1008700091F803C0BCF1280F06D14FF0010C0CFA1F
:1008800000FCC2F814C00AE091F803C0BCF1480FA4
:1008900005D14FF0010C0CFA00FCC2F810C0401C4E
:1008A0000828D1D31460B1F800C0BCF1FF0F34DDCB
:1008B000546800202EE000F1080C4FF0010808FAFF
:1008C0000CF3B1F800C00CEA03069E4221D183006C
:1008D0004FF00F0C0CFA03F7BC4305FA03FC4CEA8B
:1008E000040491F803C0BCF1280F05D100F1080CF5
:1008F00008FA0CF8C2F8148091F803C0BCF1480F54
:1009000007D100F1080C4FF0010808FA0CF8C2F802
:100910001080401C0828CED35460BDE8F081000050
:10092000F0B504460B46200AE1B22A4DAD69861C9B
:100930000127B7403D43274EB5610C2B09D101F18A
:1009400010050126AE40244D55F820502E61082395
:1009500007E0082B05D101258D401F4E56F8206079
:10096000356107291ADC1C4D55F820502D684E07BB
:10097000F70E0F26BE40B543174E56F8206035607F
:10098000154D55F820502D684E07F60E03FA06F661
:100990003543114E56F82060356019E00E4D55F87C
:1009A00020506D684E07F70E0F26BE40B5430A4E25
:1009B00056F820607560084D55F820506D684E0758
:1009C000F60E03FA06F63543034E56F820607560BE
:1009D000F0BD0000001002408C4500080161704726
:1009E00030B5020AC3B209B11C4601E003F110049C
:1009F0000125A540024C54F82240256130BD00007D
:100A00008C45000800BFFEE700BFFEE7704700000E
:100A100002490143024A1160704700000000FA05D4
:100A20000CED00E07047000029B1064A126902434C
:100A3000044B1A6104E0034A12698243014B1A61B4
:100A4000704700000010024029B1064A9269024333
:100A5000044B9A6104E0034A92698243014B9A6114
:100A6000704700000010024029B1064AD2680243D4
:100A7000044BDA6004E0034AD2688243014BDA6037
:100A8000704700000010024010B540F20320FFF74D
:100A9000A9FE08B9012010BD0020FCE710B5002216
:100AA000082140F20320FFF73BFF10BD10B50824DA
:100AB000012000F04DF902E0FF2000F05DF9201E5A
:100AC000A4F10101CCB2F7D110BD10B50022042170
:100AD0000846FFF725FF002000F04AFA10BD70B568
:100AE00005464FF6FF7401E0601E84B2FF2000F05F
:100AF00043F9A84201D0002CF6D10CB9FF2070BDFB
:100B00000020FCE7F8B5FFF7C9FFFFF7BDFF08B904
:100B1000AA20F8BD00F023F900F0B3F9002504E0A5
:100B2000FF2000F029F9681C85B20A2DF8DB142695
:100B300000BF95220021084600F033F90446012C3D
:100B400004D0301EA6F101018EB2F2D1002054492A
:100B50000870012C75D192E087224FF4D5710820DE
:100B600000F01FF9012847D1002506E0FF2000F022
:100B700003F90DF80500681C85B2042DF6DB9DF81D
:100B8000020001287BD19DF80300AA2877D14FF6F7
:100B9000FE7600BF01220021372000F002F9012279
:100BA0009107292000F0FDF8044624B1301EA6F17B
:100BB00001018EB2EED1002E61D0012200213A2037
:100BC00000F0EFF800285AD1002506E0FF2000F0E1
:100BD000D3F80DF80500681C85B2042DF6DB9DF8EE
:100BE000000000F0400018B106202D49087002E016
:100BF00004202B49087043E001220021372000F037
:100C0000D0F801220021292000F0CBF80446012C65
:100C100018DC0220224908704FF6FE7600BF012240
:100C20000021372000F0BDF801220021292000F02A
:100C3000B8F80446C4B1301EA6F101018EB2EED15F
:100C400012E01EE00120164908704FF6FE7600BF44
:100C500001220021104600F0A4F8044624B1301E01
:100C6000A6F101018EB2F3D12EB101225102102062
:100C700000F097F810B100200949087000E06BE718
:100C800000BFFFF713FF00F0F6F80548007808B141
:100C900000203EE70CB120463BE7AA2039E70000E0
:100CA000000000202DE9F04106460F461546194880
:100CB0000078062800D07F02012D0CD10122394690
:100CC000112000F06EF80446FCB96902304600F0CD
:100CD00023F8044619E001223946122000F061F899
:100CE000044600BF4FF40071304600F015F804468A
:100CF00006F50076681EC0B2051E01D0002CF1D0AA
:100D0000012200210C2000F04CF8FFF7CFFE204616
:100D1000BDE8F0810000002070B504460D46FE20BD
:100D2000FFF7DDFE08B1012070BD04E0FF2000F0F8
:100D300023F82070641C281EA5F101018DB2F5D1A5
:100D4000FF2000F019F8FF2000F016F80020EBE774
:100D500010B5044621460420FFF742FE10BD10B531
:100D6000002203210420FFF7DBFD002000F0F6F84D
:100D70000120FFF7EDFF10BD10B50446214600200D
:100D800000F0ECF9C0B210BD10B50020FFF7E0FF95
:100D900000F07DF808B9002010BDFFF787FE0120A4
:100DA000FAE72DE9F04105460C4617464FF00008DA
:100DB000FFF77CFEFFF7E8FF10B1FF20BDE8F081F0
:100DC00000F065F808B1FF20F8E745F04000FFF7B4
:100DD000D3FF200EFFF7D0FFC4F30740FFF7CCFF8F
:100DE000C4F30720FFF7C8FFE0B2FFF7C5FF38469E
:100DF000FFF7C2FF0C2D02D1FF20FFF7BDFF4FF020
:100E00001F0800BFFF20FFF7B7FF064606F080006F
:100E100030B1B8F10000A8F1010101F0FF08F1D1F3
:100E20003046CBE770B506460D4600F030F808B105
:100E3000012070BD2846FFF79FFFFD2D19D000242B
:100E400004E0305DFFF798FF601C84B2B4F5007FCA
:100E5000F7DBFF20FFF790FFFF20FFF78DFFFF205C
:100E6000FFF78AFF044604F01F00052801D0022086
:100E7000DFE70020DDE710B50021084600F020F98B
:100E800010BD10B50721002000F01AF910BD10B5F3
:100E9000002406E0FF20FFF76FFFFF2801D10020AC
:100EA00010BD2046641C4FF6FF718842F2D301202A
:100EB000F6E700002DE9F04106460F4615462048AA
:100EC0000078062800D07F02012D0CD1012239467E
:100ED0001820FFF766FF04466CBBFE213046FFF783
:100EE000A1FF044627E016480078012809D0012216
:100EF00000213720FFF755FF012229461720FFF771
:100F000050FF012239461920FFF74BFF044694B9E0
:100F100000BFFC213046FFF785FF044606F500764A
:100F2000681EC0B2051E01D0002CF2D0FD210020A9
:100F3000FFF778FF0446FFF7B9FD2046BDE8F081D2
:100F40000000002021B1028842F04002028004E04B
:100F500002884FF6BF731A400280704710B50446EE
:100F6000204600F017F80721204600F0A9F810BD30
:100F700010B50446054951F82400FFF7CFFB04499A
:100F800051F8240000F044F810BD000004000020D7
:100F9000A845000838B50446184951F82400012135
:100FA000FFF752FD164830F81400164931F81410B6
:100FB0000843154931F814100843ADF80000182013
:100FC0008DF8030003208DF80200104951F8240029
:100FD0006946FFF719FC0A4A32F81420094B33F826
:100FE00014301A43084B33F8143042EA0301074A1D
:100FF00052F82400FFF7F2FC38BD0000B4450008A9
:10100000C0450008C6450008CC4500080400002083
:1010100010B504461148844208D101218014FFF71D
:1010200023FD0021A014FFF71FFD16E00C488442A9
:1010300008D101210014FFF7F7FC00212014FFF76D
:10104000F3FC0AE00748844207D10121C013FFF7EF
:10105000EBFC0021E013FFF7E7FC10BD003001407E
:1010600000380040003C00400246002013890B403D
:101070000BB1012000E000207047014688897047CD
:101080008181704710B50022028802F441520B881A
:101090004C8823438C882343CC8823430C892343E7
:1010A0004C8923438C892343CC8923431A430280F0
:1010B000838B4FF2FF74234083830B8A038210BD1E
:1010C00070B586B005460E46082E15D2DFE806F04C
:1010D00012100E0C0A08060438240FE030240DE02C
:1010E00028240BE0202409E0182407E0102405E060
:1010F000082403E0002401E0382400BF00BF0020E2
:10110000ADF804004FF48270ADF806000020ADF891
:1011100008000220ADF80A000120ADF80C004002E2
:10112000ADF80E00ADF810400020ADF81200072019
:10113000ADF81400084951F8250001A9FFF7A2FFF6
:10114000054951F825000121FFF7FCFEFF21002091
:1011500000F004F806B070BDA84500082DE9F04184
:1011600004460F46002506E0681CC5B2C82D02DD06
:101170000020BDE8F081134951F824000221FFF757
:1011800073FF0028F0D00F4951F824003946FFF7CB
:1011900077FF002505E0681CC5B2C82D01DD0020E1
:1011A000E7E7084951F824000121FFF75DFF002817
:1011B000F1D0044951F82400FFF75FFFC6B2304672
:1011C000D7E70000A845000801460868704710B539
:1011D000FFF784FA3520FFF7FBF9FFF73FFA10BD60
:1011E0002DE9F0410427164CFFF778FA15488442A0
:1011F0001CD217E02046FFF7E7FF401C88B1A4F19E
:1012000000684FEAD8254FF0006000EBC526304655
:10121000FFF7E4F90746042F00D006E006F5006466
:1012200000E0241D08488442E4D300BFFFF716FA0B
:10123000042F02D10020BDE8F0814FF0FF30FAE723
:10124000008000080000FF1FFBFF0308704710B577
:1012500000F002F810BD00000CB5002001900090D5
:101260003348006840F480303149086000BF30489E
:10127000006800F4003000900198401C0190009834
:1012800018B90198B0F5A06FF1D12948006800F4B1
:10129000003010B10120009001E000200090009883
:1012A000012843D12348006840F01000214908601C
:1012B0000846006820F0030008600846006840F017
:1012C000020008601A4840681949486008464068AA
:1012D00048600846406840F48060486008464068BE
:1012E00020F47C1048600846406840F4E8104860EC
:1012F0000846006840F08070086000BF0C48006835
:1013000000F000700028F9D00948406820F0030080
:10131000074948600846406840F00200486000BF46
:101320000348406800F00C000828F9D10CBD00000B
:1013300000100240002002407047000010B5134822
:10134000006840F0010011490860084640681049F3
:1013500008400E494860084600680E4908400B499D
:1013600008600846006820F480200860084640684D
:1013700020F4FE0048604FF41F008860FFF767FF0D
:101380004FF000600449086010BD000000100240EA
:101390000000FFF8FFFFF6FE08ED00E000BFFEE7EB
:1013A0002DE9FC4100F0ABF800F0A1F810B10520E8
:1013B000BDE8FC8100F0E6F805460DB12846F7E7E8
:1013C000002600BF4FF0FF30009001AB04226946B9
:1013D0002B4801F0D1FA0446019868B1009800F05A
:1013E000FDF805460DB9761C06E0254801F00AF91E
:1013F00001F0E8FF0620DBE714B901980028E1D1ED
:1014000000F0E2F801221FA11D4801F037F904465F
:101410001CB101F0D7FF0720CAE71E4F002600BF0E
:101420004FF0FF30009001AB04226946144801F0F0
:10143000A3FA0446019868B138680099884202D13D
:101440003F1D761C06E00E4801F0DCF801F0BAFF03
:101450000720ADE714B901980028E1D1084801F050
:10146000D1F80DA001F097FF10B10BA001F064FDC1
:1014700009A104A001F087FB01F0A4FF002097E779
:10148000A00400206669726D776172652E62696ED4
:1014900000000000008000086F6C642E62696E001E
:1014A00000B500F005F808B9002000BD0420FCE7F5
:1014B00005480068A0F10050B0F5404F01D8002069
:1014C00070470220FCE700000080000802460B463F
:1014D0004FF460310020891A984101D300207047F1
:1014E0000320FCE710B5FFF7F0FA002010BD10B59F
:1014F000FFF776FE08B9002010BD0520FCE710B507
:10150000FFF765FE002010BD10B501F057FF08B9C8
:10151000012010BD01220EA1114801F0AFF818B151
:1015200001F050FF0220F4E70D48D0E904211046F5
:10153000FFF7CCFF30B10A4801F064F801F042FF38
:101540000320E6E7064801F05DF80020E1E700002F
:101550006669726D776172652E62696E00000000C7
:10156000A004002070B50548446825460449086079
:1015700001460868FEF737FEA84770BD00800008E6
:1015800008ED00E010B5012208A10C4801F076F842
:1015900004461CB101F016FF022010BD084809499D
:1015A0000860FFF79BF80020F7E700006669726D9E
:1015B000776172652E62696E00000000A004002051
:1015C000008000082000002010B5FFF747F802480F
:1015D00001F018F8002010BDA004002010B504464A
:1015E000144800681449884204D812480068134916
:1015F000884203D2FFF732F8062010BD21460D487D
:101600000068FFF735F804280ED10A480068006822
:10161000A04203D0FFF722F80620EEE70548006855
:10162000001D0449086003E0FFF718F80620E4E70E
:101630000020E2E720000020FCFF030800800008F3
:101640002DE9F04704460D4690469946AD1E606B65
:1016500000EB153AC5F3C80605F0070101208840E4
:10166000C7B200BF51460AF1010A204602F0D6FB7C
:1016700010B10120BDE8F08700BF00BF04F13C00BD
:10168000805D384008B1012000E00020484501D1CC
:101690000220EFE704F13C00805D784004F13C015A
:1016A00088550120E070A8F10100B0F1000800D1D8
:1016B000E0E77806000E071EE0D10127701C064601
:1016C000B0F5007FD9D30026CCE7000070B5044602
:1016D0000D460020E070401EA0632946204602F01F
:1016E0009DFB08B1042070BD04F23A2002F05FF8BF
:1016F0004AF65521884201D00320F4E70B2214A1B9
:1017000004F13C0002F017F908B90120EBE794F866
:101710003C00E92807D094F83C00EB2803D094F86B
:101720003C00E82811D103220CA104F1720002F060
:1017300002F908B90020D6E7052209A104F18E00BC
:1017400002F0F9F808B90020CDE70220CBE700004D
:10175000EB769045584641542020200046415400E5
:101760004641543332000000024600E0521C10781B
:1017700010B110788842F9D1107870470246891E5E
:10178000D069801E884201D8002070475389106BB1
:1017900003FB0100F9E700002DE9F04780460C4605
:1017A00004F11A0002F003F810B10020BDE8F08740
:1017B000207800F03F00401E00EB800101EBC005E7
:1017C0004FF00109002621E01849895D081901F050
:1017D000EEFF0746B9F1000F11D0FF2D0BD83846A8
:1017E00001F054FC824629466D1C38F8110001F0C6
:1017F0004DFC824501D00020D8E7B94605E04FF600
:10180000FF70874201D00020D0E7761C0D2EDBD37D
:10181000207800F0400038B1B9F1000F04D038F85A
:10182000150008B10020C1E70120BFE7DC45000832
:101830002DE9F04706468A463468BAF1000F0AD10E
:10184000D4F81480B8F1000F02D0E069404516D8F2
:101850004FF0010813E05146304601F01DFE0746E7
:10186000022F02D20120BDE8F087781C08B9384663
:10187000F9E7E069B84201D93846F4E7D046A069F3
:1018800008B90020EFE7207804284ED10122414614
:10189000204601F090FC05460DB1681C08B92846A9
:1018A000E1E701231A4629462046FFF7C9FE814693
:1018B000B9F1020F01D10120D5E7B9F1010F02D131
:1018C0004FF0FF30CFE7BAF1000F02D10220F071E4
:1018D0000CE0F079022809D108F10100854205D019
:1018E000B068A8EB0000B0610320F071F079022825
:1018F00069D00AF10100854207D1F06910B1F069A1
:10190000401C00E00220F0615DE0F06908B90120B0
:10191000F0612A465146304601F02BFC8146B9F170
:10192000000F50D10120F0614DE00025D04519D1C4
:1019300008F10105E069A84200D802252946304691
:1019400001F0AAFD0746012F01D0781C08B93846DE
:1019500089E73FB16769022F03D3E069B84200D934
:10196000B8460025E5B9454600BF6D1CE069A842B0
:1019700004D80225454501D9002074E729463046A0
:1019800001F08AFD074607B909E0012F01D0781C54
:1019900008B9384667E74545E7D1002063E700BF4F
:1019A0004FF0FF322946204602F098FA8146B9F1FD
:1019B000000F08D1BAF1000F05D02A465146204643
:1019C00002F08CFA8146B9F1000F0DD16561D4E9BE
:1019D0000610801E814202D8A069401EA0612079B5
:1019E00040F00100207107E0B9F1010F02D14FF082
:1019F000FF3000E001200546284634E72DE9F34F8B
:101A000083B08146049800680090D9F80000D0F8AF
:101A10000CA0002500BF684602F0F0FC83460BF1E5
:101A2000010018B9062005B0BDE8F08FBBF5803F76
:101A300005D34FEA1B4228466D1C2AF810201FFAD6
:101A40008BF4202C03DB2F2C01D05C2C00D111E077
:101A5000802C06DA21467BA0FFF786FE08B106201F
:101A6000E1E7FF2D01D30620DDE728466D1C2AF8AB
:101A70001040D0E700BF202C01DA04260CE000263D
:101A800002E00098401C0090009800782F28F8D0C1
:101A9000009800785C28F4D000990498016008E070
:101AA000681E3AF81040202C02D02E2C00D002E004
:101AB0006D1E002DF4D100BF00202AF815000DB9CD
:101AC0000620B0E7002700E07F1C3AF81700202826
:101AD000FAD01FB93AF817002E2801D146F00306B4
:101AE00000E06D1E25B1681E3AF810002E28F8D1CE
:101AF0000B22202109F1400001F03CFF4FF00008CB
:101B0000CDF808800820019000BF38467F1C3AF8C5
:101B1000104004B96AE0202C03D02E2C04D1AF422F
:101B200002D046F00306F0E7DDE90110884201D259
:101B3000AF4216D101980B2802D146F0030655E0BA
:101B4000AF4201D046F00306AF4200D94EE02F4627
:101B5000082002900B2001904FEA88604FEA10683D
:101B6000D3E7802C0EDB46F0020640F2B51120468A
:101B700001F06CFA044604F0800018B104F07F0014
:101B800033490C5CFF2C11DD0198401E02998842FC
:101B900004D846F0030601980290B6E72212029894
:101BA000411C029109F140010A5418E024B1214678
:101BB00028A0FFF7D9FD18B15F2446F003060EE018
:101BC000412C03DB5A2C01DC48F00208612C06DBB7
:101BD0007A2C04DC48F00108A4F1200084B20298B9
:101BE000411C029109F140010C548EE700BF99F8A5
:101BF0004000E52802D1052089F840000198082816
:101C000003D14FEA88604FEA106808F00C000C28F6
:101C100003D008F00300032801D146F0020606F0C5
:101C2000020048B908F0010008B146F0100608F0BB
:101C3000040008B146F008064B2000F809600020B7
:101C4000F1E60000222A3A3C3E3F7C7F0000000083
:101C5000E94500082B2C3B3D5B5D00002DE9F0477A
:101C600004460E4640220021204601F083FE8520D6
:101C70002070C02084F820004025002080460746C0
:101C80004FF0010900BFC12228466D1C22540022DA
:101C900028466D1C225400BFB9F1000F06D036F85B
:101CA0001700B0F1000901D0781CC7B2601949468D
:101CB00002F0E7FAAD1C05F01F000028ECD108F196
:101CC000010000F0FF0836F817000028DBD184F887
:101CD000237008F101006070304602F030FC82464B
:101CE000514604F1240002F0CCFABDE8F087014629
:101CF00009B1002070470020FCE72DE9F0410446BF
:101D00000E46D4F800800021204600F0A2FB0546D4
:101D10005DBB002700BF4046A16B02F07FF805467F
:101D200005B121E098F80000042805D1E06B0078A7
:101D3000012121EAD01009E0E06B0078E52802D00B
:101D4000E06B007808B9012000E0002020B1781C89
:101D50000746B04201D107E000270121204600F0EC
:101D600041F90546002DD6D000BF042D00D107252E
:101D70002846BDE8F0812DE9F04704468946204613
:101D800002F016FB10B10120BDE8F087494620465D
:101D9000FFF7F4FC0746A7634FF40072002104F13B
:101DA0003C0001F0E7FD60894FF40041B1EB402FAA
:101DB00001D8084601E06089400206464FF000085D
:101DC00000E07608B6F5007F05D9304601F032F91B
:101DD000B0F10008F5D0B6F5007F17D932460021E2
:101DE000404601F0C7FD760A002500E035446089D1
:101DF000A84207D97A1960783346414600F0D6FBED
:101E00000028F3D0404601F01BF910E004F13C0833
:101E10000126002500E035446089A84207D97A19D7
:101E200060783346414600F0C1FB0028F3D060895A
:101E3000A84201D00120A7E70020A5E72DE9F04F37
:101E400085B0044625680021204600F002FB0746C5
:101E50001FB1384605B0BDE8F08F287804284CD172
:101E6000E86802F06CFB01903EE0296901F1240072
:101E700001F09DFC0199884200D035E0286990F876
:101E8000230003904FF0400A002002901FE00AF068
:101E90001F0008B90AF1020A296901EB0A0001F0E2
:101EA00086FC009001F0F2F88346EA68029932F865
:101EB000110001F0EBF8834500D00BE00398401EC1
:101EC000C0B203900AF1020A0298401C02900398E3
:101ED0000028DCD100BF039828B9E968029831F8DE
:101EE000100000B906E000BF0021204600F0EAF82B
:101EF000071EBAD000BF3846ACE74FF0FF09CDF857
:101F000010904FF0FF30E06400BF2846A16B01F055
:101F100085FF074607B162E0E06B06780EB904273B
:101F20005DE0E06BC07A00F03F0884F80680E52EA3
:101F300005D008F0080040B1B8F10F0F05D04FF000
:101F4000FF094FF0FF30E06442E0B8F10F0F22D1FB
:101F50004B20005D00F04000A0BB06F0400038B10F
:101F6000E06B407B049006F0BF06B146206BE06456
:101F70004E450CD1E06B417B0498814207D1E16B67
:101F8000E868FFF709FC10B1A9F1010000E0FF20AB
:101F900000F0FF091CE0B9F1000F06D1E06B02F080
:101FA000AFF90499884200D119E04B20005D00F0A0
:101FB000010040B90B2204F14001E06B01F0BBFCD1
:101FC00008B90CE004E04FF0FF094FF0FF30E06487
:101FD0000021204600F006F80746002F95D000BFEC
:101FE000384637E72DE9F041044688462768206BDC
:101FF00000F120063878042801D1800601E04FF472
:102000000010B04201D80020A063A06B10B90420DA
:10201000BDE8F081C6F3080000284AD1A06B401C3F
:10202000A063606B38B93889B0EB561F41D80020E7
:10203000A0630420ECE77889401E00EA56200028BF
:1020400037D12046616B01F027FA0546012D01D8F2
:102050000220DDE7681C08B90120D9E7F869A84229
:1020600021D8B8F1000F03D10020A0630420CFE7EE
:102070002046616BFFF7DCFB05460DB90720C7E77B
:10208000012D01D10220C3E7681C08B90120BFE778
:1020900029463846FFF76FFE08B10120B8E7E0791E
:1020A00040F00400E071656329463846FFF766FB9F
:1020B000A0632663C6F3080107F13C000844E0630F
:1020C0000020A5E72DE9F05F04468A46042627682C
:1020D0004FF0FF09CB4667E03846A16B01F09EFE4A
:1020E000064606B163E0E06B05780DB904265EE0B4
:1020F000387804280FD100BF852D4ED1206BE064C5
:10210000204601F07AFB064626B93869007900F0CE
:102110003F00A0714BE0E06BC07A00F03F0884F80C
:102120000680E52D0AD02E2D08D028F020000828A2
:1021300001D1012000E00020504502D04FF0FF09FE
:102140002BE0B8F10F0F1CD105F0400038B1E06B67
:1021500090F80DB005F0BF05A946206BE0644D4531
:102160000BD1E06B407B584507D1E16BF86801F07B
:102170006FFE10B1A9F1010000E0FF2000F0FF099F
:102180000BE0B9F1000F04D1E06B02F0B9F858454B
:1021900002D04FF0FF30E06409E000212046FFF755
:1021A00021FF064606B102E0A06B002894D100BFD3
:1021B0000EB10020A0633046BDE8F09F2DE9F04F3E
:1021C00099B0044626684B20005D00F0A00018B1CD
:1021D000062019B0BDE8F08F4FF0000B01E00BF1C5
:1021E000010BF06830F81B000028F8D13078042883
:1021F00066D10BF10E000F21B0FBF1F000F10209E6
:1022000049462046FFF779FD05460DB12846E0E72F
:10221000A9F101002022216B02FB1010E064E0799B
:1022200000F00400002845D0E07920F00400E071BF
:10223000204600F083FF05460DB12846C9E74FF060
:10224000FF322046616B00F094FF05460DB1284631
:10225000BFE7A06870B32146684601F0AEFA0546B4
:102260000DB12846B5E770894002D4E90431181849
:1022700041F10001C4E90401D4E90473316901F1B9
:1022800038003A4601F0CFFFD4E90473316901F117
:1022900028003A4601F0C7FFE07940F001003169BB
:1022A00081F82100684601F0F2FF05460DB128468D
:1022B0008FE700BFD6E90310FFF7D0FC002088E7C6
:1022C0000C2204F1400115A801F047FB9DF85F00C6
:1022D00000F0010028B340214B2001554FF0010AC6
:1022E0000EE0534615A904F14000F26801F06EF8C3
:1022F0002046FFF7A3FD054605B104E00AF1010AF7
:10230000BAF1640FEDD300BFBAF1640F01D1072019
:102310005FE7042D01D028465BE79DF85F104B2056
:1023200001559DF85F0000F0020030B10BF10C0088
:102330000D21B0FBF1F0401C00E001208146494630
:102340002046FFF7DAFC054675BBA9F10100B0F1A4
:10235000000929D0206BA0EB4911204600F079F844
:1023600005460DBB04F1400001F0CAFF149000BF08
:102370003046A16B01F052FD054605B113E009F0AE
:10238000FF02E16BF068149B01F04AFE0120F0703F
:1023900000212046FFF726FE054625B9A9F10100D8
:1023A000B0F10009E4D100BFC5B93046A16B01F01E
:1023B00035FD054695B920220021E06B01F0DAFADF
:1023C0000B2204F14001E06B01F0C7FA4B20005DE5
:1023D00000F01800E16B08730120F0702846F8E661
:1023E0002DE9F04104462668276BE06C401C08B9D3
:1023F000002003E02046E16C00F02BF805462DBBE1
:1024000000BF3046A16B01F009FD054605B119E09A
:102410003078042806D1E06B007800F07F00E16B93
:10242000087002E0E520E16B08700120F070206B7D
:10243000B84200D306E000212046FFF7D3FD054651
:10244000002DDED000BF042D00D102252846BDE8B6
:10245000F0812DE9F04104460D46266830780428C5
:1024600001D1800601E04FF40010A84202D905F026
:102470001F0010B10220BDE8F0812563A7682FB9C5
:102480003078032802DBF76A0020E07147B9308911
:10249000B0EB551F01D80220EDE7F06AA0631CE005
:1024A00070894FEA402811E03946204600F0F4FFD9
:1024B0000746781C08B90120DDE7022F02D3F06936
:1024C000B84201D80220D6E7A5EB08054545EBD276
:1024D00039463046FFF752F9A0636763A06B08B92D
:1024E0000220C8E7A06B00EB5520A063C5F30801EC
:1024F00006F13C000844E0630020BCE770B50446E8
:10250000002504E001200D494855681CC5B2022D84
:10251000F8DB14B1012C0BD109E0FEF7F3FA28B96E
:102520000648005D20F001000449085502E001E082
:10253000042070BD00BF0148005DFAE710000020D4
:1025400003460BB9002070470420FCE72DE9F04159
:1025500004460E4617461D4615B90420BDE8F08115
:102560000C48005D00F0010008B10320F6E714B14B
:10257000012C0CD109E0EAB239463046FEF792FB55
:1025800008B90020EAE70120E8E70120E6E7042097
:10259000E4E70000100000200146022901DB0120D1
:1025A00070470148405CFBE7100000202DE9F04136
:1025B00004460E4617461D4615B90420BDE8F081B5
:1025C0000F48005D00F0010008B10320F6E70C4859
:1025D000005D00F0040008B10220EFE714B1012C07
:1025E0000CD109E0EAB239463046FEF763FC08B97F
:1025F0000020E3E70120E1E70120DFE70420DDE739
:102600001000002038B50546284600F0BFFB044600
:102610003CB96946284601F057FF04460CB9002032
:102620002860204638BD0000F7B582B016460398F2
:10263000019001A800F0F8FF0546002D02DA0B20FA
:1026400005B0F0BD0C4850F825400CB100202070BA
:10265000029810B10020029908700749029841F8C9
:1026600025000EB90020EBE7002202A903A801F023
:102670009BF907463846E3E7140000202DE9F74FA1
:1026800098B0044616461CB909201BB0BDE8F08F6F
:1026900006F03F06324603A919A801F085F9054660
:1026A000002D7AD1039804904FF48C6000F0C2FCA6
:1026B0008346BBF1000F01D11120E6E70398C0F873
:1026C0000CB00BF500700399086104A8199900F08B
:1026D00000FE05462DB99DF85B0000F0800000B1BA
:1026E000062506F01C0000287DD045B1042D03D13D
:1026F00004A8FFF763FD054646F008060AE09DF8CA
:10270000160000F0110008B1072503E006F00400F0
:1027100000B10825002D3FD106F0080000283BD06D
:1027200003980078042839D1039820602146039843
:1027300000F0D4FF03990969881C1E22002101F0D2
:1027400019F90399096901F126001A22002101F003
:1027500011F920200399096908710399096901F1A8
:102760000800844901F053FD01200399096981F8AB
:10277000210004A801F08BFD0546002D53D1A0686F
:10278000002850D000222046A16801F089FC0546AF
:10279000A068401E0399486145E0E5E0139903985D
:1027A00000F0B5FF0290139901F10E00714901F09C
:1027B0002EFD20201399C87200221399039801F06E
:1027C00014FD139901F11C00002101F020FD0120EE
:1027D0000399C870029830B30398806B019000226F
:1027E00004A8029900E00DE001F05AFC0546D5B9B5
:1027F0000199039801F012FB05460298401E0399C7
:10280000486110E07DB99DF8160000F0100008B195
:10281000042508E006F0020028B19DF8160000F03B
:10282000010000B107254DB906F0080008B146F0D7
:1028300040060398806BA0641398E064002D7BD160
:102840000398007804280FD106982062089820F099
:10285000FF009DF81710084360621798A062214698
:10286000039800F03BFF0CE01399039800F04FFF32
:10287000A060139901F11C0000F05CFF0021C4E985
:102880000401039820600398C088A08084F8306019
:10289000002084F8310060640021A163E1634FF4FB
:1028A000007204F1500001F065F806F020000028E5
:1028B00057D00023D4E9041059405840014350D068
:1028C000D4E90401C4E90E01039840894FEA402984
:1028D000D4F808A0D4E9047810E05146204600F06E
:1028E000DBFD8246BAF1010F00D802250AF1010092
:1028F00000B90125B7EB090768F100082DB90020E0
:10290000B9EB070170EB0800E7D3C4F840A09DB90C
:102910004FF40072002338464146FDF7E1FC0021E8
:102920004A404B401A431CD051460398FEF726FFFD
:102930000190019808B9022513E04FF400720023BA
:1029400038464146FDF7CCFC019908446064626C4E
:1029500003994878012304F15001FFF7F7FD00B116
:102960000125584600F06CFB0DB100202060284680
:102970008BE600000000214E2DE9FF4F87B0044692
:1029800015460898039000210A98016005A9204681
:1029900001F09AFD0690069818B994F83100069057
:1029A00018B106980BB0BDE8F08F94F8300000F035
:1029B000010008B90720F5E7D4E90430D4E90E1284
:1029C0005F1A60EB0208791B78F1000000D23D46E7
:1029D000D4E0D4E90E014FF400720023CDE90001E8
:1029E000FDF77EFC00214A404B401A4370D1D4E9E8
:1029F0000E014FF400720023CDE90001FDF770FCD9
:102A000005994989491E00EA010ABAF1000F1ED151
:102A10000023D4E90E1059405840014302D1A06868
:102A2000049004E02046216C00F036FD04900498E8
:102A3000022803D2022084F83100B3E70498401C36
:102A400018B9012084F83100ACE704982064216CA7
:102A50000598FEF793FE8146B9F1000F03D10220DD
:102A600084F831009EE7D1444FEA552BBBF1000FAB
:102A70002FD00AEB0B0005994989884203D90598A4
:102A80004089A0EB0A0B059948785B464A460399B2
:102A9000FFF75CFD18B1012084F8310082E794F85B
:102AA000300000F0800080B1606CA0EB0900584558
:102AB0000BD2616CA1EB0901039A02EB41204FF4A8
:102AC000007204F1500100F048FF4FEA4B2645E048
:102AD00029E0606C484524D094F8300000F0800074
:102AE00090B1626C05994878012304F15001FFF719
:102AF0005DFD18B1012084F8310053E794F83000EF
:102B000000F07F0084F830000599487801234A4698
:102B100004F15001FFF71AFD18B1012084F83100CB
:102B200040E7C4F84490208FC0F30800C0F5007659
:102B3000AE4200D92E46D4E90E014FF400720023B4
:102B4000CDE90001FDF7CCFB04F150001044324602
:102B500001460290039800F000FF00BFAD1B0A98E9
:102B6000006881190A980160039830440390D4E901
:102B70000E20921940F10000C4E90E20002D7FF4D0
:102B800028AF00200EE72DE9F347BAB03BA800F0CC
:102B90004BFD022211A93AA800F006FF0446002CC2
:102BA0007DD1119826904FF48C6000F043FA0646D0
:102BB0001EB911203CB0BDE8F0871198C66006F53B
:102BC00000701199086126A83A9900F082FB04462A
:102BD0002CB99DF8E30000F0A00000B10624002C01
:102BE0007BD11198007804285DD1119840220169A9
:102BF00001A800F0B2FE502226A912A800F0ADFEF6
:102C000012A83B9900F065FB04465CB9289914981A
:102C1000884205D132991E98884201D1042000E0F3
:102C200008200446042C3DD112A8FFF7C7FA044639
:102C3000B4BB1198006990F801801198006990F870
:102C400023901199096901F1240000F0B0FD82463A
:102C500011994022086901A900F07FFE11980069CE
:102C600080F801801198006980F823901199096912
:102C700001F12400514601F004FB1198006900792C
:102C800000F0100038B911980069007940F0200078
:102C900011990969087112A801F0F9FA01E072E0CE
:102CA00000E0044662E0202201A8359900F055FEBC
:102CB000502226A912A800F050FE12A83B9900F05D
:102CC00008FB044664B928991498884206D13299C1
:102CD0001E98884202D1042001E051E008200446F9
:102CE000042C43D112A8FFF769FA04464CBB219D7E
:102CF00013220DF1110105F10D0000F02EFE9DF8DB
:102D00000F00E872E87A00F0100018B9E87A40F095
:102D10002000E87201201199C870E87A00F01000D4
:102D200078B114992898884220D02946119800F04B
:102D3000EEFC804641461198FEF720FD07460FB98C
:102D4000022413E03946119801F068F804461198FE
:102D500000F15C0554B968782E2807D12946149AE9
:102D6000119801F042FA01201199C87044B926A8BF
:102D7000FFF736FB04461CB9119801F0D1FA04465E
:102D8000304600F05DF9204614E700002DE9F047D9
:102D900096B0044614A9204601F096FB0546002D86
:102DA0007ED194F8300000F04000002878D094F8EC
:102DB000300000F0800090B1626C149948780123D3
:102DC00004F15001FFF7F2FB18B1012016B0BDE885
:102DD000F08794F8300000F07F0084F83000DFF8CE
:102DE00054A114980078042875D1204600F0A6F963
:102DF000054635B94FF0FF322046216C00F0B9F995
:102E00000546002DCCD14FF48C6000F013F98146BB
:102E1000B9F1000F01D11120D8E71498C0F80C9037
:102E200009F50070149908612146684600F0C5FC58
:102E30000546002D4AD114980069007940F0200021
:102E4000149909690871E07940F001001499096941
:102E500081F82100A168149A126902F1340001F08E
:102E6000D6F9D4E904731499096901F138003A4696
:102E700001F0D9F9D4E904731499096901F1280022
:102E80003A4601F0D0F91499096901F10C00514654
:102E900001F0BDF90020149909694875149900E002
:102EA00045E0096901F11000002101F0B0F9684620
:102EB00001F0EDF905464DB9149801F031FA0546D7
:102EC00094F8300000F0BF0084F83000484600F06D
:102ED000B7F82CE0FFE7A16C149800F09FFF0546BF
:102EE0002DBBE66CF07A40F02000F0723146A2680B
:102EF000206801F07AF906F11C00216901F087F9D8
:102F0000514606F1160001F082F9002106F1120087
:102F100001F0B7F901201499C870149801F000FA73
:102F2000054694F8300000F0BF0084F830002846D1
:102F30004CE700000000214E71B5B7B00026022218
:102F40000DA937A800F030FD0446002C70D10D9873
:102F500022904FF48C6000F06DF8054615B91120F1
:102F600038B070BD0D98C56005F500700D99086109
:102F700022A8379900F0ADF9044600BF002C54D1C7
:102F80009DF8D30000F0800008B1062405E09DF80C
:102F90008E0000F0010000B10724A4BB0D98009042
:102FA0000D980078042805D169460D9800F096FB2D
:102FB000029E04E031990D9800F0A9FB06469DF8A9
:102FC0008E0000F01000F0B10D980E9010960D9844
:102FD0000078042807D1DDE90401CDE912019DF84C
:102FE00007008DF83F0000210EA8FFF732FA0446D3
:102FF0004CB900210EA8FFF765F8044604B9072470
:10300000042C00D1002484B922A8FFF7E9F9044672
:1030100034B92EB100223146684601F041F8044629
:103020001CB90D9801F07CF90446284600F008F818
:10303000204695E710B504462046FDF7FBF810BD85
:1030400010B504462046FDF724F910BD10B5024620
:1030500000200D4B802A01D290B213E0B2F5803FE0
:1030600010D240F2B514A1420CD1002001E0441C62
:10307000A0B2802803DA33F810409442F7D100F16F
:103080008004E0B210BD00006A46000870B5B0F5DB
:10309000803F4DD281B2B1F5805F01DA254E00E06C
:1030A000254E324600BF32F8023B0BB1994200DA9E
:1030B0003CE032F8024B2512E4B21E198E4230DD9C
:1030C000092D2CD2DFE805F005090F13171B1F236C
:1030D0002700CE1A32F8161021E0CE1A06F00106AB
:1030E0008E1BB1B21BE0A1F11006B1B217E0A1F145
:1030F0002006B1B213E0A1F13006B1B20FE0A1F1A8
:103100001A06B1B20BE001F10806B1B207E0A1F175
:103110005006B1B203E0A1F5E356B1B200BF00BF63
:1031200004E0002DBFD102EB4402BCE700BF08461B
:1031300070BD00006A4700085C4900082DE9F041B5
:103140000446E079032812D1A568A7690BE06A1C40
:103150002946206800F0C2FE064616B13046BDE89A
:10316000F0816D1C7F1E002FF1D10020E071002046
:10317000F5E72DE9F04104460D46174616E0E369F0
:10318000012B03D9E369EB1A9B1C00E03B461A466E
:10319000E369EB1A591C206800F0A0FE064616B140
:1031A0003046BDE8F081E069401EE061E06900283A
:1031B000E5D100BFF5E72DE9F74F05460E46B61EEF
:1031C000E869801EB04200D800263446A2464FF07F
:1031D000000B00BF686B00EB1431284600F01EFEA8
:1031E00018B14FF0FF30BDE8FE8FC4F3C80904F0FA
:1031F000070101208840C7B200BF00BF05F13C00B5
:1032000010F8090000EA07087806070E601C04465B
:10321000E969891E884203D3002400274FF400790E
:10322000B8F1000F08D10BF10100834602998842E2
:1032300005D10AF10200D6E7A2464FF0000BB442D6
:1032400001D10020CFE7002FD8D1012709F10100DB
:103250008146B0F5007FD0D3BCE72DE9FF4107469A
:103260000D4600213846FEF731FA0646022E06D0FA
:10327000032E00D21DB9304604B0BDE8F08100BF76
:1032800000240AE007F5FD7101EB041101F10800CB
:1032900000F050FA4DF82400641C042CF2D30DB158
:1032A000681E00E00020044600BF5DF8240028B13D
:1032B0005DF824103846FEF709FA00E003200646C0
:1032C0002DB9022E03D3601C04460428EDD33046EA
:1032D000D2E72DE9F3410446276802E00198401C3B
:1032E0000190019800782F28F8D0019800785C2888
:1032F000F4D00020A060E06101980078202808D276
:1033000080214B20015500212046FFF7A2F80546F9
:103310003EE000BF01A92046FEF770FB054605B15F
:1033200035E02046FEF78AFD05464B20065D3DB19F
:10333000042D04D100BF06F0040000B9052526E0E5
:1033400006F0040000B122E0A07900F0100008B9F6
:1033500005251CE0387804280ED1A0682062206979
:1033600020F0FF00E17908436062E06CA062214632
:10337000384600F0B3F909E0208EC0F3080207F1E7
:103380003C001118384600F0C2F9A060C2E700BF47
:103390002846BDE8FC8110B5ADF5147D0446002239
:1033A00021466846FFF76AF930B96846FFF72AF9FF
:1033B00001200DF5147D10BD0020FAE710B500F0D6
:1033C000E3FA10BD10B501F071F810BD2DE9FF4F03
:1033D00083B0804691461E460B224046049900F079
:1033E000BCFA052E18D9374611E039F802BB002582
:1033F0000BE0584667F35F0007464FEA6B0B07F494
:10340000803008B1234847406D1C102DF1D3B9F826
:1034100000000028E9D13E46072500BF06F00F0056
:1034200000F1300ABAF1390F03DD0AF1070000F0AC
:10343000FF0A28466D1E01A901F800A03609002EDA
:10344000ECD17E20485500240AE018F80400FEF76D
:103450004EFC20B1681EA04200D107E0641C641C31
:10346000AC4203D218F804002028EED100BF00BF00
:10347000082D04D228466D1C01A9085C00E020201C
:103480002146641C08F80100082CF1D307B0BDE800
:10349000F08F0000211001002DE9FC5F06460C466C
:1034A0003568022C02D3E869A04202D84FF0010926
:1034B000B7E04FF0FF392878012806D0022830D035
:1034C000032841D004287CD152E0274607EB570758
:1034D000A86A00EB5721284600F0A0FC00B19FE04D
:1034E00038467F1CC0F3080105F13C0010F801804C
:1034F000A86A00EB5721284600F090FC00B18FE04D
:10350000C7F3080105F13C00405C48EA002804F0DC
:10351000010010B14FEA181001E0C8F30B0081461A
:103520007EE0A86A00EB1421284600F077FC00B189
:1035300076E040F2FF1101EA440205F13C01501827
:1035400000F035F981466BE0A86A00EBD4112846FB
:1035500000F064FC00B163E040F2FF1101EA840274
:1035600005F13C01501800F0E5F820F0704957E0F3
:103570000022D6E9041051405040014301D0B06808
:1035800008B9F07990BBB068A4EB000AD6E9042032
:10359000521E60F10000CDE900204FF400720023BC
:1035A000DDE90001FCF79CFE6989B0FBF1FBF079D5
:1035B00002280AD1DA4508D8DA4503D16FF0004075
:1035C00001E02AE0601C81462AE0F079032805D159
:1035D000B069504502D904F1010921E0F0790228CF
:1035E00019D0F06918B16FF0004913E014E0A86A2F
:1035F00000EBD411284600F011FC00B110E040F2BD
:10360000FF1101EA840205F13C01501800F092F824
:1036100020F0004904E000BF00BF4FF0010900BFE7
:1036200000BF4846BDE8FC9FF0B506464FF0FF30AE
:10363000D6F800C06146634601B9F0BD00BF13F87B
:10364000012B202A01D33A2AF9D13A2A40D1022566
:1036500091F800C0BCF1300F0DDB91F800C0BCF157
:10366000390F08DC01F1020C9C4504D191F800C02F
:10367000ACF1300527E0002500BFDFF85CC05CF846
:103680002570316800BF17F8014B11F8012B612C30
:1036900005DB7A2C03DCA4F1200C0CF0FF04612A7A
:1036A00005DB7A2A03DCA2F1200C0CF0FF020CB13E
:1036B0009442E8D00CB9994205D005F1010C654659
:1036C000BCF1020FD9DB022D01DA28463360B4E7E2
:1036D000002000BFB1E70000D445000870B50546E2
:1036E0000C46296901F1340000F024F8A060296932
:1036F00001F1380000F02AF8C4E90401286990F8C3
:10370000210000F00200E0710020E06170BD70B5A2
:1037100005460C4604F11A0000F049F806462878E0
:10372000032805D104F1140000F041F846EA0046F0
:10373000304670BD0146C8788A7842EA00204A784F
:1037400042EA00200A7842EA0020704770B502463B
:10375000D3790024250245EA1364907940EA0323D3
:10376000250245EA1364507940EA0323250245EA1D
:103770001364107940EA0323250245EA1364D078E4
:1037800040EA0323200240EA1364917841EA0323CC
:10379000210241EA1364507840EA0323250245EAF6
:1037A0001364117841EA03231846214670BD01468F
:1037B00048780A7842EA0020704770B504460D4602
:1037C00028682060286AA06095F82400E071686A83
:1037D00020F0FF000021C4E904010020E061A86A94
:1037E000E0642046E16CFEF734FE06461EB9204632
:1037F00000F003F80646304670BD2DE9F047044658
:1038000020680669A16B206800F008FB054615B129
:103810002846BDE8F087E06B0078852801D00220BB
:10382000F7E720223046E16B00F097F87078401CF3
:103830004FEA4018B8F1600F02D3B8F5187F01D9EC
:103840000220E6E700212046FEF7CCFB0546042DCA
:1038500000D102250DB12846DBE7A16B206800F0FE
:10386000DDFA05460DB12846D3E7E06B0078C028A5
:1038700001D00220CDE7202206F12000E16B00F00C
:103880006CF896F823002C300F21B0FBF1F0B8EB68
:10389000401F01D20220BCE7402700BF0021204684
:1038A000FEF7A0FB0546042D00D102250DB12846E8
:1038B000AFE7A16B206800F0B1FA05460DB12846CC
:1038C000A7E7E06B0078C12801D00220A1E7B7F597
:1038D000187F04D2F0192022E16B00F03EF807F1C6
:1038E000200007464045D9D3B7F5187F0AD830469F
:1038F00000F008FE8146B01CFFF759FF814501D05A
:10390000022086E7002084E74FF4A060FDF780F8EE
:10391000FDF7FAFD00B108E0FDF742FD00B104E05B
:10392000FDF7BEFD00B100E000BFFDF7DBFDFDF7D8
:1039300019FE00BFFEE7F0B503461D460C46002009
:1039400000BF15F8017B14F801CBA7EB0C00561E45
:10395000321E01D00028F4D0F0BD30B503460C462D
:103960003AB100BF14F8015B03F8015B551E2A1E33
:10397000F8D130BD10B5034600BF03F8011B541E3B
:10398000221EFAD110BD000010B5012204A1054885
:10399000FEF74AFE08B9012010BD0020FCE7000038
:1039A00053443A00240000202DE9F74F8CB0002149
:1039B0000D9801600C98FFF737FE0A900A980028CE
:1039C00003DA0B200FB0BDE8F08FFE490A9851F8DA
:1039D00020400CB90C20F5E70D9804600E9800F01B
:1039E000FE000E90207878B16078FEF7D5FD834612
:1039F0000BF0010040B90E9820B10BF0040008B1A3
:103A00000A20DFE70020DDE7002020700A986070C0
:103A10006078FEF773FD83460BF0010008B10320C8
:103A2000D0E70E9820B10BF0040008B10A20C9E7D6
:103A300000212046FFF711FC0746042F01D1012089
:103A4000C0E7022F01D30D20BCE7A56B012F76D173
:103A50004FF00B0901E009F10109B9F1400F05D25E
:103A600004F13C0010F809000028F4D0B9F1400F2F
:103A700001D20D20A6E704F1A400FFF798FEB0F5EF
:103A8000807F01D00D209DE794F8A8100120884088
:103A9000B0F5007F01D00D2094E704F18400FFF71A
:103AA00055FE03460846591940F10000CDE90410BF
:103AB000DDE90410091E70F1010001D30D2081E73A
:103AC00004F19000FFF736FE206294F8AA00A0707F
:103AD000A078012801D00D2074E794F8A9100120E6
:103AE00088406081608908B90D206BE704F1980077
:103AF000FFF720FE0646B4498E4201D90D2061E74A
:103B0000B01CE061656204F19400FFF713FE2844E5
:103B1000206304F18C00FFF70DFE2844A0624FF0F3
:103B2000000C608900FB06F1226B53184CEB0C0172
:103B3000DDE90420D21A884102D20D2042E76CE070
:103B400004F19C00FFF7F6FDE0620020814603903F
:103B500000BFB9F1000F16D161890398814201D8E5
:103B60000D202FE72046E16AFDF708FE039908447F
:103B700001460190204600F051F908B1012021E7EB
:103B80000398401C039004F13C0010F809008128C0
:103B900000D104E009F12000C0F30809D9E700BF13
:103BA00004F13C01494401F11400FFF7C3FD8046D4
:103BB000B8F1020F02D3E069404501D80D2001E7BA
:103BC0006289A8F10200216B02FB0010606300BF54
:103BD000A06A00EBD811204600F020F908B10120BE
:103BE000F0E608F07F0104F13C0202EB8100FFF7F0
:103BF000A1FD02900298401C00B907E008F1010005
:103C0000804602998842E3D00D20DBE600BF4FF0EA
:103C1000FF30A06160610427F0E004F14700FFF786
:103C2000C6FDB0F5007F01D00D20CBE604F15200B7
:103C3000FFF7BDFD8246BAF1000F04D104F1600028
:103C4000FFF778FD8246C4F820A04C20005DA070EC
:103C5000A078012804D0A078022801D00D20B1E678
:103C6000A0780AFB00FA4920005D6081608918B1E4
:103C70006089411E084008B10D20A3E604F14D0003
:103C8000FFF795FD2081207A00F00F0008B10D208C
:103C900098E604F14F00FFF78AFD0990099820B9D2
:103CA00004F15C00FFF746FD099004F14A00FFF7BC
:103CB0007EFD0690069808B90D2083E606985044CC
:103CC000218900EB11100890DDE90801814201D241
:103CD0000D2077E6DDE90810401A6189B0FBF1F6A6
:103CE0000EB90D206EE600273848864200D803271B
:103CF0004FF6F570864200D8022740F6F5708642EE
:103D000000D801270FB90D205CE6B01CE0616562A8
:103D100006982844A062089828442063032F13D1F2
:103D200004F16600FFF743FD08B10D204AE6208943
:103D300008B10D2046E604F16800FFF7FBFCE062E5
:103D4000E0698000079014E0208908B90D2039E669
:103D5000A06A5044E062022F02D1E069400007E00F
:103D6000207F00F00100E16901EB410100EB51000F
:103D70000790216A079800F2FF10B1EB502F01D293
:103D80000D201FE64FF0FF30A061606180202071A0
:103D9000032F33D104F16C00FFF709FD01282DD169
:103DA000691C204600F03AF840BB0020207104F264
:103DB0003A20FFF7FCFC4AF6552188421ED104F157
:103DC0003C0005E014000020FDFFFF7FF5FFFF0F22
:103DD000FFF7B0FC0E49884210D104F50870FFF7D8
:103DE000A9FC0C49884209D104F50970FFF7A2FC2F
:103DF000A06104F50A70FFF79DFC6061277006481A
:103E00000088401C80B204490880E0800020D9E589
:103E100052526141727241611C00002070B504462B
:103E20000D460026A06BA84210D0204600F0C0FA34
:103E300006465EB9607801232A4604F13C01FEF78C
:103E400085FB10B14FF0FF350126A563304670BDEC
:103E50002DE9F04780460C4604F11A00FFF7A7FC55
:103E600010B10020BDE8F087207820F04000401E0F
:103E700000EB800101EBC0054FF00109002619E0BD
:103E80001549895D0819FFF792FC0746B9F1000F43
:103E900009D0FF2D01D90020E4E7B94628466D1C62
:103EA00028F8107005E04FF6FF70874201D000201F
:103EB000D8E7761C0D2EE3D3207800F0400048B1FF
:103EC000B9F1000F06D0FF2D01D90020CAE700206C
:103ED00028F815000120C5E7DC4500082DE9F0476A
:103EE00004460D4616464FF00209022D77D3E069CD
:103EF000A84274D92078012806D002284BD0032884
:103F000061D004280DD15FE02F4607EB5707A06A68
:103F100000EB57212046FFF781FF8146B9F1000FE2
:103F200000D079E038467F1CC0F3080104F13C0062
:103F300001EB000805F0010028B1F1B298F800008B
:103F400061F31F1000E0304688F800000120E070A7
:103F5000A06A00EB57212046FFF760FF8146B9F1C8
:103F6000000F00D058E0C7F3080104F13C0001EB5A
:103F7000000805F0010010B1C6F3071006E098F83C
:103F8000000000F0F000C6F30321084388F80000A9
:103F90000120E07040E0A06A00EB15212046FFF709
:103FA0003DFF8146B9F1000F00D035E0B1B240F2DB
:103FB000FF1202EA450304F13C02981800F061F98F
:103FC0000120E07028E000BFA06A00EBD511204678
:103FD000FFF724FF8146B9F1000F01D01CE01CE07F
:103FE000207804280BD040F2FF1101EA850204F189
:103FF0003C015018FFF79EFB66F31B00064640F29B
:10400000FF1101EA850204F13C015018314600F02D
:10401000FEF80120E07000BF00BF4846BDE8F08711
:104020002DE9F04707460C461546984684F80D8062
:104030000F20E07200202073002104F11A0000F02C
:1040400020F9681E00EB800101EBC0090020064644
:10405000824600BF4FF6FF70864204D0484609F101
:10406000010937F810600D4911F80A100819314696
:1040700000F007F90EB94FF6FF760AF1010082460B
:104080000D28E7D34FF6FF70864202D037F81900AB
:1040900008B945F040052570BDE8F087DC4500080B
:1040A0002DE9F05F06460F4690464FF0000935684F
:1040B000BA46BB46022F02D3E869B84202D80220B2
:1040C000BDE8F09FB8F1000F11D02878042802D184
:1040D000F07902280BD04FF0FF3241462846FFF717
:1040E000FDFE8146B9F1000F01D04846E8E700BF68
:1040F00039463046FFF7D0F9044604B93EE0012CBA
:1041000001D10220DCE7601C08B90120D8E728783B
:1041100004280AD0002239462846FFF7DFFE8146F0
:10412000B9F1000F01D04846CAE7D5E90610801E54
:10413000814206D2A869401CA861287940F001009C
:1041400028710BF10100A04201D1A34612E02878AA
:1041500004280DD1ABEB0A00421C0023514628462F
:10416000FDF76EFA8146B9F1000F01D04846A7E786
:10417000A346A2462746E869B842B9D800BF2878C6
:10418000042830D1B8F1000F02D10020F0712AE0EC
:10419000F079D8B9B76811E039463046FFF77CF9B5
:1041A0000446022C01D202208AE7601C08B90120D3
:1041B00086E7781C844200D002E07F1C4745EBD1A3
:1041C00000BF47450FD10220F0710CE0F0790328C1
:1041D00009D1B068404506D8B169B0680844404587
:1041E00001D30220F07100206AE770B506460C4644
:1041F0001546A9B204F11A0000F043F830780328FC
:1042000004D1290C04F1140000F03BF870BD00F853
:10421000011B090A00F8011B090A00F8011B090A21
:1042200000F8011B704730B500F8012B110A41EA74
:1042300003621B0A00F8012B110A41EA03621B0A00
:1042400000F8012B110A41EA03621B0A00F8012B56
:10425000110A41EA03621B0A00F8012B110A41EA24
:1042600003621B0A00F8012B110A41EA03621B0AD0
:1042700000F8012B110A41EA03621B0A00F8012B26
:1042800030BD00F8011B091200F8011B70472DE931
:10429000F041044620680569284600F033F980465D
:1042A0004146A81CFFF7EDFF6878471C2046E16CEB
:1042B000FEF7CFF8064618E0A16B2068FFF7AEFDC9
:1042C000064606B113E020222946E06BFFF745FBC6
:1042D00001202168C870781E071E00D107E0203534
:1042E00000212046FDF77EFE0646002EE4D000BFEA
:1042F0000EB1012E02D13046BDE8F0810220FBE76D
:1043000030B5014600200B2200BF431003EBC01460
:1043100011F8015B6319D8B2531E1A1EF5D130BDD6
:1043200070B50446204600F043F80546002D38D10C
:10433000207803282ED1207901282BD14202002198
:1043400004F13C00FFF716FB4AF6552104F23A202F
:10435000FFF797FF144904F13C00FFF758FF13499A
:1043600004F50870FFF753FF04F50970A169FFF722
:104370004EFF04F50A706169FFF749FF606A401C4F
:10438000A0636078012304F13C01A26BFEF70EF9F3
:1043900000202071607800221146FEF7D1F800B1AC
:1043A0000125284670BD0000525261417272416180
:1043B00070B504460025E078E8B16078012304F187
:1043C0003C01A26BFEF7F2F8A0B90020E070A16AF0
:1043D000A06B401A216A88420DD2A07802280AD127
:1043E000236AA16BCA186078012304F13C01FEF72F
:1043F000DDF800E00125284670BD000070B50446D8
:10440000226812F8011B01F08000002847D001F05B
:10441000E000C02803D101F01F01012312E001F0E8
:10442000F000E02803D101F00F0102230AE001F0BF
:10443000F800F02803D101F00701032302E04FF058
:10444000FF3070BD00BF12F8015B05F0C00080288E
:1044500002D04FF0FF30F4E7284661F39F10014689
:10446000581E031EEFD1802908D3B1F5584F02D34F
:10447000B1F5604F02D3B1F5881F02D34FF0FF3082
:10448000DFE7B1F5803F0AD3A1F58030054E06EA9B
:104490008010054E3043C1F3090640EA0601226050
:1044A0000846CEE70000FF0300DC00D810B501226B
:1044B00004A10020FEF7B8F808B9012010BD0020C3
:1044C000FCE7000053443A0070B504460D46092647
:1044D0008CB1206878B12068007860B1A08821682C
:1044E000C988884207D121684878FEF755F800F05E
:1044F000010000B900260EB9206800E00020286005
:10450000304670BD30B502465478641C6301002407
:104510002046214610E0022901D1491C0BE000F0A1
:10452000010414B14FF4004400E0002404EB6004E3
:10453000555C2C44A0B2491C9942ECD330BD70B5F7
:10454000064600241BE02846FEF7A0FD85B204F0D5
:10455000010010B14FF4004000E0002000EB6400C7
:10456000E9B2084484B204F0010010B14FF40040F5
:1045700000E0002000EB640000EB252084B236F858
:10458000021B0D1EDFD1204670BD00000008014057
:10459000000C0140001001400014014000180140CF
:1045A000001C014000200140003001400038004064
:1045B000003C00400410000008400000088000009B
:1045C0002000002008004000004010008000008013
:1045D00020000000184A00081C4A000801030507D3
:1045E000090E10121416181C1E809A45418E418F18
:1045F000804545454949498E8F9092924F994F5534
:104600005559999A9B9C9D9E9F41494F55A5A5A69A
:10461000A7A8A9AAABACADAEAFB0B1B2B3B4B5B6B2
:10462000B7B8B9BABBBCBDBEBFC0C1C2C3C4C5C6A2
:10463000C7C8C9CACBCCCDCECFD0D1D2D3D4D5D692
:10464000D7D8D9DADBDCDDDEDFE0E1E2E3E4E5E682
:10465000E7E8E9EAEBECEDEEEFF0F1F2F3F4F5F672
:10466000F7F8F9FAFBFCFDFEFF00C700FC00E900CB
:10467000E200E400E000E500E700EA00EB00E8000B
:10468000EF00EE00EC00C400C500C900E600C60063
:10469000F400F600F200FB00F900FF00D600DC0099
:1046A000A200A300A500A7209201E100ED00F30005
:1046B000FA00F100D100AA00BA00BF001023AC003C
:1046C000BD00BC00A100AB00BB0091259225932545
:1046D000022524256125622556255525632551256A
:1046E00057255D255C255B251025142534252C25B3
:1046F0001C2500253C255E255F255A255425692566
:104700006625602550256C25672568256425652567
:1047100059255825522553256B256A2518250C2522
:10472000882584258C2590258025B103DF009303FF
:10473000C003A303C303B500C403A6039803A903DE
:10474000B4031E22C603B50329226122B1006522EB
:10475000642220232123F7004822B0001922B70049
:104760001A227F20B200A025A00061001A03E000F9
:104770001703F8000703FF00010078010001300172
:1047800032010601390110014A012E0179010601A9
:1047900080014D0043028101820182018401840174
:1047A00086018701870189018A018B018B018D01B7
:1047B0008E018F0190019101910193019401F60105
:1047C00096019701980198013D029B019C019D0172
:1047D00020029F01A001A001A201A201A401A40145
:1047E000A601A701A701A901AA01AB01AC01AC0177
:1047F000AE01AF01AF01B101B201B301B301B50127
:10480000B501B701B801B801BA01BB01BC01BC01D7
:10481000BE01F701C001C101C201C301C401C5014C
:10482000C401C701C801C701CA01CB01CA01CD013A
:104830001001DD0101008E01DE011201F301030010
:10484000F101F401F401F8012801220212013A02F7
:104850000900652C3B023B023D02662C3F024002F0
:104860004102410246020A015302400081018601D1
:10487000550289018A0158028F015A0290015C0297
:104880005D025E025F0293016102620294016402B2
:10489000650266026702970196016A02622C6C0249
:1048A0006D026E029C01700271029D01730274021E
:1048B0009F0176027702780279027A027B027C02FB
:1048C000642C7E027F02A60181028202A901840279
:1048D000850286028702AE014402B101B20145029F
:1048E0008D028E028F0290029102B7017B030300BA
:1048F000FD03FE03FF03AC03040086038803890362
:104900008A03B1031103C2030200A303A303C40378
:104910000803CC0303008C038E038F03D803180114
:10492000F2030A00F903F303F403F503F603F703B4
:10493000F703F903FA03FA033004200350041007C5
:10494000600422018A043601C1040E01CF04010073
:10495000C004D00444016105260400007D1D01004F
:10496000632C001E9601A01E5A01001F0806101F8E
:104970000606201F0806301F0806401F0606511FA6
:104980000700591F521F5B1F541F5D1F561F5F1FDB
:10499000601F0806701F0E00BA1FBB1FC81FC91F6B
:1049A000CA1FCB1FDA1FDB1FF81FF91FEA1FEB1FFF
:1049B000FA1FFB1F801F0806901F0806A01F08068D
:1049C000B01F0400B81FB91FB21FBC1FCC1F0100CD
:1049D000C31FD01F0206E01F0206E51F0100EC1FE7
:1049E000F31F0100FC1F4E21010032217021100233
:1049F000842101008321D0241A05302C2F04602C3F
:104A00000201672C0601752C0201802C6401002D27
:104A1000260841FF1A03000053440000550000001F
:104A2000404A000800000020240000006C0100083B
:104A3000644A0008240000202C2B00008801000894
:104A40000000000000080140000C0140000C014083
:104A50000101000000000000000000000000000054
:044A600000800008CA
:0400000508000131BD
:00000001FF
