:020000040800F2
:10000000102B002065010008B5060008AD060008A9
:10001000B106000871020008A114000800000000E9
:10002000000000000000000000000000391000087F
:1000300075020008000000003D07000825110008B7
:100040007F0100087F0100087F0100087F01000890
:100050007F0100087F0100087F0100087F01000880
:100060007F0100087F0100087F0100087F01000870
:100070007F0100087F0100087F0100087F01000860
:100080007F0100087F0100087F0100087F01000850
:100090007F0100087F0100087F0100087F01000840
:1000A0007F0100087F0100087F0100087F01000830
:1000B0007F0100087F0100087F0100087F01000820
:1000C0007F0100087F0100087F0100087F01000810
:1000D0007F0100080D130008151300081D13000808
:1000E0007F0100087F0100087F0100087F010008F0
:1000F0007F0100087F0100087F0100087F010008E0
:100100007F0100087F0100087F0100087F010008CF
:1001100089110008911100087F0100087F01000883
:100120007F0100087F0100087F0100087F010008AF
:10013000DFF80CD000F08AF800480047493F00087B
:10014000102B0020EFF30980704780F30988704777
:10015000EFF30880704780F30888704740BA704713
:10016000C0BA70470648804706480047FEE7FEE7EA
:10017000FEE7FEE7FEE7FEE7FEE7FEE7FEE7FEE757
:1001800029110008310100082DE9F05F0546002023
:1001900092469B4688460646814640241BE02846F8
:1001A00041464746224600F041F853465A46C01A97
:1001B000914110D311461846224600F028F82D1A16
:1001C00067EB01084F4622460120002100F01FF88E
:1001D00017EB00094E41201EA4F10104DFDC484664
:1001E00031462A464346BDE8F09F40EA01039B079B
:1001F00003D009E008C9121F08C0042AFAD203E09C
:1002000011F8013B00F8013B521EF9D27047202A39
:1002100004DB203A00FA02F1002070479140C2F15D
:10022000200320FA03F3194390407047202A04DB8F
:10023000203A21FA02F00021704721FA02F3D0405F
:10024000C2F120029140084319467047064C074D01
:1002500006E0E06840F0010394E807009847103496
:10026000AC42F6D3FFF768FF185200083852000876
:1002700000BFFEE7704700000149C86070470000FA
:100280000020024030B5044604254FF4302000F031
:1002900085F80546042D17D10C48006940F002008E
:1002A0000A49086108464461006940F0400008615D
:1002B0004FF4302000F072F805460448006941F61A
:1002C000FD71084001490861284630BD0020024008
:1002D00004200B49C96801F0010109B101200EE0B9
:1002E0000749C96801F0040109B1022007E0044987
:1002F000C96801F0100109B1032000E00420704733
:10030000002002400348006940F080000149086174
:10031000704700000020024078B506460C460425D0
:1003200000200090E80200F039F80546042D24D1A1
:100330001348006940F00100114908613480E80267
:1003400000F02CF80546042D10D1B01C0090200CB4
:1003500000990880E80200F021F805460848006985
:1003600041F6FE7108400649086106E0044800694C
:1003700041F6FE71084002490861284678BD000038
:100380000020024002480349486003484860704723
:100390002301674500200240AB89EFCD00B502463E
:1003A0000423FFF795FF034603E0FFF791FF0346A1
:1003B000521E012B01D1002AF7D102B9052318469C
:1003C00000BD000010B504462948844208D101212F
:1003D000042000F0D5F90021042000F0D1F946E016
:1003E0002448844208D10121082000F0C9F90021E5
:1003F000082000F0C5F93AE01F48844208D10121E5
:10040000102000F0BDF90021102000F0B9F92EE015
:100410001A48844208D10121202000F0B1F90021BE
:10042000202000F0ADF922E01548844208D10121D6
:10043000402000F0A5F90021402000F0A1F916E0CD
:100440001048844208D10121802000F099F9002150
:10045000802000F095F90AE00B48844207D1012181
:10046000801500F08DF90021A01500F089F910BD6C
:1004700000080140000C0140001001400014014040
:1004800000180140001C01400020014010B5014649
:100490000A0ACBB2054850F82200806801249C402B
:1004A000204008B1012010BD0020FCE7384D0008B5
:1004B0002DE9F041024600250026002000230024FB
:1004C000002791F803C00CF00F0591F803C00CF061
:1004D000100CBCF1000F03D091F802C04CEA0505E6
:1004E00091F800C0BCF1000F31D0146800202BE05F
:1004F0004FF0010C0CFA00F3B1F800C00CEA03064F
:100500009E4220D183004FF00F0C0CFA03F7BC433E
:1005100005FA03FC4CEA040491F803C0BCF1280F6F
:1005200006D14FF0010C0CFA00FCC2F814C00AE02E
:1005300091F803C0BCF1480F05D14FF0010C0CFA43
:1005400000FCC2F810C0401C0828D1D31460B1F8D8
:1005500000C0BCF1FF0F34DD546800202EE000F134
:10056000080C4FF0010808FA0CF3B1F800C00CEACF
:1005700003069E4221D183004FF00F0C0CFA03F7C3
:10058000BC4305FA03FC4CEA040491F803C0BCF137
:10059000280F05D100F1080C08FA0CF8C2F81480F5
:1005A00091F803C0BCF1480F07D100F1080C4FF0DF
:1005B000010808FA0CF8C2F81080401C0828CED3B5
:1005C0005460BDE8F0810000F0B504460B46200AF7
:1005D000E1B22A4DAD69861C0127B7403D43274E45
:1005E000B5610C2B09D101F110050126AE40244D57
:1005F00055F820502E61082307E0082B05D101256E
:100600008D401F4E56F82060356107291ADC1C4DBD
:1006100055F820502D684E07F70E0F26BE40B54303
:10062000174E56F820603560154D55F820502D684E
:100630004E07F60E03FA06F63543114E56F82060C3
:10064000356019E00E4D55F820506D684E07F70ED5
:100650000F26BE40B5430A4E56F820607560084D1F
:1006600055F820506D684E07F60E03FA06F635432E
:10067000034E56F820607560F0BD00000010024087
:10068000384D00080161704730B5020AC3B209B1A4
:100690001C4601E003F110040125A540024C54F86A
:1006A0002240256130BD0000384D000800BFFEE744
:1006B00000BFFEE77047000070B5002100230F2245
:1006C000C47804B3154C246804F4E064C4F5E06411
:1006D000210AC1F10403CA40447804FA03F1847882
:1006E0001440214309010E4C0678A155047804F00A
:1006F0001F050124AC4005786D11AD0005F1E02522
:10070000C5F8004109E0047804F01F050124AC405D
:10071000044D0678761145F8264070BD0CED00E0DA
:1007200000E400E080E100E002490143024A116078
:10073000704700000000FA050CED00E07047000073
:1007400029B1064A12690243044B1A6104E0034AC4
:1007500012698243014B1A61704700000010024089
:1007600029B1064A92690243044B9A6104E0034AA4
:1007700092698243014B9A61704700000010024069
:1007800029B1064AD2680243044BDA6004E0034A06
:10079000D2688243014BDA607047000000100240CB
:1007A00030B500210022002400232D4D6D6805F096
:1007B0000C0121B1042905D0082923D105E0294DD8
:1007C000056022E0274D05601FE0254D6D6805F4AA
:1007D0007012234D6D6805F48034022505EB9242BA
:1007E0001CB9214D554305600BE01D4D6D6805F4A6
:1007F00000351DB11C4D5543056002E0194D5543B0
:10080000056002E0174D056000BF00BF144D6D6824
:1008100005F0F0010909154D6B5C0568DD40456088
:100820000F4D6D6805F4E061090A104D6B5C456879
:10083000DD4085600A4D6D6805F46051C90A0B4DB5
:100840006B5C4568DD40C560054D6D6805F4404151
:10085000890B074D6B5CC568B5FBF3F5056130BDD1
:100860000010024000127A0000093D000000002044
:100870001000002010B540F20320FFF707FE08B972
:10088000012010BD0020FCE710B50022082140F235
:100890000320FFF799FE10BD10B50824012000F0D9
:1008A0004DF902E0FF2000F05DF9201EA4F10101E6
:1008B000CCB2F7D110BD10B5002204210846FFF7D5
:1008C00083FE002000F04AFA10BD70B505464FF6D1
:1008D000FF7401E0601E84B2FF2000F043F9A842DB
:1008E00001D0002CF6D10CB9FF2070BD0020FCE730
:1008F000F8B5FFF7C9FFFFF7BDFF08B9AA20F8BD9B
:1009000000F023F900F0B3F9002504E0FF2000F027
:1009100029F9681C85B20A2DF8DB142600BF952240
:100920000021084600F033F90446012C04D0301EA3
:10093000A6F101018EB2F2D1002054490870012CB9
:1009400075D192E087224FF4D571082000F01FF98D
:10095000012847D1002506E0FF2000F003F90DF83B
:100960000500681C85B2042DF6DB9DF80200012805
:100970007BD19DF80300AA2877D14FF6FE7600BF01
:1009800001220021372000F002F9012291072920DD
:1009900000F0FDF8044624B1301EA6F101018EB22C
:1009A000EED1002E61D0012200213A2000F0EFF8B4
:1009B00000285AD1002506E0FF2000F0D3F80DF8FA
:1009C0000500681C85B2042DF6DB9DF8000000F0E0
:1009D000400018B106202D49087002E004202B4980
:1009E000087043E001220021372000F0D0F80122F6
:1009F0000021292000F0CBF80446012C18DC02204D
:100A0000224908704FF6FE7600BF012200213720F0
:100A100000F0BDF801220021292000F0B8F80446BA
:100A2000C4B1301EA6F101018EB2EED112E01EE07B
:100A30000120164908704FF6FE7600BF0122002102
:100A4000104600F0A4F8044624B1301EA6F10101BE
:100A50008EB2F3D12EB101225102102000F097F88E
:100A600010B100200949087000E06BE700BFFFF7F4
:100A700013FF00F0F6F80548007808B100203EE7C3
:100A80000CB120463BE7AA2039E700001400002003
:100A90002DE9F04106460F4615461948007806280C
:100AA00000D07F02012D0CD101223946112000F027
:100AB0006EF80446FCB96902304600F023F804469B
:100AC00019E001223946122000F061F8044600BF07
:100AD0004FF40071304600F015F8044606F5007634
:100AE000681EC0B2051E01D0002CF1D001220021E9
:100AF0000C2000F04CF8FFF7CFFE2046BDE8F08157
:100B00001400002070B504460D46FE20FFF7DDFE00
:100B100008B1012070BD04E0FF2000F023F8207030
:100B2000641C281EA5F101018DB2F5D1FF2000F053
:100B300019F8FF2000F016F80020EBE710B5044686
:100B400021460420FFF7A0FD10BD10B500220321AF
:100B50000420FFF739FD002000F0F6F80120FFF730
:100B6000EDFF10BD10B504462146002000F0ECF961
:100B7000C0B210BD10B50020FFF7E0FF00F07DF817
:100B800008B9002010BDFFF787FE0120FAE72DE924
:100B9000F04105460C4617464FF00008FFF77CFE73
:100BA000FFF7E8FF10B1FF20BDE8F08100F065F825
:100BB00008B1FF20F8E745F04000FFF7D3FF200E13
:100BC000FFF7D0FFC4F30740FFF7CCFFC4F30720C3
:100BD000FFF7C8FFE0B2FFF7C5FF3846FFF7C2FFD7
:100BE0000C2D02D1FF20FFF7BDFF4FF01F0800BF03
:100BF000FF20FFF7B7FF064606F0800030B1B8F1DE
:100C00000000A8F1010101F0FF08F1D13046CBE767
:100C100070B506460D4600F030F808B1012070BDF1
:100C20002846FFF79FFFFD2D19D0002404E0305D1A
:100C3000FFF798FF601C84B2B4F5007FF7DBFF205C
:100C4000FFF790FFFF20FFF78DFFFF20FFF78AFFE0
:100C5000044604F01F00052801D00220DFE7002031
:100C6000DDE710B50021084600F020F910BD10B5F1
:100C70000721002000F01AF910BD10B5002406E08D
:100C8000FF20FFF76FFFFF2801D1002010BD204695
:100C9000641C4FF6FF718842F2D30120F6E7000092
:100CA0002DE9F04106460F461546204800780628F3
:100CB00000D07F02012D0CD1012239461820FFF708
:100CC00066FF04466CBBFE213046FFF7A1FF0446D9
:100CD00027E016480078012809D00122002137209A
:100CE000FFF755FF012229461720FFF750FF012289
:100CF00039461920FFF74BFF044694B900BFFC2189
:100D00003046FFF785FF044606F50076681EC0B240
:100D1000051E01D0002CF2D0FD210020FFF778FF46
:100D20000446FFF7B9FD2046BDE8F081140000201D
:100D300021B1028842F04002028004E002884FF6AE
:100D4000BF731A400280704710B50446204600F079
:100D500017F80721204600F0A9F810BD10B5044689
:100D6000054951F82400FFF72DFB044951F82400F0
:100D700000F044F810BD0000180000200C4D0008E1
:100D800038B50446184951F824000121FFF7E8FC62
:100D9000164830F81400164931F814100843154964
:100DA00031F814100843ADF8000018208DF8030046
:100DB00003208DF80200104951F824006946FFF71E
:100DC00077FB0A4A32F81420094B33F814301A43DF
:100DD000084B33F8143042EA0301074A52F8240062
:100DE000FFF750FC38BD0000184D0008244D0008E6
:100DF0002A4D0008304D00081800002010B50446A8
:100E00001148844208D101218014FFF7B9FC002168
:100E1000A014FFF7B5FC16E00C48844208D101216C
:100E20000014FFF78DFC00212014FFF789FC0AE075
:100E30000748844207D10121C013FFF781FC00213C
:100E4000E013FFF77DFC10BD00300140003800408A
:100E5000003C00400246002013890B400BB10120EA
:100E600000E0002070470146888970478181704703
:100E700010B50022028802F441520B884C882343AB
:100E80008C882343CC8823430C8923434C892343F8
:100E90008C892343CC8923431A430280838B4FF2EE
:100EA000FF74234083830B8A038210BD70B586B024
:100EB00005460E46082E15D2DFE806F012100E0C7D
:100EC0000A08060438240FE030240DE028240BE043
:100ED000202409E0182407E0102405E0082403E09A
:100EE000002401E0382400BF00BF0020ADF804005A
:100EF0004FF48270ADF806000020ADF80800022023
:100F0000ADF80A000120ADF80C004002ADF80E006B
:100F1000ADF810400020ADF812000720ADF8140025
:100F2000084951F8250001A9FFF7A2FF054951F82A
:100F300025000121FFF7FCFEFF21002000F004F84E
:100F400006B070BD0C4D00082DE9F04104460F4677
:100F5000002506E0681CC5B2642D02DD0020BDE856
:100F6000F081134951F824000221FFF773FF002894
:100F7000F0D00F4951F824003946FFF777FF0025DC
:100F800005E0681CC5B2642D01DD0020E7E70849D3
:100F900051F824000121FFF75DFF0028F1D004493A
:100FA00051F82400FFF75FFFC6B23046D7E70000D4
:100FB0000C4D000801460868704710B5FFF7E2F9CC
:100FC0003520FFF759F9FFF79DF910BD2DE9F041E4
:100FD0000427164CFFF7D6F9154884421CD217E0B7
:100FE0002046FFF7E7FF401C88B1A4F100684FEAF4
:100FF000D8254FF0006000EBC5263046FFF742F9D8
:101000000746042F00D006E006F5006400E0241D2A
:1010100008488442E4D300BFFFF774F9042F02D1DB
:101020000020BDE8F0814FF0FF30FAE700700008C3
:101030000000FF1FFBFF0308704710B500F002F827
:1010400010BD00000CB500200190009033480068EE
:1010500040F480303149086000BF3048006800F437
:10106000003000900198401C0190009818B9019838
:10107000B0F5A06FF1D12948006800F4003010B13C
:101080000120009001E0002000900098012843D149
:101090002348006840F010002149086008460068B5
:1010A00020F0030008600846006840F00200086075
:1010B0001A48406819494860084640684860084630
:1010C000406840F4806048600846406820F47C1026
:1010D00048600846406840F4E810486008460068E8
:1010E00040F08070086000BF0C48006800F000709D
:1010F0000028F9D00948406820F0030007494860FB
:101100000846406840F00200486000BF034840685D
:1011100000F00C000828F9D10CBD000000100240BE
:10112000002002407047000010B51348006840F0EE
:1011300001001149086008464068104908400E49FE
:101140004860084600680E4908400B490860084698
:10115000006820F4802008600846406820F4FE0003
:1011600048604FF41F008860FFF767FF4FF0006092
:101170000449086010BD0000001002400000FFF8A4
:10118000FFFFF6FE08ED00E000B500F0E7F800BD57
:1011900000B500F0E3F800BD70B505460E461446F4
:1011A0003146284600F082F82146284600F052F8E1
:1011B000284600F039F870BD10B50446204600F00E
:1011C0001DF80C4850F8240000680B4951F8241011
:1011D0000843084951F824100860064850F82400D4
:1011E0000068054951F824108843024951F8241039
:1011F000086010BD544D00087C4D000810B5044631
:10120000074931F8140000220421FFF7DDF90549F0
:1012100031F8140000220421FFF7D6F910BD0000B8
:10122000A44D0008AE4D000810B50446074931F83A
:10123000140000220B21FFF7C7F9054931F814000B
:1012400000220821FFF7C0F910BD0000A44D0008DE
:10125000AE4D000830B587B004460D461422114942
:1012600002A8FEF7C2FF02A810F824008DF80400BF
:1012700001208DF8070000208DF805008DF806008C
:1012800001A8FFF719FA084951F82400012229465C
:1012900000F074F8044951F82400294600F042F89F
:1012A00007B030BDB84D0008904D00087FB504462A
:1012B0000D46134850F824000068124951F82410D4
:1012C00008430F4951F82410086000950020ADF83C
:1012D0000C000C20ADF80A000020ADF80800ADF8B5
:1012E0000600ADF80400084951F82400694600F0F2
:1012F0006BF8054951F82400012100F022F87FBD68
:10130000684D00087C4D0008904D000800B500F0C5
:1013100025F800BD00B500F021F800BD00B500F0D3
:101320001DF800BD10B50022002340F66A14A1424A
:1013300000D100BF0A1201249440A3B2DC43048010
:1013400010BD21B1828942F40052828104E0828979
:101350004DF6FF731A40828170470000064800680E
:10136000008800F0100028B1034800680088024897
:101370000068808870470000904D0008F0B5034673
:10138000002400260025002040F66A17B94200D14B
:1013900000BF1846C1F3421401F01F06012707FAE7
:1013A00006F5012C01D10C3004E0022C01D11030E3
:1013B00000E014301AB107682F43076002E00768A5
:1013C000AF430760F0BD00002DE9F04786B0054649
:1013D0000E460024A24600BFA1460027B08900B1F6
:1013E00000BF2F462C8A4CF6FF700440F08804435F
:1013F0002C82AC894EF6F3100440B0883189084342
:10140000718908430443AC81AC8A4FF6FF40044025
:10141000B0890443AC8201A8FFF7C2F91F48874294
:1014200002D1DDF810A001E0DDF80CA0A88900F4DD
:10143000004040B10AEBCA0000EB0A1031684900D5
:10144000B0FBF1F807E00AEBCA0000EB0A103168C4
:101450008900B0FBF1F86420B8FBF0F0040120092A
:10146000642101FB1089A88900F4004040B13220BA
:1014700000EBC900B0FBF1F000F00700044308E006
:10148000322000EB09106421B0FBF1F000F00F00F6
:1014900004432C8106B0BDE8F0870000003801400D
:1014A00000BFFEE70FB4054B10B503A9044A02982C
:1014B00000F018F810BC5DF814FB00006539000856
:1014C0003C00002002E008C8121F08C1002AFAD11F
:1014D00070477047002001E001C1121F002AFBD1B4
:1014E000704700002DE9FF4F8BB09A460F46044627
:1014F000002606E025280BD052460D999047641C23
:10150000761C20780028F5D10FB03046BDE8F08F6A
:101510000025A94601227D4900E0054314F8013F5A
:10152000203B02FA03F00842F7D120782E2817D189
:1015300014F8010F45F004052A280ED06FF02F0291
:101540002078A0F1300109290AD809EB890102EBC2
:10155000410100EB0109641CF2E757F8049B641C8D
:1015600020786C280DD004DC4C2812D06A2811D1C8
:1015700004E074280DD07A280CD10AE045F4001557
:1015800007E0617845F48015814202D1641C05F5BD
:101590008015641C207869283ED006DC0028B3D072
:1015A00063280BD0642804D136E0732810D0752846
:1015B0005CD052460D999047761CA5E017F8040BB5
:1015C0008DF8000000208DF80100E846012003E0BE
:1015D00057F8048B4FF0FF3069074FF0000501D436
:1015E0000AE06D1C4D450DDA8542FADB18F805104E
:1015F0000029F6D106E06D1C8542FCDB18F80510C9
:101600000029F8D12E4404E018F8010B52460D9938
:1016100090476D1EF8D277E000200A90C5F3025083
:101620004FF00A0B02280CD001CFC117021E71F136
:1016300000020CDA0023D0EB030063EB01012D2242
:1016400008E0FF1D27F00707F7E80201EEE72A058B
:1016500004D52B228DF82420012203E0EA070FD0C5
:101660002022F7E70DF12008089218E000200A90E8
:10167000C5F302504FF00A0B022803D001CF00211E
:101680000022EFE7FF1D27F00707F7E80201F7E761
:101690005A460A9BFEF778FD303208F8012D50EAD1
:1016A0000102F5D1ADEB080000F1200B680701D471
:1016B0004FF00109D94502DDA9EB0B0000E0002045
:1016C0008146002506E009A85246405D0D999047E5
:1016D0006D1C761C08988542F5DB04E030205246EC
:1016E0000D999047761CB9F10001A9F10109F5DCCB
:1016F00005E018F8010B52460D999047761CBBF196
:101700000001ABF1010BF4DC641CFAE609280100CE
:101710002DE9FC4100F04FF946A0FFF7C3FE00F0B1
:1017200042F910B10520BDE8FC8147A0FFF7BAFEE1
:101730004BA0FFF7B7FE00F0D7F906460EB13046D2
:10174000F1E7002400BF4FF0FF30009001AB04220E
:1017500069464A4801F0F6FB05460198A0B1009899
:1017600000F022FA06460EB9641C0DE0A10044A068
:10177000FFF798FE414801F02BFA02F042F949A028
:10178000FFF790FE0620CEE715B901980028DAD1C0
:1017900000F000FAE10048A0FFF784FE01224CA10E
:1017A000364801F051FA054635B14DA0FFF77AFEF3
:1017B00002F027F90720B6E7504F002400BF4FF092
:1017C000FF30009001AB042269462C4801F0BAFBBF
:1017D0000546019888B138680099884202D13F1DBA
:1017E000641C0AE0A10046A0FFF75CFE234801F05C
:1017F000EFF902F006F9072095E715B901980028DE
:10180000DDD148A0FFF74EFE1C4801F0E1F94BA0E6
:1018100002F0E0F810B149A001F074FE47A12CA03D
:1018200001F097FC02F0EDF846A0FFF73BFE002028
:1018300079E7000045726173696E6720666C6173B9
:10184000682E2E2E0D0A0000466C617368206572AA
:101850006173652066696E69736865642E0D0A00A0
:101860005374617274696E672070726F6772616D14
:101870006D696E672E2E2E0D0A000000C004002038
:1018800050726F6772616D6D696E67206572726FFD
:10189000722061743A20256C7520627974650D0A96
:1018A000000000006D6564696120656A65637465A8
:1018B000642E0D0A00000000466C61736865643A8E
:1018C00020256C752062797465732E0D0A00000066
:1018D0006669726D776172652E62696E0000000044
:1018E00046696C652063616E6E6F74206265206F5F
:1018F00070656E65642E0D0A00000000007000081F
:10190000566572696669636174696F6E206572728B
:101910006F722061743A20256C7520627974652E8F
:101920000D0A0000566572696669636174696F6EBD
:10193000207061737365642E0D0A00006F6C642E55
:1019400062696E004D6564696120656A65637465EE
:10195000642E0D0A0000000000B500F005F808B97B
:10196000002000BD0420FCE705480068A0F10050FD
:10197000B0F5404F01D8002070470220FCE700007E
:101980000070000802460B464FF464310020891AAB
:10199000984101D3002070470320FCE710B5FEF703
:1019A0008AFF002010BD10B5FFF710FB08B900201A
:1019B00010BD0520FCE710B5FFF7FFFA002010BDB1
:1019C00010B502F01AF820B918A0FFF76BFD01203E
:1019D00010BD1BA0FFF766FD01221EA1214801F0EA
:1019E00033F930B120A0FFF75DFD02F00AF80220C4
:1019F000EEE724A0FFF756FD1A48D0E9042110466F
:101A0000FFF7C0FF48B125A0FFF74CFD154801F0D6
:101A1000DFF801F0F6FF0320DAE727A0FFF742FD29
:101A2000104801F0D5F80020D2E700004D65646948
:101A300061206D6F756E74206661696C2E0D0A00F1
:101A40004D65646961206D6F756E7465642E0D0A55
:101A5000000000006669726D776172652E62696EC2
:101A600000000000C004002046696C652063616EC0
:101A70006E6F74206265206F70656E65642E0D0A4E
:101A80000000000041707020666F756E64206F6EFC
:101A9000204D656469612E0D0A0000004572723A9E
:101AA0002061707020697320746F6F206C617267A1
:101AB000652E0D0A000000004170702073697A6580
:101AC000204F4B2E0D0A000070B50548446825468E
:101AD0000449086001460868FEF73DFBA84770BD51
:101AE0000070000808ED00E010B501220EA11248B8
:101AF00001F0AAF804466CB110A0FFF7D3FC214610
:101B000014A0FFF7CFFC01F07CFF18A0FFF7CAFC80
:101B1000022010BD19A0FFF7C5FC1C481C49086035
:101B2000FEF730FC0020F4E76669726D776172653C
:101B30002E62696E00000000C004002046696C65DA
:101B40002063616E6E6F74206265206F70656E65D4
:101B5000642E00004661744673206572726F7220B5
:101B6000636F64653A202575000000004D65646967
:101B70006120656A65637465642E000046696C6562
:101B8000206F70656E65642E000000000070000814
:101B90003400002010B5FEF7B5FB024801F018F83C
:101BA000002010BDC004002010B504461448006891
:101BB0001449884204D8124800681349884203D265
:101BC000FEF7A0FB062010BD21460D480068FEF779
:101BD000A3FB04280ED10A4800680068A04203D085
:101BE000FEF790FB0620EEE705480068001D04495B
:101BF000086003E0FEF786FB0620E4E70020E2E74A
:101C000034000020FCFF0308007000082DE9F047B5
:101C100004460D4690469946AD1E606B00EB153AA2
:101C2000C5F3C80605F0070101208840C7B200BF10
:101C300051460AF1010A204602F094FC10B101203D
:101C4000BDE8F08700BF00BF04F13C00805D384074
:101C500008B1012000E00020484501D10220EFE753
:101C600004F13C00805D784004F13C01885501207E
:101C7000E070A8F10100B0F1000800D1E0E77806BB
:101C8000000E071EE0D10127701C0646B0F5007F4C
:101C9000D9D30026CCE7000070B504460D460020DD
:101CA000E070401EA0632946204602F05BFC08B1AC
:101CB000042070BD04F23A2002F099F84AF655214A
:101CC000884201D00320F4E70B2214A104F13C0068
:101CD00002F0D6F908B90120EBE794F83C00E928B6
:101CE00007D094F83C00EB2803D094F83C00E82897
:101CF00011D103220CA104F1720002F0C1F908B95C
:101D00000020D6E7052209A104F18E0002F0B8F9FF
:101D100008B90020CDE70220CBE70000EB76904524
:101D20005846415420202000464154004641543337
:101D300032000000024600E0521C107810B110780A
:101D40008842F9D1107870470246891ED069801EFA
:101D5000884201D8002070475389106B03FB0100B3
:101D6000F9E700002DE9F04780460C4604F11A001F
:101D700002F03DF810B10020BDE8F087207800F0B7
:101D80003F00401E00EB800101EBC0054FF0010950
:101D9000002621E01849895D081902F028F8074655
:101DA000B9F1000F11D0FF2D0BD8384601F054FCCB
:101DB000824629466D1C38F8110001F04DFC824521
:101DC00001D00020D8E7B94605E04FF6FF70874202
:101DD00001D00020D0E7761C0D2EDBD3207800F058
:101DE000400038B1B9F1000F04D038F8150008B13F
:101DF0000020C1E70120BFE7D44D00082DE9F047DE
:101E000006468A463468BAF1000F0AD1D4F8148025
:101E1000B8F1000F02D0E069404516D84FF0010834
:101E200013E05146304601F057FE0746022F02D21A
:101E30000120BDE8F087781C08B93846F9E7E06969
:101E4000B84201D93846F4E7D046A06908B9002065
:101E5000EFE7207804284ED101224146204601F0C8
:101E600090FC05460DB1681C08B92846E1E701233E
:101E70001A4629462046FFF7C9FE8146B9F1020FEE
:101E800001D10120D5E7B9F1010F02D14FF0FF30A8
:101E9000CFE7BAF1000F02D10220F0710CE0F07927
:101EA000022809D108F10100854205D0B068A8EBED
:101EB0000000B0610320F071F079022869D00AF1C6
:101EC0000100854207D1F06910B1F069401C00E0C3
:101ED0000220F0615DE0F06908B90120F0612A4656
:101EE0005146304601F02BFC8146B9F1000F50D12C
:101EF0000120F0614DE00025D04519D108F1010520
:101F0000E069A84200D802252946304601F0E4FDE8
:101F10000746012F01D0781C08B9384689E73FB140
:101F20006769022F03D3E069B84200D9B84600259B
:101F3000E5B9454600BF6D1CE069A84204D80225FA
:101F4000454501D9002074E72946304601F0C4FD1B
:101F5000074607B909E0012F01D0781C08B93846B7
:101F600067E74545E7D1002063E700BF4FF0FF3248
:101F70002946204602F056FB8146B9F1000F08D1F0
:101F8000BAF1000F05D02A465146204602F04AFB1E
:101F90008146B9F1000F0DD16561D4E90610801EAC
:101FA000814202D8A069401EA061207940F0010062
:101FB000207107E0B9F1010F02D14FF0FF3000E0CE
:101FC00001200546284634E72DE9F34F83B08146CA
:101FD000049800680090D9F80000D0F80CA0002503
:101FE00000BF684602F0CAFD83460BF1010018B934
:101FF000062005B0BDE8F08FBBF5803F05D34FEA62
:102000001B4228466D1C2AF810201FFA8BF4202C46
:1020100003DB2F2C01D05C2C00D111E0802C06DAE0
:1020200021467BA0FFF786FE08B10620E1E7FF2DE1
:1020300001D30620DDE728466D1C2AF81040D0E7C2
:1020400000BF202C01DA04260CE0002602E00098F4
:10205000401C0090009800782F28F8D00098007855
:102060005C28F4D000990498016008E0681E3AF8F2
:102070001040202C02D02E2C00D002E06D1E002D2E
:10208000F4D100BF00202AF815000DB90620B0E7F2
:10209000002700E07F1C3AF817002028FAD01FB96B
:1020A0003AF817002E2801D146F0030600E06D1E15
:1020B00025B1681E3AF810002E28F8D10B222021F5
:1020C00009F1400001F0FBFF4FF00008CDF8088057
:1020D0000820019000BF38467F1C3AF8104004B930
:1020E0006AE0202C03D02E2C04D1AF4202D046F05F
:1020F0000306F0E7DDE90110884201D2AF4216D1B4
:1021000001980B2802D146F0030655E0AF4201D0FA
:1021100046F00306AF4200D94EE02F460820029059
:102120000B2001904FEA88604FEA1068D3E7802CBB
:102130000EDB46F0020640F2B511204601F06CFAC3
:10214000044604F0800018B104F07F0033490C5CB1
:10215000FF2C11DD0198401E0299884204D846F0F8
:10216000030601980290B6E722120298411C0291E0
:1021700009F140010A5418E024B1214628A0FFF7D4
:10218000D9FD18B15F2446F003060EE0412C03DBB5
:102190005A2C01DC48F00208612C06DB7A2C04DCA6
:1021A00048F00108A4F1200084B20298411C029179
:1021B00009F140010C548EE700BF99F84000E52872
:1021C00002D1052089F840000198082803D14FEA80
:1021D00088604FEA106808F00C000C2803D008F063
:1021E0000300032801D146F0020606F0020048B9B8
:1021F00008F0010008B146F0100608F0040008B12C
:1022000046F008064B2000F809600020F1E60000C7
:10221000222A3A3C3E3F7C7F00000000E14D00084E
:102220002B2C3B3D5B5D00002DE9F04704460E463C
:1022300040220021204601F042FF85202070C0206E
:1022400084F8200040250020804607464FF0010911
:1022500000BFC12228466D1C2254002228466D1C56
:10226000225400BFB9F1000F06D036F81700B0F1C4
:10227000000901D0781CC7B26019494602F0C1FBC1
:10228000AD1C05F01F000028ECD108F1010000F0A2
:10229000FF0836F817000028DBD184F8237008F116
:1022A00001006070304602F00AFD8246514604F19A
:1022B000240002F0A6FBBDE8F087014609B100202A
:1022C00070470020FCE72DE9F04104460E46D4F8A3
:1022D00000800021204600F0A2FB05465DBB0027E0
:1022E00000BF4046A16B02F03DF9054605B121E073
:1022F00098F80000042805D1E06B0078012121EA5C
:10230000D01009E0E06B0078E52802D0E06B00789F
:1023100008B9012000E0002020B1781C0746B04237
:1023200001D107E000270121204600F041F90546D0
:10233000002DD6D000BF042D00D107252846BDE8CA
:10234000F0812DE9F04704468946204602F0F0FB73
:1023500010B10120BDE8F08749462046FFF7F4FCA4
:102360000746A7634FF40072002104F13C0001F01E
:10237000A6FE60894FF40041B1EB402F01D808461A
:1023800001E06089400206464FF0000800E0760850
:10239000B6F5007F05D9304601F032F9B0F10008FA
:1023A000F5D0B6F5007F17D932460021404601F03E
:1023B00086FE760A002500E035446089A84207D9E8
:1023C0007A1960783346414600F0D6FB0028F3D0F6
:1023D000404601F01BF910E004F13C0801260025FD
:1023E00000E035446089A84207D97A1960783346FD
:1023F000414600F0C1FB0028F3D06089A84201D01B
:102400000120A7E70020A5E72DE9F04F85B004469D
:1024100025680021204600F002FB07461FB1384620
:1024200005B0BDE8F08F287804284CD1E86802F0A8
:1024300046FC01903EE0296901F1240001F0D7FC3F
:102440000199884200D035E0286990F82300039074
:102450004FF0400A002002901FE00AF01F0008B968
:102460000AF1020A296901EB0A0001F0C0FC0090A0
:1024700001F0F2F88346EA68029932F8110001F09F
:10248000EBF8834500D00BE00398401EC0B20390E8
:102490000AF1020A0298401C029003980028DCD13D
:1024A00000BF039828B9E968029831F8100000B914
:1024B00006E000BF0021204600F0EAF8071EBAD06F
:1024C00000BF3846ACE74FF0FF09CDF810904FF051
:1024D000FF30E06400BF2846A16B02F043F80746D6
:1024E00007B162E0E06B06780EB904275DE0E06BAF
:1024F000C07A00F03F0884F80680E52E05D008F089
:10250000080040B1B8F10F0F05D04FF0FF094FF0B0
:10251000FF30E06442E0B8F10F0F22D14B20005DA4
:1025200000F04000A0BB06F0400038B1E06B407BFB
:10253000049006F0BF06B146206BE0644E450CD116
:10254000E06B417B0498814207D1E16BE868FFF7BB
:1025500009FC10B1A9F1010000E0FF2000F0FF0923
:102560001CE0B9F1000F06D1E06B02F089FA049982
:10257000884200D119E04B20005D00F0010040B915
:102580000B2204F14001E06B01F07AFD08B90CE088
:1025900004E04FF0FF094FF0FF30E06400212046D7
:1025A00000F006F80746002F95D000BF384637E701
:1025B0002DE9F041044688462768206B00F120068B
:1025C0003878042801D1800601E04FF40010B042B1
:1025D00001D80020A063A06B10B90420BDE8F081F1
:1025E000C6F3080000284AD1A06B401CA063606BB2
:1025F00038B93889B0EB561F41D80020A0630420B9
:10260000ECE77889401E00EA5620002837D12046A2
:10261000616B01F061FA0546012D01D80220DDE76A
:10262000681C08B90120D9E7F869A84221D8B8F197
:10263000000F03D10020A0630420CFE72046616B88
:10264000FFF7DCFB05460DB90720C7E7012D01D1D7
:102650000220C3E7681C08B90120BFE729463846B5
:10266000FFF76FFE08B10120B8E7E07940F0040001
:10267000E071656329463846FFF766FBA063266371
:10268000C6F3080107F13C000844E0630020A5E719
:102690002DE9F05F04468A46042627684FF0FF09BB
:1026A000CB4667E03846A16B01F05CFF064606B1F9
:1026B00063E0E06B05780DB904265EE03878042805
:1026C0000FD100BF852D4ED1206BE064204601F074
:1026D000B4FB064626B93869007900F03F00A071C6
:1026E0004BE0E06BC07A00F03F0884F80680E52DEF
:1026F0000AD02E2D08D028F02000082801D1012072
:1027000000E00020504502D04FF0FF092BE0B8F167
:102710000F0F1CD105F0400038B1E06B90F80DB000
:1027200005F0BF05A946206BE0644D450BD1E06B79
:10273000407B584507D1E16BF86801F02DFF10B1DF
:10274000A9F1010000E0FF2000F0FF090BE0B9F162
:10275000000F04D1E06B02F093F9584502D04FF01E
:10276000FF30E06409E000212046FFF721FF064624
:1027700006B102E0A06B002894D100BF0EB100208A
:10278000A0633046BDE8F09F2DE9F04F99B00446B4
:1027900026684B20005D00F0A00018B1062019B09B
:1027A000BDE8F08F4FF0000B01E00BF1010BF0687A
:1027B00030F81B000028F8D13078042866D10BF1DE
:1027C0000E000F21B0FBF1F000F10209494620464E
:1027D000FFF779FD05460DB12846E0E7A9F10100B4
:1027E0002022216B02FB1010E064E07900F004006D
:1027F000002845D0E07920F00400E071204600F088
:1028000083FF05460DB12846C9E74FF0FF32204649
:10281000616B00F094FF05460DB12846BFE7A06844
:1028200070B32146684601F0E8FA05460DB1284626
:10283000B5E770894002D4E90431181841F100016C
:10284000C4E90401D4E90473316901F138003A465E
:1028500002F0A9F8D4E90473316901F128003A467D
:1028600002F0A1F8E07940F00100316981F821001F
:10287000684602F0CCF805460DB128468FE700BF48
:10288000D6E90310FFF7D0FC002088E70C2204F102
:10289000400115A801F006FC9DF85F0000F0010062
:1028A00028B340214B2001554FF0010A0EE053465A
:1028B00015A904F14000F26801F0A8F82046FFF7DE
:1028C000A3FD054605B104E00AF1010ABAF1640F5F
:1028D000EDD300BFBAF1640F01D107205FE7042DEB
:1028E00001D028465BE79DF85F104B2001559DF80D
:1028F0005F0000F0020030B10BF10C000D21B0FBC5
:10290000F1F0401C00E00120814649462046FFF7D7
:10291000DAFC054675BBA9F10100B0F1000929D028
:10292000206BA0EB4911204600F079F805460DBB5D
:1029300004F1400002F0A4F8149000BF3046A16BEF
:1029400001F010FE054605B113E009F0FF02E16B4E
:10295000F068149B01F008FF0120F0700021204670
:10296000FFF726FE054625B9A9F10100B0F10009DF
:10297000E4D100BFC5B93046A16B01F0F3FD0546B7
:1029800095B920220021E06B01F099FB0B2204F1A4
:102990004001E06B01F086FB4B20005D00F0180069
:1029A000E16B08730120F0702846F8E62DE9F0414C
:1029B00004462668276BE06C401C08B9002003E041
:1029C0002046E16C00F02BF805462DBB00BF3046D9
:1029D000A16B01F0C7FD054605B119E03078042868
:1029E00006D1E06B007800F07F00E16B087002E038
:1029F000E520E16B08700120F070206BB84200D335
:102A000006E000212046FFF7D3FD0546002DDED06D
:102A100000BF042D00D102252846BDE8F0812DE934
:102A2000F04104460D4626683078042801D180061E
:102A300001E04FF40010A84202D905F01F0010B1C8
:102A40000220BDE8F0812563A7682FB930780328FC
:102A500002DBF76A0020E07147B93089B0EB551FFF
:102A600001D80220EDE7F06AA0631CE070894FEA0C
:102A7000402811E03946204601F02EF80746781C20
:102A800008B90120DDE7022F02D3F069B84201D86E
:102A90000220D6E7A5EB08054545EBD2394630467E
:102AA000FFF752F9A0636763A06B08B90220C8E77B
:102AB000A06B00EB5520A063C5F3080106F13C00B4
:102AC0000844E0630020BCE770B50446002504E03C
:102AD00001200D494855681CC5B2022DF8DB14B120
:102AE000012C0BD109E0FDF703FF28B90648005D72
:102AF00020F001000449085502E001E0042070BD07
:102B000000BF0148005DFAE72400002003460BB92E
:102B1000002070470420FCE72DE9F04104460E46F2
:102B200017461D4615B90420BDE8F0810C48005D2C
:102B300000F0010008B10320F6E714B1012C0CD11C
:102B400009E0EAB239463046FDF7A2FF08B9002095
:102B5000EAE70120E8E70120E6E70420E4E70000D7
:102B6000240000200146022901DB012070470148B2
:102B7000405CFBE7240000202DE9F04104460E46AE
:102B800017461D4615B90420BDE8F0810F48005DC9
:102B900000F0010008B10320F6E70C48005D00F0EA
:102BA000040008B10220EFE714B1012C0CD109E0B8
:102BB000EAB239463046FEF773F808B90020E3E779
:102BC0000120E1E70120DFE70420DDE72400002009
:102BD00038B50546284600F0BFFB04463CB96946B7
:102BE000284602F031F804460CB90020286020463F
:102BF00038BD0000F7B582B016460398019001A8D1
:102C000001F032F80546002D02DA0B2005B0F0BDC8
:102C10000C4850F825400CB100202070029810B1EB
:102C20000020029908700749029841F825000EB962
:102C30000020EBE7002202A903A801F059FA074699
:102C40003846E3E7280000202DE9F74F98B0044606
:102C500016461CB909201BB0BDE8F08F06F03F06F0
:102C6000324603A919A801F043FA0546002D7AD18E
:102C7000039804904FF48C6000F0C2FC8346BBF1D3
:102C8000000F01D11120E6E70398C0F80CB00BF556
:102C900000700399086104A8199900F000FE054628
:102CA0002DB99DF85B0000F0800000B1062506F00C
:102CB0001C0000287DD045B1042D03D104A8FFF7E6
:102CC00063FD054646F008060AE09DF8160000F090
:102CD000110008B1072503E006F0040000B1082543
:102CE000002D3FD106F0080000283BD00398007863
:102CF000042839D1039820602146039801F00EF88A
:102D000003990969881C1E22002101F0D8F9039952
:102D1000096901F126001A22002101F0D0F92020D2
:102D20000399096908710399096901F10800844947
:102D300001F02DFE01200399096981F8210004A802
:102D400001F065FE0546002D53D1A068002850D043
:102D500000222046A16801F047FD0546A068401EFC
:102D60000399486145E0E5E01399039800F0EFFF0F
:102D70000290139901F10E00714901F008FE202024
:102D80001399C87200221399039801F0EEFD13996C
:102D900001F11C00002101F0FAFD01200399C87027
:102DA000029830B30398806B0190002204A8029926
:102DB00000E00DE001F018FD0546D5B90199039832
:102DC00001F0D0FB05460298401E0399486110E0CF
:102DD0007DB99DF8160000F0100008B1042508E048
:102DE00006F0020028B19DF8160000F0010000B1C5
:102DF00007254DB906F0080008B146F040060398D3
:102E0000806BA0641398E064002D7BD10398007858
:102E100004280FD106982062089820F0FF009DF842
:102E20001710084360621798A0622146039800F0CB
:102E300075FF0CE01399039800F089FFA0601399C7
:102E400001F11C0000F096FF0021C4E90401039881
:102E500020600398C088A08084F83060002084F847
:102E6000310060640021A163E1634FF4007204F15A
:102E7000500001F024F906F02000002857D000236C
:102E8000D4E9041059405840014350D0D4E904011A
:102E9000C4E90E01039840894FEA4029D4F808A0FC
:102EA000D4E9047810E05146204600F015FE824631
:102EB000BAF1010F00D802250AF1010000B901257D
:102EC000B7EB090768F100082DB90020B9EB07013D
:102ED00070EB0800E7D3C4F840A09DB94FF400722E
:102EE000002338464146FDF74FF900214A404B4048
:102EF0001A431CD051460398FEF726FF0190019813
:102F000008B9022513E04FF4007200233846414609
:102F1000FDF73AF9019908446064626C03994878B6
:102F2000012304F15001FFF7F7FD00B101255846D8
:102F300000F06CFB0DB10020206028468BE60000FD
:102F40000000214E2DE9FF4F87B004461546089832
:102F5000039000210A98016005A9204601F074FE43
:102F60000690069818B994F83100069018B10698A2
:102F70000BB0BDE8F08F94F8300000F0010008B904
:102F80000720F5E7D4E90430D4E90E125F1A60EBAC
:102F90000208791B78F1000000D23D46D4E0D4E964
:102FA0000E014FF400720023CDE90001FDF7ECF8AB
:102FB00000214A404B401A4370D1D4E90E014FF42E
:102FC00000720023CDE90001FDF7DEF8059949897B
:102FD000491E00EA010ABAF1000F1ED10023D4E90C
:102FE0000E1059405840014302D1A068049004E0FB
:102FF0002046216C00F070FD04900498022803D252
:10300000022084F83100B3E70498401C18B901206D
:1030100084F83100ACE704982064216C0598FEF731
:1030200093FE8146B9F1000F03D1022084F83100EC
:103030009EE7D1444FEA552BBBF1000F2FD00AEB8E
:103040000B0005994989884203D905984089A0EB6E
:103050000A0B059948785B464A460399FFF75CFDE1
:1030600018B1012084F8310082E794F8300000F0B4
:10307000800080B1606CA0EB090058450BD2616CF8
:10308000A1EB0901039A02EB41204FF4007204F115
:10309000500101F007F84FEA4B2645E029E0606C4B
:1030A000484524D094F8300000F0800090B1626C64
:1030B00005994878012304F15001FFF75DFD18B12F
:1030C000012084F8310053E794F8300000F07F00CD
:1030D00084F830000599487801234A4604F15001EC
:1030E000FFF71AFD18B1012084F8310040E7C4F859
:1030F0004490208FC0F30800C0F50076AE4200D99E
:103100002E46D4E90E014FF400720023CDE90001F0
:10311000FDF73AF804F1500010443246014602909F
:10312000039800F0BFFF00BFAD1B0A98006881192B
:103130000A980160039830440390D4E90E20921954
:1031400040F10000C4E90E20002D7FF428AF0020DC
:103150000EE72DE9F347BAB03BA800F085FD022247
:1031600011A93AA800F0C4FF0446002C7DD11198A3
:1031700026904FF48C6000F043FA06461EB91120E9
:103180003CB0BDE8F0871198C66006F50070119953
:10319000086126A83A9900F082FB04462CB99DF8F4
:1031A000E30000F0A00000B10624002C7BD11198B0
:1031B000007804285DD111984022016901A800F02F
:1031C00071FF502226A912A800F06CFF12A83B99AB
:1031D00000F065FB04465CB928991498884205D133
:1031E00032991E98884201D1042000E0082004464C
:1031F000042C3DD112A8FFF7C7FA0446B4BB1198BE
:10320000006990F801801198006990F82390119955
:10321000096901F1240000F0EAFD8246119940227B
:10322000086901A900F03EFF1198006980F801804B
:103230001198006980F823901199096901F124001F
:10324000514601F0DEFB11980069007900F0100092
:1032500038B911980069007940F020001199096986
:10326000087112A801F0D3FB01E072E000E004460F
:1032700062E0202201A8359900F014FF502226A90F
:1032800012A800F00FFF12A83B9900F008FB0446BB
:1032900064B928991498884206D132991E988842B8
:1032A00002D1042001E051E008200446042C43D15F
:1032B00012A8FFF769FA04464CBB219D13220DF1B9
:1032C000110105F10D0000F0EDFE9DF80F00E87210
:1032D000E87A00F0100018B9E87A40F02000E872AF
:1032E00001201199C870E87A00F0100078B11499A3
:1032F0002898884220D02946119800F028FD804661
:1033000041461198FEF720FD07460FB9022413E04D
:103310003946119801F026F90446119800F15C0530
:1033200054B968782E2807D12946149A119801F0CB
:103330001CFB01201199C87044B926A8FFF736FB81
:1033400004461CB9119801F0ABFB0446304600F06E
:103350005DF9204614E700002DE9F04796B00446D9
:1033600014A9204601F070FC0546002D7ED194F88A
:10337000300000F04000002878D094F8300000F0D1
:10338000800090B1626C14994878012304F15001D7
:10339000FFF7F2FB18B1012016B0BDE8F08794F8F2
:1033A000300000F07F0084F83000DFF854A114985A
:1033B0000078042875D1204600F0A6F9054635B9F5
:1033C0004FF0FF322046216C00F0B9F90546002D80
:1033D000CCD14FF48C6000F013F98146B9F1000FA5
:1033E00001D11120D8E71498C0F80C9009F50070AD
:1033F000149908612146684600F0FFFC0546002D3F
:103400004AD114980069007940F0200014990969A4
:103410000871E07940F001001499096981F82100F0
:10342000A168149A126902F1340001F0B0FAD4E9EB
:1034300004731499096901F138003A4601F0B3FAAE
:10344000D4E904731499096901F128003A4601F09E
:10345000AAFA1499096901F10C00514601F097FA92
:103460000020149909694875149900E045E009693C
:1034700001F11000002101F08AFA684601F0C7FA54
:1034800005464DB9149801F00BFB054694F8300041
:1034900000F0BF0084F83000484600F0B7F82CE098
:1034A000FFE7A16C149801F05DF805462DBBE66CB2
:1034B000F07A40F02000F0723146A268206801F0F6
:1034C00054FA06F11C00216901F061FA514606F137
:1034D000160001F05CFA002106F1120001F091FAE9
:1034E00001201499C870149801F0DAFA054694F88E
:1034F000300000F0BF0084F8300028464CE70000A0
:103500000000214E71B5B7B0002602220DA937A8E0
:1035100000F0EEFD0446002C70D10D9822904FF47F
:103520008C6000F06DF8054615B9112038B070BDFB
:103530000D98C56005F500700D99086122A83799AE
:1035400000F0ADF9044600BF002C54D19DF8D30023
:1035500000F0800008B1062405E09DF88E0000F020
:10356000010000B10724A4BB0D9800900D980078CD
:10357000042805D169460D9800F0D0FB029E04E0B6
:1035800031990D9800F0E3FB06469DF88E0000F09F
:103590001000F0B10D980E9010960D980078042848
:1035A00007D1DDE90401CDE912019DF807008DF88E
:1035B0003F0000210EA8FFF732FA04464CB9002163
:1035C0000EA8FFF765F8044604B90724042C00D1BF
:1035D000002484B922A8FFF7E9F9044634B92EB1D2
:1035E00000223146684601F0FFF804461CB90D98E8
:1035F00001F056FA0446284600F008F8204695E700
:1036000010B50446204600F005FD10BD10B5044677
:10361000204600F0B7F910BD10B5024600200D4B52
:10362000802A01D290B213E0B2F5803F10D240F26E
:10363000B514A1420CD1002001E0441CA0B28028A6
:1036400003DA33F810409442F7D100F18004E0B27D
:1036500010BD0000624E000870B5B0F5803F4DD23D
:1036600081B2B1F5805F01DA254E00E0254E324689
:1036700000BF32F8023B0BB1994200DA3CE032F86D
:10368000024B2512E4B21E198E4230DD092D2CD2D8
:10369000DFE805F005090F13171B1F232700CE1ABB
:1036A00032F8161021E0CE1A06F001068E1BB1B2D8
:1036B0001BE0A1F11006B1B217E0A1F12006B1B2F2
:1036C00013E0A1F13006B1B20FE0A1F11A06B1B2D8
:1036D0000BE001F10806B1B207E0A1F15006B1B26A
:1036E00003E0A1F5E356B1B200BF00BF04E0002D36
:1036F000BFD102EB4402BCE700BF084670BD00002A
:10370000624F0008545100082DE9F0410446E07969
:10371000032812D1A568A7690BE06A1C2946206816
:1037200000F080FF064616B13046BDE8F0816D1C02
:103730007F1E002FF1D10020E0710020F5E72DE978
:10374000F04104460D46174616E0E369012B03D904
:10375000E369EB1A9B1C00E03B461A46E369EB1A4F
:10376000591C206800F05EFF064616B13046BDE8E1
:10377000F081E069401EE061E0690028E5D100BF0A
:10378000F5E72DE9F74F05460E46B61EE869801E9F
:10379000B04200D800263446A2464FF0000B00BFCE
:1037A000686B00EB1431284600F0DCFE18B14FF0D6
:1037B000FF30BDE8FE8FC4F3C80904F00701012003
:1037C0008840C7B200BF00BF05F13C0010F80900F7
:1037D00000EA07087806070E601C0446E969891E9E
:1037E000884203D3002400274FF40079B8F1000F7A
:1037F00008D10BF1010083460299884205D10AF1F4
:103800000200D6E7A2464FF0000BB44201D10020DF
:10381000CFE7002FD8D1012709F101008146B0F58B
:10382000007FD0D3BCE72DE9FF4107460D460021BC
:103830003846FEF731FA0646022E06D0032E00D295
:103840001DB9304604B0BDE8F08100BF00240AE095
:1038500007F5FD7101EB041101F1080000F08AFA8F
:103860004DF82400641C042CF2D30DB1681E00E056
:103870000020044600BF5DF8240028B15DF8241044
:103880003846FEF709FA00E0032006462DB9022E5D
:1038900003D3601C04460428EDD33046D2E72DE95B
:1038A000F3410446276802E00198401C019001980A
:1038B00000782F28F8D0019800785C28F4D00020F8
:1038C000A060E06101980078202808D280214B2078
:1038D000015500212046FFF7A2F805463EE000BF53
:1038E00001A92046FEF770FB054605B135E02046EC
:1038F000FEF78AFD05464B20065D3DB1042D04D13F
:1039000000BF06F0040000B9052526E006F004001B
:1039100000B122E0A07900F0100008B905251CE0F4
:10392000387804280ED1A0682062206920F0FF00BA
:10393000E17908436062E06CA0622146384600F0FD
:10394000EDF909E0208EC0F3080207F13C001118E0
:10395000384600F0FCF9A060C2E700BF2846BDE889
:10396000FC81000000BF064A1268128802F0400283
:10397000002AF8D0C2B2024B1B689A807047000040
:10398000904D000810B5002821D0114B0022001FD7
:10399000196803E0814203D80A4649680029F9D131
:1039A00052B11368841A9C4204D100681844106014
:1039B000104602E0506000E0186039B102680B1A4E
:1039C000934203D10B681A4402604968416010BDFC
:1039D0004000002010B5ADF5147D044600222146BC
:1039E0006846FFF731F930B96846FFF7F1F8012072
:1039F0000DF5147D10BD0020FAE710B500F068FB4E
:103A000010BD10B501F012F910BD00002DE9FF4FF7
:103A100083B0804691461E460B224046049900F032
:103A200041FB052E18D9374611E039F802BB0025B5
:103A30000BE0584667F35F0007464FEA6B0B07F44D
:103A4000803008B1234847406D1C102DF1D3B9F8E0
:103A500000000028E9D13E46072500BF06F00F0010
:103A600000F1300ABAF1390F03DD0AF1070000F066
:103A7000FF0A28466D1E01A901F800A03609002E94
:103A8000ECD17E20485500240AE018F80400FEF727
:103A900014FC20B1681EA04200D107E0641C641C25
:103AA000AC4203D218F804002028EED100BF00BFBA
:103AB000082D04D228466D1C01A9085C00E02020D6
:103AC0002146641C08F80100082CF1D307B0BDE8BA
:103AD000F08F0000211001002DE9FC5F06460C4626
:103AE0003568022C02D3E869A04202D84FF00109E0
:103AF000B7E04FF0FF392878012806D0022830D0EF
:103B0000032841D004287CD152E0274607EB570711
:103B1000A86A00EB5721284600F024FD00B19FE081
:103B200038467F1CC0F3080105F13C0010F8018005
:103B3000A86A00EB5721284600F014FD00B18FE081
:103B4000C7F3080105F13C00405C48EA002804F096
:103B5000010010B14FEA181001E0C8F30B008146D4
:103B60007EE0A86A00EB1421284600F0FBFC00B1BF
:103B700076E040F2FF1101EA440205F13C015018E1
:103B800000F035F981466BE0A86A00EBD4112846B5
:103B900000F0E8FC00B163E040F2FF1101EA8402AA
:103BA00005F13C01501800F0E5F820F0704957E0AD
:103BB0000022D6E9041051405040014301D0B068C2
:103BC00008B9F07990BBB068A4EB000AD6E90420EC
:103BD000521E60F10000CDE900204FF40072002376
:103BE000DDE90001FCF7D0FA6989B0FBF1FBF0795F
:103BF00002280AD1DA4508D8DA4503D16FF000402F
:103C000001E02AE0601C81462AE0F079032805D112
:103C1000B069504502D904F1010921E0F079022888
:103C200019D0F06918B16FF0004913E014E0A86AE8
:103C300000EBD411284600F095FC00B110E040F2F2
:103C4000FF1101EA840205F13C01501800F092F8DE
:103C500020F0004904E000BF00BF4FF0010900BFA1
:103C600000BF4846BDE8FC9FF0B506464FF0FF3068
:103C7000D6F800C06146634601B9F0BD00BF13F835
:103C8000012B202A01D33A2AF9D13A2A40D1022520
:103C900091F800C0BCF1300F0DDB91F800C0BCF111
:103CA000390F08DC01F1020C9C4504D191F800C0E9
:103CB000ACF1300527E0002500BFDFF85CC05CF800
:103CC0002570316800BF17F8014B11F8012B612CEA
:103CD00005DB7A2C03DCA4F1200C0CF0FF04612A34
:103CE00005DB7A2A03DCA2F1200C0CF0FF020CB1F8
:103CF0009442E8D00CB9994205D005F1010C654613
:103D0000BCF1020FD9DB022D01DA28463360B4E79B
:103D1000002000BFB1E70000CC4D000870B505469B
:103D20000C46296901F1340000F024F8A0602969EB
:103D300001F1380000F02AF8C4E90401286990F87C
:103D4000210000F00200E0710020E06170BD70B55C
:103D500005460C4604F11A0000F049F8064628789A
:103D6000032805D104F1140000F041F846EA0046AA
:103D7000304670BD0146C8788A7842EA00204A7809
:103D800042EA00200A7842EA0020704770B50246F5
:103D9000D3790024250245EA1364907940EA03238D
:103DA000250245EA1364507940EA0323250245EAD7
:103DB0001364107940EA0323250245EA1364D0789E
:103DC00040EA0323200240EA1364917841EA032386
:103DD000210241EA1364507840EA0323250245EAB0
:103DE0001364117841EA03231846214670BD014649
:103DF00048780A7842EA0020704770B504460D46BC
:103E000028682060286AA06095F82400E071686A3C
:103E100020F0FF000021C4E904010020E061A86A4D
:103E2000E0642046E16CFEF7FAFD06461EB9204626
:103E300000F003F80646304670BD2DE9F047044611
:103E400020680669A16B206800F08CFB054615B15F
:103E50002846BDE8F087E06B0078852801D0022075
:103E6000F7E720223046E16B00F01CF97078401C27
:103E70004FEA4018B8F1600F02D3B8F5187F01D9A6
:103E80000220E6E700212046FEF792FB0546042DBE
:103E900000D102250DB12846DBE7A16B206800F0B8
:103EA00061FB05460DB12846D3E7E06B0078C028DA
:103EB00001D00220CDE7202206F12000E16B00F0C6
:103EC000F1F896F823002C300F21B0FBF1F0B8EB9D
:103ED000401F01D20220BCE7402700BF002120463E
:103EE000FEF766FB0546042D00D102250DB12846DC
:103EF000AFE7A16B206800F035FB05460DB1284601
:103F0000A7E7E06B0078C12801D00220A1E7B7F550
:103F1000187F04D2F0192022E16B00F0C3F807F1FA
:103F2000200007464045D9D3B7F5187F0AD8304658
:103F300000F0A8FE8146B01CFFF759FF814501D073
:103F4000022086E7002084E74FF4A060FCF7ECFB3A
:103F500000201E49086004E01C480068401C1B4902
:103F600008601A4800681A498842F5D34FF4E130D6
:103F700000F0F4FCFDF724FD00B108E0FDF7C8FBFC
:103F800000B104E0FDF7E8FC00B100E000BF11A0C3
:103F9000FDF788FA16A0FDF785FAFDF7FFFC00F0A3
:103FA000D8FCFDF791FD10E000200849086004E00E
:103FB00006480068401C05490860044800680D492F
:103FC0008842F5D30CA0FDF76DFAEDE7380000202C
:103FD000404B4C004C61756E6368696E67204170A0
:103FE000706C69636174696F6E2E0D0A00000000C9
:103FF0000D0A0000A08601004C61756E63682041C7
:1040000070706C69636174696F6E204661696C2EB3
:104010000D0A0000F0B50B30154D20F0070100240B
:10402000144A0FE003688B420BD38B4205D95E1A0A
:1040300043184768C3E9006700E04368136002C0A3
:1040400004E0021D10680028ECD12046002802D1AF
:10405000286808B10020F0BD064A07481060074AEA
:10406000121A22F00702C0E9002401202860D7E7D5
:1040700044000020400000201407002010270020EA
:10408000F0B503461D460C46002000BF15F8017B25
:1040900014F801CBA7EB0C00561E321E01D00028ED
:1040A000F4D0F0BD30B503460C463AB100BF14F869
:1040B000015B03F8015B551E2A1EF8D130BD10B517
:1040C000034600BF03F8011B541E221EFAD110BD87
:1040D00010B5012204A10548FEF78CFD08B90120A6
:1040E00010BD0020FCE7000053443A0048000020C7
:1040F0002DE9F74F8CB000210D9801600C98FFF767
:10410000B3FD0A900A98002803DA0B200FB0BDE82F
:10411000F08FFE490A9851F820400CB90C20F5E7C1
:104120000D9804600E9800F0FE000E90207878B193
:104130006078FEF717FD83460BF0010040B90E983A
:1041400020B10BF0040008B10A20DFE70020DDE712
:10415000002020700A9860706078FEF7B5FC8346F6
:104160000BF0010008B10320D0E70E9820B10BF04E
:10417000040008B10A20C9E700212046FFF753FBDD
:104180000746042F01D10120C0E7022F01D30D20E3
:10419000BCE7A56B012F76D14FF00B0901E009F1C7
:1041A0000109B9F1400F05D204F13C0010F80900F3
:1041B0000028F4D0B9F1400F01D20D20A6E704F198
:1041C000A400FFF714FEB0F5807F01D00D209DE71D
:1041D00094F8A81001208840B0F5007F01D00D2090
:1041E00094E704F18400FFF7D1FD0346084659190E
:1041F00040F10000CDE90410DDE90410091E70F162
:10420000010001D30D2081E704F19000FFF7B2FD1A
:10421000206294F8AA00A070A078012801D00D2097
:1042200074E794F8A910012088406081608908B97A
:104230000D206BE704F19800FFF79CFD0646B4499A
:104240008E4201D90D2061E7B01CE061656204F186
:104250009400FFF78FFD2844206304F18C00FFF7E2
:1042600089FD2844A0624FF0000C608900FB06F134
:10427000226B53184CEB0C01DDE90420D21A884163
:1042800002D20D2042E76CE004F19C00FFF772FDC2
:10429000E06200208146039000BFB9F1000F16D103
:1042A00061890398814201D80D202FE72046E16AF9
:1042B000FDF74AFD0399084401460190204600F0AD
:1042C00051F908B1012021E70398401C039004F143
:1042D0003C0010F80900812800D104E009F1200019
:1042E000C0F30809D9E700BF04F13C01494401F1DA
:1042F0001400FFF73FFD8046B8F1020F02D3E069DA
:10430000404501D80D2001E76289A8F10200216B28
:1043100002FB0010606300BFA06A00EBD8112046CA
:1043200000F020F908B10120F0E608F07F0104F167
:104330003C0202EB8100FFF71DFD02900298401C39
:1043400000B907E008F10100804602998842E3D0F5
:104350000D20DBE600BF4FF0FF30A0616061042755
:10436000F0E004F14700FFF742FDB0F5007F01D017
:104370000D20CBE604F15200FFF739FD8246BAF179
:10438000000F04D104F16000FFF7F4FC8246C4F88A
:1043900020A04C20005DA070A078012804D0A07857
:1043A000022801D00D20B1E6A0780AFB00FA4920CE
:1043B000005D6081608918B16089411E084008B1C4
:1043C0000D20A3E604F14D00FFF711FD2081207AB6
:1043D00000F00F0008B10D2098E604F14F00FFF740
:1043E00006FD0990099820B904F15C00FFF7C2FCB2
:1043F000099004F14A00FFF7FAFC0690069808B904
:104400000D2083E606985044218900EB1110089096
:10441000DDE90801814201D20D2077E6DDE90810CF
:10442000401A6189B0FBF1F60EB90D206EE6002747
:104430003848864200D803274FF6F570864200D8E8
:10444000022740F6F570864200D801270FB90D20EB
:104450005CE6B01CE061656206982844A06208989A
:1044600028442063032F13D104F16600FFF7BFFC3B
:1044700008B10D204AE6208908B10D2046E604F176
:104480006800FFF777FCE062E0698000079014E0C5
:10449000208908B90D2039E6A06A5044E062022F55
:1044A00002D1E069400007E0207F00F00100E169EF
:1044B00001EB410100EB51000790216A079800F2DF
:1044C000FF10B1EB502F01D20D201FE64FF0FF304F
:1044D000A061606180202071032F33D104F16C0052
:1044E000FFF785FC01282DD1691C204600F03AF821
:1044F00040BB0020207104F23A20FFF778FC4AF616
:10450000552188421ED104F13C0005E0280000201E
:10451000FDFFFF7FF5FFFF0FFFF72CFC0E498842E0
:1045200010D104F50870FFF725FC0C49884209D129
:1045300004F50970FFF71EFCA06104F50A70FFF78F
:1045400019FC6061277006480088401C80B204494D
:104550000880E0800020D9E55252614172724161C9
:104560003000002070B504460D460026A06BA8421E
:1045700010D0204600F0DCFA06465EB960780123D0
:104580002A4604F13C01FEF7C7FA10B14FF0FF359F
:104590000126A563304670BD2DE9F04780460C46E4
:1045A00004F11A00FFF723FC10B10020BDE8F087EA
:1045B000207820F04000401E00EB800101EBC00598
:1045C0004FF00109002619E01549895D0819FFF728
:1045D0000EFC0746B9F1000F09D0FF2D01D90020CC
:1045E000E4E7B94628466D1C28F8107005E04FF640
:1045F000FF70874201D00020D8E7761C0D2EE3D350
:10460000207800F0400048B1B9F1000F06D0FF2D2E
:1046100001D90020CAE7002028F815000120C5E7CD
:10462000D44D00082DE9F04704460D4616464FF0DC
:104630000209022D77D3E069A84274D920780128B5
:1046400006D002284BD0032861D004280DD15FE0AA
:104650002F4607EB5707A06A00EB57212046FFF7CC
:1046600081FF8146B9F1000F00D079E038467F1C08
:10467000C0F3080104F13C0001EB000805F0010063
:1046800028B1F1B298F8000061F31F1000E0304645
:1046900088F800000120E070A06A00EB5721204656
:1046A000FFF760FF8146B9F1000F00D058E0C7F373
:1046B000080104F13C0001EB000805F0010010B115
:1046C000C6F3071006E098F8000000F0F000C6F30B
:1046D0000321084388F800000120E07040E0A06A50
:1046E00000EB15212046FFF73DFF8146B9F1000F91
:1046F00000D035E0B1B240F2FF1202EA450304F106
:104700003C02981800F07DF90120E07028E000BF1D
:10471000A06A00EBD5112046FFF724FF8146B9F1CE
:10472000000F01D01CE01CE0207804280BD040F2E0
:10473000FF1101EA850204F13C015018FFF71AFB52
:1047400066F31B00064640F2FF1101EA850204F100
:104750003C015018314600F01AF90120E07000BF0A
:1047600000BF4846BDE8F0872DE9F04707460C46F4
:104770001546984684F80D800F20E07200202073C3
:10478000002104F11A0000F03CF9681E00EB8001E2
:1047900001EBC00900200646824600BF4FF6FF70BD
:1047A000864204D0484609F1010937F810600D49E6
:1047B00011F80A100819314600F023F90EB94FF626
:1047C000FF760AF1010082460D28E7D34FF6FF700D
:1047D000864202D037F8190008B945F04005257027
:1047E000BDE8F087D44D00082DE9F05F06460F467E
:1047F00090464FF000093568BA46BB46022F02D3F7
:10480000E869B84202D80220BDE8F09FB8F1000F75
:1048100011D02878042802D1F07902280BD04FF06B
:10482000FF3241462846FFF7FDFE8146B9F1000FF1
:1048300001D04846E8E700BF39463046FFF74CF95B
:10484000044604B93EE0012C01D10220DCE7601CE3
:1048500008B90120D8E7287804280AD00022394670
:104860002846FFF7DFFE8146B9F1000F01D0484628
:10487000CAE7D5E90610801E814206D2A869401C0D
:10488000A861287940F0010028710BF10100A042D5
:1048900001D1A34612E0287804280DD1ABEB0A0021
:1048A000421C002351462846FDF7B0F98146B9F174
:1048B000000F01D04846A7E7A346A2462746E8696D
:1048C000B842B9D800BF2878042830D1B8F1000F19
:1048D00002D10020F0712AE0F079D8B9B76811E070
:1048E00039463046FFF7F8F80446022C01D2022080
:1048F0008AE7601C08B9012086E7781C844200D052
:1049000002E07F1C4745EBD100BF47450FD1022095
:10491000F0710CE0F079032809D1B068404506D861
:10492000B169B0680844404501D30220F07100200D
:104930006AE770B504460D4640F2244229462046F7
:10494000FCF72AFC70BD10B504462046FCF734FC89
:1049500010BD10B50020FFF7F6FF10BD10B50446DE
:1049600021460020FFF7E5FF10BD70B506460C4656
:104970001546A9B204F11A0000F043F83078032874
:1049800004D1290C04F1140000F03BF870BD00F8CC
:10499000011B090A00F8011B090A00F8011B090A9A
:1049A00000F8011B704730B500F8012B110A41EAED
:1049B00003621B0A00F8012B110A41EA03621B0A79
:1049C00000F8012B110A41EA03621B0A00F8012BCF
:1049D000110A41EA03621B0A00F8012B110A41EA9D
:1049E00003621B0A00F8012B110A41EA03621B0A49
:1049F00000F8012B110A41EA03621B0A00F8012B9F
:104A000030BD00F8011B091200F8011B70472DE9A9
:104A1000F041044620680569284600F033F98046D5
:104A20004146A81CFFF7EDFF6878471C2046E16C63
:104A3000FDF7F5FF064618E0A16B2068FFF792FD31
:104A4000064606B113E020222946E06BFFF72AFB59
:104A500001202168C870781E071E00D107E02035AC
:104A600000212046FDF7A4FD0646002EE4D000BF3D
:104A70000EB1012E02D13046BDE8F0810220FBE7E5
:104A800030B5014600200B2200BF431003EBC014D9
:104A900011F8015B6319D8B2531E1A1EF5D130BD4F
:104AA00070B50446204600F043F80546002D38D185
:104AB000207803282ED1207901282BD14202002111
:104AC00004F13C00FFF7FBFA4AF6552104F23A20C4
:104AD000FFF797FF144904F13C00FFF758FF134913
:104AE00004F50870FFF753FF04F50970A169FFF79B
:104AF0004EFF04F50A706169FFF749FF606A401CC8
:104B0000A0636078012304F13C01A26BFEF734F846
:104B100000202071607800221146FDF7F7FF00B1F8
:104B20000125284670BD00005252614172724161F8
:104B300070B504460025E078E8B16078012304F1FF
:104B40003C01A26BFEF718F8A0B90020E070A16A42
:104B5000A06B401A216A88420DD2A07802280AD19F
:104B6000236AA16BCA186078012304F13C01FEF7A7
:104B700003F800E00125284670BD000070B504462A
:104B8000226812F8011B01F08000002847D001F0D4
:104B9000E000C02803D101F01F01012312E001F061
:104BA000F000E02803D101F00F0102230AE001F038
:104BB000F800F02803D101F00701032302E04FF0D1
:104BC000FF3070BD00BF12F8015B05F0C000802807
:104BD00002D04FF0FF30F4E7284661F39F10014602
:104BE000581E031EEFD1802908D3B1F5584F02D3C8
:104BF000B1F5604F02D3B1F5881F02D34FF0FF30FB
:104C0000DFE7B1F5803F0AD3A1F58030054E06EA13
:104C10008010054E3043C1F3090640EA06012260C8
:104C20000846CEE70000FF0300DC00D810B50122E3
:104C300004A10020FDF7DEFF08B9012010BD00200F
:104C4000FCE7000053443A0070B504460D460926BF
:104C50008CB1206878B12068007860B1A0882168A4
:104C6000C988884207D121684878FDF77BFF00F0AA
:104C7000010000B900260EB9206800E0002028607D
:104C8000304670BD30B502465478641C6301002480
:104C90002046214610E0022901D1491C0BE000F01A
:104CA000010414B14FF4004400E0002404EB60045C
:104CB000555C2C44A0B2491C9942ECD330BD70B570
:104CC000064600241BE02846FEF7C6FC85B204F029
:104CD000010010B14FF4004000E0002000EB640040
:104CE000E9B2084484B204F0010010B14FF400406E
:104CF00000E0002000EB640000EB252084B236F8D1
:104D0000021B0D1EDFD1204670BD000000300140A7
:104D100000380040003C0040041000000840000043
:104D20000880000020000020080040000040100023
:104D3000800000802000000000080140000C0140BD
:104D4000001001400014014000180140001C014007
:104D5000002001400C1002401010024010100240D0
:104D60001010024010100240181002401C100240A7
:104D70001C1002401C1002401C10024000400000A9
:104D80000000020000000400000008000000100005
:104D9000003801400044004000480040004C004002
:104DA00000500040090002000A010A020C020A0039
:104DB00003000B010B020203250000002600000087
:104DC00027000000340000003500000010520008E9
:104DD0001452000801030507090E10121416181CBE
:104DE0001E809A45418E418F804545454949498EEF
:104DF0008F9092924F994F555559999A9B9C9D9E91
:104E00009F41494F55A5A5A6A7A8A9AAABACADAE91
:104E1000AFB0B1B2B3B4B5B6B7B8B9BABBBCBDBE2A
:104E2000BFC0C1C2C3C4C5C6C7C8C9CACBCCCDCE1A
:104E3000CFD0D1D2D3D4D5D6D7D8D9DADBDCDDDE0A
:104E4000DFE0E1E2E3E4E5E6E7E8E9EAEBECEDEEFA
:104E5000EFF0F1F2F3F4F5F6F7F8F9FAFBFCFDFEEA
:104E6000FF00C700FC00E900E200E400E000E5000C
:104E7000E700EA00EB00E800EF00EE00EC00C40001
:104E8000C500C900E600C600F400F600F200FB0011
:104E9000F900FF00D600DC00A200A300A500A720B7
:104EA0009201E100ED00F300FA00F100D100AA0048
:104EB000BA00BF001023AC00BD00BC00A100AB00D5
:104EC000BB00912592259325022524256125622585
:104ED000562555256325512557255D255C255B25E0
:104EE0001025142534252C251C2500253C255E2560
:104EF0005F255A25542569256625602550256C2592
:104F0000672568256425652559255825522553258B
:104F10006B256A2518250C25882584258C25902548
:104F20008025B103DF009303C003A303C303B500CF
:104F3000C403A6039803A903B4031E22C603B50342
:104F400029226122B1006522642220232123F70057
:104F50004822B0001922B7001A227F20B200A025F3
:104F6000A00061001A03E0001703F8000703FF0028
:104F70000100780100013001320106013901100100
:104F80004A012E017901060180014D004302810191
:104F900082018201840184018601870187018901E0
:104FA0008A018B018B018D018E018F01900191018E
:104FB000910193019401F6019601970198019801DE
:104FC0003D029B019C019D0120029F01A001A001C7
:104FD000A201A201A401A401A601A701A701A901A0
:104FE000AA01AB01AC01AC01AE01AF01AF01B1014F
:104FF000B201B301B301B501B501B701B801B80100
:10500000BA01BB01BC01BC01BE01F701C001C10175
:10501000C201C301C401C501C401C701C801C70160
:10502000CA01CB01CA01CD011001DD0101008E01D1
:10503000DE011201F3010300F101F401F401F801B2
:105040002801220212013A020900652C3B023B02B0
:105050003D02662C3F0240024102410246020A0123
:105060005302400081018601550289018A015802DC
:105070008F015A0290015C025D025E025F029301A1
:10508000610262029401640265026602670297018E
:1050900096016A02622C6C026D026E029C01700223
:1050A00071029D01730274029F01760277027802F9
:1050B00079027A027B027C02642C7E027F02A601C6
:1050C00081028202A9018402850286028702AE0162
:1050D0004402B101B20145028D028E028F0290029C
:1050E0009102B7017B030300FD03FE03FF03AC0342
:1050F00004008603880389038A03B1031103C203F2
:105100000200A303A303C4030803CC0303008C031E
:105110008E038F03D8031801F2030A00F903F30387
:10512000F403F503F603F703F703F903FA03FA03AD
:105130003004200350041007600422018A04360161
:10514000C1040E01CF040100C004D0044401610574
:10515000260400007D1D0100632C001E9601A01E88
:105160005A01001F0806101F0606201F0806301FE0
:105170000806401F0606511F0700591F521F5B1FDC
:10518000541F5D1F561F5F1F601F0806701F0E0013
:10519000BA1FBB1FC81FC91FCA1FCB1FDA1FDB1FC7
:1051A000F81FF91FEA1FEB1FFA1FFB1F801F0806DD
:1051B000901F0806A01F0806B01F0400B81FB91FE3
:1051C000B21FBC1FCC1F0100C31FD01F0206E01F6F
:1051D0000206E51F0100EC1FF31F0100FC1F4E211A
:1051E0000100322170211002842101008321D0248A
:1051F0001A05302C2F04602C0201672C0601752C37
:105200000201802C6401002D260841FF1A030000D2
:1052100053440000550000003852000800000020F0
:1052200048000000C4140008805200084800002014
:10523000C82A0000D4140008000000000102030482
:105240000102030406070809020406080000000022
:1052500000080140000C0140000C01400101000069
:1052600000000000000000000000000000700008C6
:10527000000000000000000000000000000000002E
:0400000508000131BD
:00000001FF
